{
  "contractName": "Farm",
  "abi": [
    {
      "inputs": [
        {
          "internalType": "contract IERC20",
          "name": "stakingToken",
          "type": "address"
        },
        {
          "internalType": "contract IERC20",
          "name": "distributionToken",
          "type": "address"
        },
        {
          "internalType": "uint256",
          "name": "maxUnlocks",
          "type": "uint256"
        },
        {
          "internalType": "uint256",
          "name": "initialBonus_",
          "type": "uint256"
        },
        {
          "internalType": "uint256",
          "name": "bonusPeriod_",
          "type": "uint256"
        },
        {
          "internalType": "uint256",
          "name": "initialSharesPerToken",
          "type": "uint256"
        },
        {
          "internalType": "uint256",
          "name": "bonusDecimals_",
          "type": "uint256"
        },
        {
          "internalType": "address",
          "name": "_farmer",
          "type": "address"
        },
        {
          "internalType": "address",
          "name": "receiptTokenAddres",
          "type": "address"
        },
        {
          "internalType": "address",
          "name": "_feeAddress",
          "type": "address"
        }
      ],
      "stateMutability": "nonpayable",
      "type": "constructor"
    },
    {
      "anonymous": false,
      "inputs": [
        {
          "indexed": true,
          "internalType": "address",
          "name": "feeAddress",
          "type": "address"
        },
        {
          "indexed": false,
          "internalType": "uint256",
          "name": "amount",
          "type": "uint256"
        }
      ],
      "name": "FeeCollected",
      "type": "event"
    },
    {
      "anonymous": false,
      "inputs": [
        {
          "indexed": true,
          "internalType": "address",
          "name": "user",
          "type": "address"
        },
        {
          "indexed": false,
          "internalType": "uint256",
          "name": "amount",
          "type": "uint256"
        },
        {
          "indexed": false,
          "internalType": "uint256",
          "name": "total",
          "type": "uint256"
        }
      ],
      "name": "Joined",
      "type": "event"
    },
    {
      "anonymous": false,
      "inputs": [
        {
          "indexed": true,
          "internalType": "address",
          "name": "user",
          "type": "address"
        },
        {
          "indexed": false,
          "internalType": "uint256",
          "name": "amount",
          "type": "uint256"
        },
        {
          "indexed": false,
          "internalType": "uint256",
          "name": "total",
          "type": "uint256"
        }
      ],
      "name": "Left",
      "type": "event"
    },
    {
      "anonymous": false,
      "inputs": [
        {
          "indexed": true,
          "internalType": "address",
          "name": "previousOwner",
          "type": "address"
        },
        {
          "indexed": true,
          "internalType": "address",
          "name": "newOwner",
          "type": "address"
        }
      ],
      "name": "OwnershipTransferred",
      "type": "event"
    },
    {
      "anonymous": false,
      "inputs": [
        {
          "indexed": true,
          "internalType": "address",
          "name": "user",
          "type": "address"
        },
        {
          "indexed": false,
          "internalType": "uint256",
          "name": "amount",
          "type": "uint256"
        }
      ],
      "name": "ReceiptBurned",
      "type": "event"
    },
    {
      "anonymous": false,
      "inputs": [
        {
          "indexed": true,
          "internalType": "address",
          "name": "user",
          "type": "address"
        },
        {
          "indexed": false,
          "internalType": "uint256",
          "name": "amount",
          "type": "uint256"
        }
      ],
      "name": "ReceiptMinted",
      "type": "event"
    },
    {
      "anonymous": false,
      "inputs": [
        {
          "indexed": false,
          "internalType": "uint256",
          "name": "amount",
          "type": "uint256"
        },
        {
          "indexed": false,
          "internalType": "uint256",
          "name": "durationSec",
          "type": "uint256"
        },
        {
          "indexed": false,
          "internalType": "uint256",
          "name": "total",
          "type": "uint256"
        }
      ],
      "name": "RewardsAdded",
      "type": "event"
    },
    {
      "anonymous": false,
      "inputs": [
        {
          "indexed": true,
          "internalType": "address",
          "name": "user",
          "type": "address"
        },
        {
          "indexed": false,
          "internalType": "uint256",
          "name": "amount",
          "type": "uint256"
        }
      ],
      "name": "RewardsClaimed",
      "type": "event"
    },
    {
      "anonymous": false,
      "inputs": [
        {
          "indexed": false,
          "internalType": "uint256",
          "name": "amount",
          "type": "uint256"
        },
        {
          "indexed": false,
          "internalType": "uint256",
          "name": "total",
          "type": "uint256"
        }
      ],
      "name": "RewardsMovedToClaimable",
      "type": "event"
    },
    {
      "inputs": [],
      "name": "bonusDecimals",
      "outputs": [
        {
          "internalType": "uint256",
          "name": "",
          "type": "uint256"
        }
      ],
      "stateMutability": "view",
      "type": "function"
    },
    {
      "inputs": [],
      "name": "bonusPeriod",
      "outputs": [
        {
          "internalType": "uint256",
          "name": "",
          "type": "uint256"
        }
      ],
      "stateMutability": "view",
      "type": "function"
    },
    {
      "inputs": [],
      "name": "farmer",
      "outputs": [
        {
          "internalType": "address",
          "name": "",
          "type": "address"
        }
      ],
      "stateMutability": "view",
      "type": "function"
    },
    {
      "inputs": [],
      "name": "feeAddress",
      "outputs": [
        {
          "internalType": "address",
          "name": "",
          "type": "address"
        }
      ],
      "stateMutability": "view",
      "type": "function"
    },
    {
      "inputs": [],
      "name": "initialBonus",
      "outputs": [
        {
          "internalType": "uint256",
          "name": "",
          "type": "uint256"
        }
      ],
      "stateMutability": "view",
      "type": "function"
    },
    {
      "inputs": [],
      "name": "owner",
      "outputs": [
        {
          "internalType": "address",
          "name": "",
          "type": "address"
        }
      ],
      "stateMutability": "view",
      "type": "function"
    },
    {
      "inputs": [],
      "name": "receiptToken",
      "outputs": [
        {
          "internalType": "address",
          "name": "",
          "type": "address"
        }
      ],
      "stateMutability": "view",
      "type": "function"
    },
    {
      "inputs": [],
      "name": "renounceOwnership",
      "outputs": [],
      "stateMutability": "nonpayable",
      "type": "function"
    },
    {
      "inputs": [],
      "name": "totalFrozenShares",
      "outputs": [
        {
          "internalType": "uint256",
          "name": "",
          "type": "uint256"
        }
      ],
      "stateMutability": "view",
      "type": "function"
    },
    {
      "inputs": [],
      "name": "totalUsersShares",
      "outputs": [
        {
          "internalType": "uint256",
          "name": "",
          "type": "uint256"
        }
      ],
      "stateMutability": "view",
      "type": "function"
    },
    {
      "inputs": [
        {
          "internalType": "address",
          "name": "newOwner",
          "type": "address"
        }
      ],
      "name": "transferOwnership",
      "outputs": [],
      "stateMutability": "nonpayable",
      "type": "function"
    },
    {
      "inputs": [
        {
          "internalType": "uint256",
          "name": "",
          "type": "uint256"
        }
      ],
      "name": "unlockSchedules",
      "outputs": [
        {
          "internalType": "uint256",
          "name": "initialLockedShares",
          "type": "uint256"
        },
        {
          "internalType": "uint256",
          "name": "unlockedShares",
          "type": "uint256"
        },
        {
          "internalType": "uint256",
          "name": "lastUnlockTimestampSec",
          "type": "uint256"
        },
        {
          "internalType": "uint256",
          "name": "endAtSec",
          "type": "uint256"
        },
        {
          "internalType": "uint256",
          "name": "durationSec",
          "type": "uint256"
        }
      ],
      "stateMutability": "view",
      "type": "function"
    },
    {
      "inputs": [
        {
          "internalType": "address",
          "name": "user",
          "type": "address"
        },
        {
          "internalType": "uint256",
          "name": "amount",
          "type": "uint256"
        }
      ],
      "name": "join",
      "outputs": [],
      "stateMutability": "nonpayable",
      "type": "function"
    },
    {
      "inputs": [
        {
          "internalType": "address",
          "name": "sender",
          "type": "address"
        },
        {
          "internalType": "address",
          "name": "user",
          "type": "address"
        },
        {
          "internalType": "uint256",
          "name": "amount",
          "type": "uint256"
        }
      ],
      "name": "joinFor",
      "outputs": [],
      "stateMutability": "nonpayable",
      "type": "function"
    },
    {
      "inputs": [
        {
          "internalType": "address",
          "name": "_feeAddress",
          "type": "address"
        }
      ],
      "name": "setFeeAddress",
      "outputs": [],
      "stateMutability": "nonpayable",
      "type": "function"
    },
    {
      "inputs": [
        {
          "internalType": "address",
          "name": "user",
          "type": "address"
        }
      ],
      "name": "getClaimedRewards",
      "outputs": [
        {
          "internalType": "uint256",
          "name": "",
          "type": "uint256"
        }
      ],
      "stateMutability": "view",
      "type": "function"
    },
    {
      "inputs": [
        {
          "internalType": "address",
          "name": "user",
          "type": "address"
        }
      ],
      "name": "rescueRewards",
      "outputs": [],
      "stateMutability": "nonpayable",
      "type": "function"
    },
    {
      "inputs": [],
      "name": "getStakingToken",
      "outputs": [
        {
          "internalType": "contract IERC20",
          "name": "",
          "type": "address"
        }
      ],
      "stateMutability": "view",
      "type": "function"
    },
    {
      "inputs": [],
      "name": "getDistributionToken",
      "outputs": [
        {
          "internalType": "contract IERC20",
          "name": "",
          "type": "address"
        }
      ],
      "stateMutability": "view",
      "type": "function"
    },
    {
      "inputs": [
        {
          "internalType": "address",
          "name": "staker",
          "type": "address"
        },
        {
          "internalType": "uint256",
          "name": "amount",
          "type": "uint256"
        }
      ],
      "name": "leave",
      "outputs": [],
      "stateMutability": "nonpayable",
      "type": "function"
    },
    {
      "inputs": [
        {
          "internalType": "address",
          "name": "staker",
          "type": "address"
        },
        {
          "internalType": "uint256",
          "name": "amount",
          "type": "uint256"
        }
      ],
      "name": "leaveQuery",
      "outputs": [
        {
          "internalType": "uint256",
          "name": "",
          "type": "uint256"
        }
      ],
      "stateMutability": "nonpayable",
      "type": "function"
    },
    {
      "inputs": [
        {
          "internalType": "address",
          "name": "addr",
          "type": "address"
        }
      ],
      "name": "totalStakedFor",
      "outputs": [
        {
          "internalType": "uint256",
          "name": "",
          "type": "uint256"
        }
      ],
      "stateMutability": "view",
      "type": "function"
    },
    {
      "inputs": [],
      "name": "totalStaked",
      "outputs": [
        {
          "internalType": "uint256",
          "name": "",
          "type": "uint256"
        }
      ],
      "stateMutability": "view",
      "type": "function"
    },
    {
      "inputs": [],
      "name": "token",
      "outputs": [
        {
          "internalType": "address",
          "name": "",
          "type": "address"
        }
      ],
      "stateMutability": "view",
      "type": "function"
    },
    {
      "inputs": [
        {
          "internalType": "address",
          "name": "user",
          "type": "address"
        }
      ],
      "name": "updateAccounting",
      "outputs": [
        {
          "internalType": "uint256",
          "name": "",
          "type": "uint256"
        },
        {
          "internalType": "uint256",
          "name": "",
          "type": "uint256"
        },
        {
          "internalType": "uint256",
          "name": "",
          "type": "uint256"
        },
        {
          "internalType": "uint256",
          "name": "",
          "type": "uint256"
        },
        {
          "internalType": "uint256",
          "name": "",
          "type": "uint256"
        },
        {
          "internalType": "uint256",
          "name": "",
          "type": "uint256"
        }
      ],
      "stateMutability": "nonpayable",
      "type": "function"
    },
    {
      "inputs": [],
      "name": "totalLocked",
      "outputs": [
        {
          "internalType": "uint256",
          "name": "",
          "type": "uint256"
        }
      ],
      "stateMutability": "view",
      "type": "function"
    },
    {
      "inputs": [],
      "name": "totalUnlocked",
      "outputs": [
        {
          "internalType": "uint256",
          "name": "",
          "type": "uint256"
        }
      ],
      "stateMutability": "view",
      "type": "function"
    },
    {
      "inputs": [],
      "name": "unlockScheduleCount",
      "outputs": [
        {
          "internalType": "uint256",
          "name": "",
          "type": "uint256"
        }
      ],
      "stateMutability": "view",
      "type": "function"
    },
    {
      "inputs": [
        {
          "internalType": "uint256",
          "name": "amount",
          "type": "uint256"
        },
        {
          "internalType": "uint256",
          "name": "durationSec",
          "type": "uint256"
        }
      ],
      "name": "lockTokens",
      "outputs": [],
      "stateMutability": "nonpayable",
      "type": "function"
    },
    {
      "inputs": [],
      "name": "unlockTokens",
      "outputs": [
        {
          "internalType": "uint256",
          "name": "",
          "type": "uint256"
        }
      ],
      "stateMutability": "nonpayable",
      "type": "function"
    },
    {
      "inputs": [
        {
          "internalType": "address",
          "name": "otherToken",
          "type": "address"
        },
        {
          "internalType": "address",
          "name": "to",
          "type": "address"
        },
        {
          "internalType": "uint256",
          "name": "amount",
          "type": "uint256"
        }
      ],
      "name": "rescueFundsFromStakingPool",
      "outputs": [
        {
          "internalType": "bool",
          "name": "",
          "type": "bool"
        }
      ],
      "stateMutability": "nonpayable",
      "type": "function"
    },
    {
      "inputs": [],
      "name": "totalRewards",
      "outputs": [
        {
          "internalType": "uint256",
          "name": "",
          "type": "uint256"
        }
      ],
      "stateMutability": "view",
      "type": "function"
    }
  ],
  "bytecode": "0x6080604052600060085560006009556003600a556000600b556000600c556000600d5542600e556000600f5560006010553480156200003d57600080fd5b50604051620034ec380380620034ec83398181016040526101408110156200006457600080fd5b508051602082015160408301516060840151608085015160a086015160c087015160e088015161010089015161012090990151979896979596949593949293919290916000620000bc6001600160e01b036200037816565b600080546001600160a01b0319166001600160a01b0383169081178255604051929350917f8be0079c531659141344cd1fd0a4f28419497f9722a3daafe3b4186f6b6457e0908290a35083600a0a8711156200014a5760405162461bcd60e51b8152600401808060200182810382526021815260200180620034806021913960400191505060405180910390fd5b85620001885760405162461bcd60e51b8152600401808060200182810382526021815260200180620034cb6021913960400191505060405180910390fd5b60008511620001c95760405162461bcd60e51b815260040180806020018281038252602a815260200180620034a1602a913960400191505060405180910390fd5b600084116200020a5760405162461bcd60e51b81526004018080602001828103825260238152602001806200345d6023913960400191505060405180910390fd5b8960405162000219906200037c565b6001600160a01b03909116815260405190819003602001906000f08015801562000247573d6000803e3d6000fd5b50600180546001600160a01b0319166001600160a01b0392909216919091179055604051899062000278906200037c565b6001600160a01b03909116815260405190819003602001906000f080158015620002a6573d6000803e3d6000fd5b50600280546001600160a01b0319166001600160a01b03929092169190911790556040518990620002d7906200037c565b6001600160a01b03909116815260405190819003602001906000f08015801562000305573d6000803e3d6000fd5b50600380546001600160a01b03199081166001600160a01b039384161790915560048054821695831695909517909455600997909755600a93909355600894909455600f9590955560109190915560058054851692841692909217909155600680549093169116179055506200038a9050565b3390565b6106f08062002d6d83390190565b6129d3806200039a6000396000f3fe608060405234801561001057600080fd5b50600436106101f05760003560e01c8063817b1cd21161010f578063c7ae2007116100a2578063f2fde38b11610071578063f2fde38b14610505578063f968f4931461052b578063fb0d7e4314610533578063fc0c546a1461053b576101f0565b8063c7ae200714610494578063d811fcf01461049c578063ec78e832146104a4578063ee72b9d0146104ac576101f0565b80639f9106d1116100de5780639f9106d114610438578063a779d08014610440578063b90817f214610448578063b9e35db01461046e576101f0565b8063817b1cd2146103df5780638705fcd4146103e757806389158d8e1461040d5780638da5cb5b14610430576101f0565b80634b341aed1161018757806360f487271161015657806360f487271461034957806369f18bfb146103755780636cb58c93146103ab578063715018a6146103d7576101f0565b80634b341aed1461028957806356891412146102af5780635a72bbef146102b75780635c94bcb214610301576101f0565b80633b63ff44116101c35780633b63ff44146102695780633e1d0ae51461027157806341275358146102795780634af4a12714610281576101f0565b80630baa56e6146101f55780630e15561a1461020f57806322c12b84146102175780633b4da69f1461023b575b600080fd5b6101fd610543565b60408051918252519081900360200190f35b6101fd610549565b61021f610647565b604080516001600160a01b039092168252519081900360200190f35b6102676004803603604081101561025157600080fd5b506001600160a01b0381351690602001356107bc565b005b6101fd610814565b6101fd61081a565b61021f610820565b6101fd61082f565b6101fd6004803603602081101561029f57600080fd5b50356001600160a01b0316610835565b6101fd610894565b6102ed600480360360608110156102cd57600080fd5b506001600160a01b038135811691602081013590911690604001356108d9565b604080519115158252519081900360200190f35b61031e6004803603602081101561031757600080fd5b50356109d1565b6040805195865260208601949094528484019290925260608401526080830152519081900360a00190f35b6101fd6004803603604081101561035f57600080fd5b506001600160a01b038135169060200135610a0f565b6102676004803603606081101561038b57600080fd5b506001600160a01b03813581169160208101359091169060400135610a6e565b610267600480360360408110156103c157600080fd5b506001600160a01b038135169060200135610b29565b610267610b7c565b6101fd610c28565b610267600480360360208110156103fd57600080fd5b50356001600160a01b0316610c6d565b6102676004803603604081101561042357600080fd5b5080359060200135610cf1565b61021f61108b565b61021f61109a565b6101fd6110df565b6102676004803603602081101561045e57600080fd5b50356001600160a01b0316611124565b6101fd6004803603602081101561048457600080fd5b50356001600160a01b0316611315565b6101fd611330565b61021f611336565b61021f611345565b6104d2600480360360208110156104c257600080fd5b50356001600160a01b0316611354565b604080519687526020870195909552858501939093526060850191909152608084015260a0830152519081900360c00190f35b6102676004803603602081101561051b57600080fd5b50356001600160a01b0316611452565b6101fd611554565b6101fd6115c4565b61021f6115ca565b600c5481565b600080600360009054906101000a90046001600160a01b03166001600160a01b031663b69ef8a86040518163ffffffff1660e01b815260040160206040518083038186803b15801561059a57600080fd5b505afa1580156105ae573d6000803e3d6000fd5b505050506040513d60208110156105c457600080fd5b5051600254604080516316d3df1560e31b815290519293506000926001600160a01b039092169163b69ef8a891600480820192602092909190829003018186803b15801561061157600080fd5b505afa158015610625573d6000803e3d6000fd5b505050506040513d602081101561063b57600080fd5b50519190910191505090565b60035460408051637e062a3560e11b815290516000926001600160a01b03169163fc0c546a916004808301926020929190829003018186803b15801561068c57600080fd5b505afa1580156106a0573d6000803e3d6000fd5b505050506040513d60208110156106b657600080fd5b505160025460408051637e062a3560e11b815290516001600160a01b03938416939092169163fc0c546a91600480820192602092909190829003018186803b15801561070157600080fd5b505afa158015610715573d6000803e3d6000fd5b505050506040513d602081101561072b57600080fd5b50516001600160a01b03161461073d57fe5b600260009054906101000a90046001600160a01b03166001600160a01b031663fc0c546a6040518163ffffffff1660e01b815260040160206040518083038186803b15801561078b57600080fd5b505afa15801561079f573d6000803e3d6000fd5b505050506040513d60208110156107b557600080fd5b5051905090565b6004546001600160a01b031633146108055760405162461bcd60e51b815260040180806020018281038252602c815260200180612972602c913960400191505060405180910390fd5b6108108283836115d9565b5050565b600b5481565b600a5481565b6006546001600160a01b031681565b60085481565b600080600c541161084757600061088c565b600c546001600160a01b03831660009081526011602052604090205461088c919061088090610874610c28565b9063ffffffff611a1216565b9063ffffffff611a6b16565b90505b919050565b600354604080516316d3df1560e31b815290516000926001600160a01b03169163b69ef8a8916004808301926020929190829003018186803b15801561078b57600080fd5b60006108e3611ad2565b6001600160a01b03166108f461108b565b6001600160a01b03161461093d576040805162461bcd60e51b815260206004820181905260248201526000805160206128ab833981519152604482015290519081900360640190fd5b6001546040805163e7d2150d60e01b81526001600160a01b0387811660048301528681166024830152604482018690529151919092169163e7d2150d9160648083019260209291908290030181600087803b15801561099b57600080fd5b505af11580156109af573d6000803e3d6000fd5b505050506040513d60208110156109c557600080fd5b505190505b9392505050565b601381815481106109de57fe5b6000918252602090912060059091020180546001820154600283015460038401546004909401549294509092909185565b6004546000906001600160a01b03163314610a5b5760405162461bcd60e51b81526004018080602001828103825260348152602001806127366034913960400191505060405180910390fd5b610a658383611ad6565b90505b92915050565b610a76611ad2565b6001600160a01b0316610a8761108b565b6001600160a01b031614610ad0576040805162461bcd60e51b815260206004820181905260248201526000805160206128ab833981519152604482015290519081900360640190fd5b6004546001600160a01b03163314610b195760405162461bcd60e51b815260040180806020018281038252602c815260200180612972602c913960400191505060405180910390fd5b610b248383836115d9565b505050565b6004546001600160a01b03163314610b725760405162461bcd60e51b81526004018080602001828103825260348152602001806127366034913960400191505060405180910390fd5b610b248282611ad6565b610b84611ad2565b6001600160a01b0316610b9561108b565b6001600160a01b031614610bde576040805162461bcd60e51b815260206004820181905260248201526000805160206128ab833981519152604482015290519081900360640190fd5b600080546040516001600160a01b03909116907f8be0079c531659141344cd1fd0a4f28419497f9722a3daafe3b4186f6b6457e0908390a3600080546001600160a01b0319169055565b600154604080516316d3df1560e31b815290516000926001600160a01b03169163b69ef8a8916004808301926020929190829003018186803b15801561078b57600080fd5b610c75611ad2565b6001600160a01b0316610c8661108b565b6001600160a01b031614610ccf576040805162461bcd60e51b815260206004820181905260248201526000805160206128ab833981519152604482015290519081900360640190fd5b600680546001600160a01b0319166001600160a01b0392909216919091179055565b610cf9611ad2565b6001600160a01b0316610d0a61108b565b6001600160a01b031614610d53576040805162461bcd60e51b815260206004820181905260248201526000805160206128ab833981519152604482015290519081900360640190fd5b600f5460135410610d955760405162461bcd60e51b815260040180806020018281038252602d815260200180612915602d913960400191505060405180910390fd5b610d9e33611354565b5050505050506000610dae610894565b90506000808211610dd257601054610dcd90859063ffffffff611a1216565b610deb565b610deb8261088086600b54611a1290919063ffffffff16565b9050610df56125ac565b8181524260408201819052610e10908563ffffffff6121f616565b60608201908152608082018581526013805460018101825560009190915283517f66de8ffda797e3de9c05e8fc57b3bf0ec28a930d40b0d285d93c06501cf6a09060059092029182015560208401517f66de8ffda797e3de9c05e8fc57b3bf0ec28a930d40b0d285d93c06501cf6a09182015560408401517f66de8ffda797e3de9c05e8fc57b3bf0ec28a930d40b0d285d93c06501cf6a09282015591517f66de8ffda797e3de9c05e8fc57b3bf0ec28a930d40b0d285d93c06501cf6a093830155517f66de8ffda797e3de9c05e8fc57b3bf0ec28a930d40b0d285d93c06501cf6a09490910155600b54610f0590836121f6565b600b5560035460408051637e062a3560e11b815290516001600160a01b039092169163fc0c546a91600480820192602092909190829003018186803b158015610f4d57600080fd5b505afa158015610f61573d6000803e3d6000fd5b505050506040513d6020811015610f7757600080fd5b5051600354604080516323b872dd60e01b81523360048201526001600160a01b03928316602482015260448101899052905191909216916323b872dd9160648083019260209291908290030181600087803b158015610fd557600080fd5b505af1158015610fe9573d6000803e3d6000fd5b505050506040513d6020811015610fff57600080fd5b505161103c5760405162461bcd60e51b815260040180806020018281038252602d8152602001806125f6602d913960400191505060405180910390fd5b7fbff8d5ced955e6f69a19ecc71d313996f6ddfed652cdb458859af89e2f0768358585611067610894565b60408051938452602084019290925282820152519081900360600190a15050505050565b6000546001600160a01b031690565b60015460408051637e062a3560e11b815290516000926001600160a01b03169163fc0c546a916004808301926020929190829003018186803b15801561078b57600080fd5b600254604080516316d3df1560e31b815290516000926001600160a01b03169163b69ef8a8916004808301926020929190829003018186803b15801561078b57600080fd5b61112c611ad2565b6001600160a01b031661113d61108b565b6001600160a01b031614611186576040805162461bcd60e51b815260206004820181905260248201526000805160206128ab833981519152604482015290519081900360640190fd5b60006111906110df565b116111cc5760405162461bcd60e51b815260040180806020018281038252602281526020018061282b6022913960400191505060405180910390fd5b600254604080516316d3df1560e31b815290516001600160a01b039092169163a9059cbb918491849163b69ef8a8916004808301926020929190829003018186803b15801561121a57600080fd5b505afa15801561122e573d6000803e3d6000fd5b505050506040513d602081101561124457600080fd5b5051604080516001600160e01b031960e086901b1681526001600160a01b03909316600484015260248301919091525160448083019260209291908290030181600087803b15801561129557600080fd5b505af11580156112a9573d6000803e3d6000fd5b505050506040513d60208110156112bf57600080fd5b5051611312576040805162461bcd60e51b815260206004820152601c60248201527f546f6b656e4765797365723a207472616e73666572206661696c656400000000604482015290519081900360640190fd5b50565b6001600160a01b031660009081526007602052604090205490565b60135490565b6004546001600160a01b031681565b6005546001600160a01b031681565b600080600080600080611365612250565b506000611383600c54610874600e54426123e490919063ffffffff16565b600d54909150611399908263ffffffff6121f616565b600d5542600e8190556001600160a01b03891660009081526011602052604081208054600282015491936113d792610874919063ffffffff6123e416565b60018301549091506113ef908263ffffffff6121f616565b6001830155426002830155600d5460009061140b576000611421565b611421600d5461088085600101546108746110df565b905061142b610894565b6114336110df565b600190940154600d54919d949c509a5098509650429550909350505050565b61145a611ad2565b6001600160a01b031661146b61108b565b6001600160a01b0316146114b4576040805162461bcd60e51b815260206004820181905260248201526000805160206128ab833981519152604482015290519081900360640190fd5b6001600160a01b0381166114f95760405162461bcd60e51b81526004018080602001828103825260268152602001806126536026913960400191505060405180910390fd5b600080546040516001600160a01b03808516939216917f8be0079c531659141344cd1fd0a4f28419497f9722a3daafe3b4186f6b6457e091a3600080546001600160a01b0319166001600160a01b0392909216919091179055565b600061155e611ad2565b6001600160a01b031661156f61108b565b6001600160a01b0316146115b8576040805162461bcd60e51b815260206004820181905260248201526000805160206128ab833981519152604482015290519081900360640190fd5b6115c0612250565b5090565b60095481565b60006115d461109a565b905090565b600081116116185760405162461bcd60e51b815260040180806020018281038252602181526020018061280a6021913960400191505060405180910390fd5b6001600160a01b03821661165d5760405162461bcd60e51b81526004018080602001828103825260288152602001806126df6028913960400191505060405180910390fd5b600c54158061167357506000611671610c28565b115b6116ae5760405162461bcd60e51b815260040180806020018281038252604a8152602001806128cb604a913960600191505060405180910390fd5b600080600c54116116d2576010546116cd90839063ffffffff611a1216565b6116f0565b6116f06116dd610c28565b600c54610880908563ffffffff611a1216565b9050600081116117315760405162461bcd60e51b815260040180806020018281038252602681526020018061276a6026913960400191505060405180910390fd5b61173a83611354565b505050506001600160a01b038516600090815260116020526040902080549092506117669150836121f6565b81554260028201556117766125db565b506040805180820182528381524260208083019182526001600160a01b0388166000908152601282529384208054600181810183559186529190942083516002909202019081559051920191909155600c546117d8908463ffffffff6121f616565b600c5560015460408051637e062a3560e11b815290516001600160a01b039092169163fc0c546a91600480820192602092909190829003018186803b15801561182057600080fd5b505afa158015611834573d6000803e3d6000fd5b505050506040513d602081101561184a57600080fd5b5051600154604080516323b872dd60e01b81526001600160a01b038a81166004830152928316602482015260448101889052905191909216916323b872dd9160648083019260209291908290030181600087803b1580156118aa57600080fd5b505af11580156118be573d6000803e3d6000fd5b505050506040513d60208110156118d457600080fd5b50516119115760405162461bcd60e51b815260040180806020018281038252602e8152602001806127dc602e913960400191505060405180910390fd5b600554604080516340c10f1960e01b81526001600160a01b03898116600483015260248201889052915191909216916340c10f1991604480830192600092919082900301818387803b15801561196657600080fd5b505af115801561197a573d6000803e3d6000fd5b50506040805187815290516001600160a01b038a1693507f7426b47c070daa8b9ccf879cb8120114c763442de428045459543fcaeb45db6f92509081900360200190a2846001600160a01b03167f16a5410c80ce4d4082839ea17ff9fae01b3924da3e586c0e4ba3cdb1c9f7dae2856119f288610835565b6040805192835260208301919091528051918290030190a2505050505050565b600082611a2157506000610a68565b82820282848281611a2e57fe5b0414610a655760405162461bcd60e51b815260040180806020018281038252602181526020018061288a6021913960400191505060405180910390fd5b6000808211611ac1576040805162461bcd60e51b815260206004820152601a60248201527f536166654d6174683a206469766973696f6e206279207a65726f000000000000604482015290519081900360640190fd5b818381611aca57fe5b049392505050565b3390565b6000611ae183611354565b5050505050506000611b07611af4610c28565b600c54610880908663ffffffff611a1216565b905060008111611b485760405162461bcd60e51b81526004018080602001828103825260308152602001806126236030913960400191505060405180910390fd5b6001600160a01b038416600090815260116020908152604080832060129092528220909183815b8115611c8a57835460009085906000198101908110611b8a57fe5b906000526020600020906002020190506000611bb38260010154426123e490919063ffffffff16565b82549091506000908510611c37578254611bd3908363ffffffff611a1216565b9050611be0848284612441565b9350611bf2868263ffffffff6121f616565b8354909650611c0890869063ffffffff6123e416565b945086805480611c1457fe5b600082815260208120600260001990930192830201818155600101559055611c82565b611c47858363ffffffff611a1216565b9050611c54848284612441565b9350611c66868263ffffffff6121f616565b8354909650611c7b908663ffffffff6123e416565b8355600094505b505050611b6f565b6001850154611c9f908463ffffffff6123e416565b60018601558454611cb6908763ffffffff6123e416565b8555600d54611ccb908463ffffffff6123e416565b600d55600c54611ce1908763ffffffff6123e416565b600c556001546040805163a9059cbb60e01b81526001600160a01b038c81166004830152602482018c90529151919092169163a9059cbb9160448083019260209291908290030181600087803b158015611d3a57600080fd5b505af1158015611d4e573d6000803e3d6000fd5b505050506040513d6020811015611d6457600080fd5b5051611da15760405162461bcd60e51b81526004018080602001828103825260308152602001806129426030913960400191505060405180910390fd5b80611daa6110df565b10611fe1576000611dba826124db565b6002546040805163a9059cbb60e01b81526001600160a01b038e811660048301528487036024830181905292519495509193919092169163a9059cbb9160448083019260209291908290030181600087803b158015611e1857600080fd5b505af1158015611e2c573d6000803e3d6000fd5b505050506040513d6020811015611e4257600080fd5b5051611e7f5760405162461bcd60e51b81526004018080602001828103825260318152602001806126ae6031913960400191505060405180910390fd5b6002546006546040805163a9059cbb60e01b81526001600160a01b039283166004820152602481018690529051919092169163a9059cbb9160448083019260209291908290030181600087803b158015611ed857600080fd5b505af1158015611eec573d6000803e3d6000fd5b505050506040513d6020811015611f0257600080fd5b5051611f3f5760405162461bcd60e51b81526004018080602001828103825260358152602001806126796035913960400191505060405180910390fd5b6006546040805184815290516001600160a01b03909216917f06c5efeff5c320943d265dc4e5f1af95ad523555ce0c1957e367dda5514572df9181900360200190a26040805182815290516001600160a01b038d16917ffc30cddea38e2bf4d6ea7d3f9ed3b6ad7f176419f4963bd81318067a4aee73fe919081900360200190a26001600160a01b038b16600090815260076020526040902080549091019055505b600554604080516370a0823160e01b81526001600160a01b038c81166004830152915160009392909216916370a0823191602480820192602092909190829003018186803b15801561203257600080fd5b505afa158015612046573d6000803e3d6000fd5b505050506040513d602081101561205c57600080fd5b505190508881101561209f5760405162461bcd60e51b815260040180806020018281038252603d81526020018061284d603d913960400191505060405180910390fd5b60055460408051632770a7eb60e21b81526001600160a01b038d81166004830152602482018d905291519190921691639dc29fac91604480830192600092919082900301818387803b1580156120f457600080fd5b505af1158015612108573d6000803e3d6000fd5b5050604080518c815290516001600160a01b038e1693507feddf1a03703df6e2747cc7ba07b9a9f872c580156f7ea678dcc5952fdd00e6f192509081900360200190a2896001600160a01b03167f563475272d35e53c9fa5f84075356ba4f6d3add3ef25d748ad19629487b634428a6121808d610835565b6040805192835260208301919091528051918290030190a2600c5415806121ae575060006121ac610c28565b115b6121e95760405162461bcd60e51b815260040180806020018281038252604c815260200180612790604c913960600191505060405180910390fd5b5098975050505050505050565b600082820183811015610a65576040805162461bcd60e51b815260206004820152601b60248201527f536166654d6174683a206164646974696f6e206f766572666c6f770000000000604482015290519081900360640190fd5b6000808061225c610894565b9050600b5460001415612271578091506122d5565b6000805b6013548110156122a25761229861228b826124e9565b839063ffffffff6121f616565b9150600101612275565b50600b546122ba90610880838563ffffffff611a1216565b600b549093506122d0908263ffffffff6123e416565b600b55505b81156123de576003546002546040805163a9059cbb60e01b81526001600160a01b039283166004820152602481018690529051919092169163a9059cbb9160448083019260209291908290030181600087803b15801561233457600080fd5b505af1158015612348573d6000803e3d6000fd5b505050506040513d602081101561235e57600080fd5b505161239b5760405162461bcd60e51b815260040180806020018281038252602f815260200180612707602f913960400191505060405180910390fd5b7fd5a3bc267595689ee55d94f36e4e106c210437760899fd7d254b6b84b48b8961826123c5610894565b6040805192835260208301919091528051918290030190a15b50905090565b60008282111561243b576040805162461bcd60e51b815260206004820152601e60248201527f536166654d6174683a207375627472616374696f6e206f766572666c6f770000604482015290519081900360640190fd5b50900390565b600080612456600d54610880866108746110df565b9050600854831061247957612471858263ffffffff6121f616565b9150506109ca565b6000600a54600a0a905060006124be82610880856108746124af6008546108808c6108746009548c6123e490919063ffffffff16565b6009549063ffffffff6121f616565b90506124d0878263ffffffff6121f616565b979650505050505050565b6127106101f4919091020490565b600080601383815481106124f957fe5b90600052602060002090600502019050806000015481600101541061252257600091505061088f565b6003810154600090421061255757600182015482546125469163ffffffff6123e416565b600383015460028401559050612587565b61257e826004015461088084600001546108748660020154426123e490919063ffffffff16565b42600284015590505b600182015461259c908263ffffffff6121f616565b6001909201919091559050919050565b6040518060a0016040528060008152602001600081526020016000815260200160008152602001600081525090565b60405180604001604052806000815260200160008152509056fe546f6b656e4765797365723a207472616e7366657220696e746f206c6f636b656420706f6f6c206661696c6564546f6b656e4765797365723a20556e61626c6520746f20756e7374616b6520616d6f756e74207468697320736d616c6c4f776e61626c653a206e6577206f776e657220697320746865207a65726f2061646472657373546f6b656e4765797365723a207472616e7366657220666565206f7574206f6620756e6c6f636b656420706f6f6c206661696c6564546f6b656e4765797365723a207472616e73666572206f7574206f6620756e6c6f636b656420706f6f6c206661696c6564546f6b656e4765797365723a2062656e6566696369617279206973207a65726f2061646472657373546f6b656e4765797365723a207472616e73666572206f7574206f66206c6f636b656420706f6f6c206661696c656454686973206d6574686f642063616e2062652063616c6c65642062792074686520676579736572206d616e61676572206f6e6c79546f6b656e4765797365723a205374616b6520616d6f756e7420697320746f6f20736d616c6c546f6b656e4765797365723a204572726f7220756e7374616b696e672e205374616b696e67207368617265732065786973742c20627574206e6f207374616b696e6720746f6b656e7320646f546f6b656e4765797365723a207472616e7366657220696e746f207374616b696e6720706f6f6c206661696c6564546f6b656e4765797365723a207374616b6520616d6f756e74206973207a65726f546f6b656e4765797365723a20726577617264207661756c7420697320656d707479546f6b656e4765797365723a20596f752068617665206c657373207265636569707420746f6b656e73207468616e206974206973207265717569726564536166654d6174683a206d756c7469706c69636174696f6e206f766572666c6f774f776e61626c653a2063616c6c6572206973206e6f7420746865206f776e6572546f6b656e4765797365723a20496e76616c69642073746174652e205374616b696e67207368617265732065786973742c20627574206e6f207374616b696e6720746f6b656e7320646f546f6b656e4765797365723a2072656163686564206d6178696d756d20756e6c6f636b207363686564756c6573546f6b656e4765797365723a207472616e73666572206f7574206f66207374616b696e6720706f6f6c206661696c656454686973206d6574686f642063616e2062652063616c6c656420627920746865206661726d6572206f6e6c79a2646970667358221220730214d6bdd11855e77f8b1f4248f3884b7dea1b93f3c5206d038371e389cc9864736f6c63430006060033608060405234801561001057600080fd5b506040516106f03803806106f08339818101604052602081101561003357600080fd5b505160006100486001600160e01b036100b716565b600080546001600160a01b0319166001600160a01b0383169081178255604051929350917f8be0079c531659141344cd1fd0a4f28419497f9722a3daafe3b4186f6b6457e0908290a350600180546001600160a01b0319166001600160a01b03929092169190911790556100bb565b3390565b610626806100ca6000396000f3fe608060405234801561001057600080fd5b50600436106100885760003560e01c8063b69ef8a81161005b578063b69ef8a8146100fb578063e7d2150d14610115578063f2fde38b1461014b578063fc0c546a1461017157610088565b8063715018a61461008d5780637a4e4ecf146100975780638da5cb5b146100d7578063a9059cbb14610097575b600080fd5b610095610179565b005b6100c3600480360360408110156100ad57600080fd5b506001600160a01b038135169060200135610225565b604080519115158252519081900360200190f35b6100df610312565b604080516001600160a01b039092168252519081900360200190f35b610103610321565b60408051918252519081900360200190f35b6100c36004803603606081101561012b57600080fd5b506001600160a01b0381358116916020810135909116906040013561039d565b6100956004803603602081101561016157600080fd5b50356001600160a01b0316610495565b6100df610597565b6101816105a6565b6001600160a01b0316610192610312565b6001600160a01b0316146101db576040805162461bcd60e51b815260206004820181905260248201526000805160206105d1833981519152604482015290519081900360640190fd5b600080546040516001600160a01b03909116907f8be0079c531659141344cd1fd0a4f28419497f9722a3daafe3b4186f6b6457e0908390a3600080546001600160a01b0319169055565b600061022f6105a6565b6001600160a01b0316610240610312565b6001600160a01b031614610289576040805162461bcd60e51b815260206004820181905260248201526000805160206105d1833981519152604482015290519081900360640190fd5b6001546040805163a9059cbb60e01b81526001600160a01b038681166004830152602482018690529151919092169163a9059cbb9160448083019260209291908290030181600087803b1580156102df57600080fd5b505af11580156102f3573d6000803e3d6000fd5b505050506040513d602081101561030957600080fd5b50519392505050565b6000546001600160a01b031690565b600154604080516370a0823160e01b815230600482015290516000926001600160a01b0316916370a08231916024808301926020929190829003018186803b15801561036c57600080fd5b505afa158015610380573d6000803e3d6000fd5b505050506040513d602081101561039657600080fd5b5051905090565b60006103a76105a6565b6001600160a01b03166103b8610312565b6001600160a01b031614610401576040805162461bcd60e51b815260206004820181905260248201526000805160206105d1833981519152604482015290519081900360640190fd5b836001600160a01b031663a9059cbb84846040518363ffffffff1660e01b815260040180836001600160a01b03166001600160a01b0316815260200182815260200192505050602060405180830381600087803b15801561046157600080fd5b505af1158015610475573d6000803e3d6000fd5b505050506040513d602081101561048b57600080fd5b5051949350505050565b61049d6105a6565b6001600160a01b03166104ae610312565b6001600160a01b0316146104f7576040805162461bcd60e51b815260206004820181905260248201526000805160206105d1833981519152604482015290519081900360640190fd5b6001600160a01b03811661053c5760405162461bcd60e51b81526004018080602001828103825260268152602001806105ab6026913960400191505060405180910390fd5b600080546040516001600160a01b03808516939216917f8be0079c531659141344cd1fd0a4f28419497f9722a3daafe3b4186f6b6457e091a3600080546001600160a01b0319166001600160a01b0392909216919091179055565b6001546001600160a01b031681565b339056fe4f776e61626c653a206e6577206f776e657220697320746865207a65726f20616464726573734f776e61626c653a2063616c6c6572206973206e6f7420746865206f776e6572a26469706673582212203d5dbf80e4dfe602ea36c9f0a19723349850854e8cab3759c59c1f844614755564736f6c63430006060033546f6b656e4765797365723a20626f6e7573446563696d616c735f206973207a65726f546f6b656e4765797365723a20737461727420626f6e757320746f6f2068696768546f6b656e4765797365723a20696e697469616c536861726573506572546f6b656e206973207a65726f546f6b656e4765797365723a20626f6e757320706572696f64206973207a65726f",
  "immutableReferences": {},
  "source": "// SPDX-License-Identifier: MIT\r\npragma solidity ^0.6.0;\r\n\r\nimport \"@openzeppelin/contracts/math/SafeMath.sol\";\r\nimport \"@openzeppelin/contracts/access/Ownable.sol\";\r\nimport \"@openzeppelin/contracts/token/ERC20/ERC20.sol\";\r\n\r\nimport \"./interfaces/ILock.sol\";\r\nimport \"./Vault.sol\";\r\nimport \"./ReceiptToken.sol\";\r\n\r\n//cread based on AMPL Token Geyser\r\ncontract Farm is ILock, Ownable {\r\n    using SafeMath for uint256;\r\n    event ReceiptMinted(address indexed user, uint256 amount);\r\n    event ReceiptBurned(address indexed user, uint256 amount);\r\n    event FeeCollected(address indexed feeAddress, uint256 amount);\r\n    event RewardsClaimed(address indexed user, uint256 amount);\r\n    event RewardsAdded(uint256 amount, uint256 durationSec, uint256 total);\r\n    event RewardsMovedToClaimable(uint256 amount, uint256 total);\r\n\r\n    Vault private _farmingVault;\r\n    Vault private _claimableVault;\r\n    Vault private _frozenVault;\r\n\r\n    struct Stake {\r\n        uint256 stakingShares;\r\n        uint256 timestampSec;\r\n    }\r\n\r\n    struct UserTotals {\r\n        uint256 stakingShares;\r\n        uint256 stakingShareSeconds;\r\n        uint256 lastAccountingTimestampSec;\r\n    }\r\n\r\n    address public farmer;\r\n    address public receiptToken;\r\n    address public feeAddress;\r\n\r\n    mapping(address => uint256) userClaimedRewards;\r\n\r\n    uint256 public bonusPeriod = 0; //in seconds\r\n    uint256 public initialBonus = 0;\r\n    uint256 public bonusDecimals = 3; // to have values like 678 out of 1000 which is 67.8%\r\n\r\n    uint256 public totalFrozenShares = 0;\r\n    uint256 public totalUsersShares = 0;\r\n\r\n    uint256 private _totalUsersSharesSeconds = 0;\r\n    uint256 private _lastAccountingTimestampSec = now;\r\n    uint256 private _maxUnlocks = 0;\r\n    uint256 private _initialSharesPerToken = 0;\r\n\r\n    mapping(address => UserTotals) private _userTotals;\r\n    mapping(address => Stake[]) private _userStakes;\r\n\r\n    struct UnlockSchedule {\r\n        uint256 initialLockedShares;\r\n        uint256 unlockedShares;\r\n        uint256 lastUnlockTimestampSec;\r\n        uint256 endAtSec;\r\n        uint256 durationSec;\r\n    }\r\n\r\n    UnlockSchedule[] public unlockSchedules;\r\n\r\n    /**\r\n     * @param stakingToken staking asset.\r\n     * @param distributionToken reward token.\r\n     * @param maxUnlocks Max number of unlock stages, to guard against hitting gas limit.\r\n     * @param initialBonus_ Starting time bonus\r\n     *                    e.g. 25% means user gets 25% of max distribution tokens.\r\n     * @param bonusPeriod_ Length of time for bonus to increase linearly to max.\r\n     * @param initialSharesPerToken Number of shares to mint per staking token on first stake.\r\n     * @param bonusDecimals_ bonus decimals\r\n     */\r\n    constructor(\r\n        IERC20 stakingToken,\r\n        IERC20 distributionToken,\r\n        uint256 maxUnlocks,\r\n        uint256 initialBonus_,\r\n        uint256 bonusPeriod_,\r\n        uint256 initialSharesPerToken,\r\n        uint256 bonusDecimals_,\r\n        address _farmer,\r\n        address receiptTokenAddres,\r\n        address _feeAddress\r\n    ) public {\r\n        // The start bonus must be some fraction of the max. (i.e. <= 100%)\r\n        require(\r\n            initialBonus_ <= 10**bonusDecimals_,\r\n            \"TokenGeyser: start bonus too high\"\r\n        );\r\n        // If no period is desired, instead set initialBonus = 100%\r\n        // and bonusPeriod to a small value like 1sec.\r\n        require(bonusPeriod_ != 0, \"TokenGeyser: bonus period is zero\");\r\n        require(\r\n            initialSharesPerToken > 0,\r\n            \"TokenGeyser: initialSharesPerToken is zero\"\r\n        );\r\n\r\n        require(bonusDecimals_ > 0, \"TokenGeyser: bonusDecimals_ is zero\");\r\n\r\n        _farmingVault = new Vault(stakingToken);\r\n        _claimableVault = new Vault(distributionToken);\r\n        _frozenVault = new Vault(distributionToken);\r\n\r\n        farmer = _farmer;\r\n        initialBonus = initialBonus_;\r\n        bonusDecimals = bonusDecimals_;\r\n        bonusPeriod = bonusPeriod_;\r\n        _maxUnlocks = maxUnlocks;\r\n        _initialSharesPerToken = initialSharesPerToken;\r\n        receiptToken = receiptTokenAddres;\r\n        feeAddress = _feeAddress;\r\n    }\r\n\r\n    /**\r\n     * @dev Transfers amount of deposit tokens from the user.\r\n     * @param amount Number of deposit tokens to stake.\r\n     */\r\n    function join(address user, uint256 amount) external override {\r\n        require(\r\n            farmer == msg.sender,\r\n            \"This method can be called by the farmer only\"\r\n        );\r\n        _join(user, user, amount);\r\n    }\r\n\r\n    /**\r\n     * @dev Transfers amount of deposit tokens from the caller on behalf of user.\r\n     * @param user User address who gains credit for this stake operation.\r\n     * @param amount Number of deposit tokens to stake.\r\n     */\r\n    function joinFor(\r\n        address sender,\r\n        address user,\r\n        uint256 amount\r\n    ) external override onlyOwner {\r\n        require(\r\n            farmer == msg.sender,\r\n            \"This method can be called by the farmer only\"\r\n        );\r\n        _join(sender, user, amount);\r\n    }\r\n\r\n    /**\r\n     * @dev Private implementation of staking methods.\r\n     * @param staker User address who deposits tokens to stake.\r\n     * @param beneficiary User address who gains credit for this stake operation.\r\n     * @param amount Number of deposit tokens to stake.\r\n     */\r\n    function _join(\r\n        address staker,\r\n        address beneficiary,\r\n        uint256 amount\r\n    ) private {\r\n        require(amount > 0, \"TokenGeyser: stake amount is zero\");\r\n        require(\r\n            beneficiary != address(0),\r\n            \"TokenGeyser: beneficiary is zero address\"\r\n        );\r\n        require(\r\n            totalUsersShares == 0 || totalStaked() > 0,\r\n            \"TokenGeyser: Invalid state. Staking shares exist, but no staking tokens do\"\r\n        );\r\n\r\n        uint256 mintedStakingShares =\r\n            (totalUsersShares > 0)\r\n                ? totalUsersShares.mul(amount).div(totalStaked())\r\n                : amount.mul(_initialSharesPerToken);\r\n\r\n        require(\r\n            mintedStakingShares > 0,\r\n            \"TokenGeyser: Stake amount is too small\"\r\n        );\r\n\r\n        updateAccounting(beneficiary);\r\n\r\n        // 1. User Accounting\r\n        UserTotals storage totals = _userTotals[beneficiary];\r\n        totals.stakingShares = totals.stakingShares.add(mintedStakingShares);\r\n        totals.lastAccountingTimestampSec = now;\r\n\r\n        Stake memory newStake = Stake(mintedStakingShares, now);\r\n        _userStakes[beneficiary].push(newStake);\r\n\r\n        // 2. Global Accounting\r\n        totalUsersShares = totalUsersShares.add(mintedStakingShares);\r\n        // Already set in updateAccounting()\r\n        // _lastAccountingTimestampSec = now;\r\n\r\n        // interactions\r\n        require(\r\n            _farmingVault.token().transferFrom(\r\n                staker,\r\n                address(_farmingVault),\r\n                amount\r\n            ),\r\n            \"TokenGeyser: transfer into staking pool failed\"\r\n        );\r\n\r\n        //receiptToken\r\n        ReceiptToken(receiptToken).mint(staker, amount);\r\n\r\n        emit ReceiptMinted(staker, amount);\r\n        emit Joined(beneficiary, amount, totalStakedFor(beneficiary));\r\n    }\r\n\r\n    function setFeeAddress(address _feeAddress) public onlyOwner {\r\n        feeAddress = _feeAddress;\r\n    }\r\n\r\n    /**\r\n     * @return Total earnings for a user\r\n     */\r\n    function getClaimedRewards(address user) public view returns (uint256) {\r\n        return userClaimedRewards[user];\r\n    }\r\n\r\n    /**\r\n     * @dev Rescue rewards\r\n     */\r\n    function rescueRewards(address user) external onlyOwner {\r\n        require(totalUnlocked() > 0, \"TokenGeyser: reward vault is empty\");\r\n        require(\r\n            _claimableVault.transfer(user, _claimableVault.balance()),\r\n            \"TokenGeyser: transfer failed\"\r\n        );\r\n    }\r\n\r\n    /**\r\n     * @return The token users deposit as stake.\r\n     */\r\n    function getStakingToken() public view returns (IERC20) {\r\n        return _farmingVault.token();\r\n    }\r\n\r\n    /**\r\n     * @return The token users receive as they unstake.\r\n     */\r\n    function getDistributionToken() public view returns (IERC20) {\r\n        assert(_claimableVault.token() == _frozenVault.token());\r\n        return _claimableVault.token();\r\n    }\r\n\r\n    /**\r\n     * @dev Unstakes a certain amount of previously deposited tokens. User also receives their\r\n     * alotted number of distribution tokens.\r\n     * @param amount Number of deposit tokens to unstake / withdraw.\r\n     */\r\n    function leave(address staker, uint256 amount) external override {\r\n        require(\r\n            farmer == msg.sender,\r\n            \"This method can be called by the geyser manager only\"\r\n        );\r\n        _leave(staker, amount);\r\n    }\r\n\r\n    /**\r\n     * @param amount Number of deposit tokens to unstake / withdraw.\r\n     * @return The total number of distribution tokens that would be rewarded.\r\n     */\r\n    function leaveQuery(address staker, uint256 amount)\r\n        public\r\n        returns (uint256)\r\n    {\r\n        require(\r\n            farmer == msg.sender,\r\n            \"This method can be called by the geyser manager only\"\r\n        );\r\n        return _leave(staker, amount);\r\n    }\r\n\r\n    function calculateFee(uint256 amount) private pure returns (uint256) {\r\n        return (amount * 500) / 10000;\r\n    }\r\n\r\n    /**\r\n     * @dev Unstakes a certain amount of previously deposited tokens. User also receives their\r\n     * alotted number of distribution tokens.\r\n     * @param amount Number of deposit tokens to unstake / withdraw.\r\n     * @return The total number of distribution tokens rewarded.\r\n     */\r\n\r\n    function _leave(address user, uint256 amount) private returns (uint256) {\r\n        updateAccounting(user);\r\n\r\n        uint256 stakingSharesToBurn =\r\n            totalUsersShares.mul(amount).div(totalStaked());\r\n\r\n        require(\r\n            stakingSharesToBurn > 0,\r\n            \"TokenGeyser: Unable to unstake amount this small\"\r\n        );\r\n\r\n        // 1. User Accounting\r\n        UserTotals storage totals = _userTotals[user];\r\n        Stake[] storage accountStakes = _userStakes[user];\r\n\r\n        // Redeem from most recent stake and go backwards in time.\r\n        uint256 stakingShareSecondsToBurn = 0;\r\n        uint256 sharesLeftToBurn = stakingSharesToBurn;\r\n        uint256 rewardAmount = 0;\r\n        while (sharesLeftToBurn > 0) {\r\n            Stake storage lastStake = accountStakes[accountStakes.length - 1];\r\n            uint256 stakeTimeSec = now.sub(lastStake.timestampSec);\r\n            uint256 newStakingShareSecondsToBurn = 0;\r\n\r\n            if (lastStake.stakingShares <= sharesLeftToBurn) {\r\n                newStakingShareSecondsToBurn = lastStake.stakingShares.mul(\r\n                    stakeTimeSec\r\n                );\r\n                rewardAmount = computeNewReward(\r\n                    rewardAmount,\r\n                    newStakingShareSecondsToBurn,\r\n                    stakeTimeSec\r\n                );\r\n\r\n                stakingShareSecondsToBurn = stakingShareSecondsToBurn.add(\r\n                    newStakingShareSecondsToBurn\r\n                );\r\n                sharesLeftToBurn = sharesLeftToBurn.sub(\r\n                    lastStake.stakingShares\r\n                );\r\n                accountStakes.pop();\r\n            } else {\r\n                newStakingShareSecondsToBurn = sharesLeftToBurn.mul(\r\n                    stakeTimeSec\r\n                );\r\n                rewardAmount = computeNewReward(\r\n                    rewardAmount,\r\n                    newStakingShareSecondsToBurn,\r\n                    stakeTimeSec\r\n                );\r\n                stakingShareSecondsToBurn = stakingShareSecondsToBurn.add(\r\n                    newStakingShareSecondsToBurn\r\n                );\r\n                lastStake.stakingShares = lastStake.stakingShares.sub(\r\n                    sharesLeftToBurn\r\n                );\r\n                sharesLeftToBurn = 0;\r\n            }\r\n        }\r\n        totals.stakingShareSeconds = totals.stakingShareSeconds.sub(\r\n            stakingShareSecondsToBurn\r\n        );\r\n        totals.stakingShares = totals.stakingShares.sub(stakingSharesToBurn);\r\n        // Already set in updateAccounting\r\n        // totals.lastAccountingTimestampSec = now;\r\n\r\n        // 2. Global Accounting\r\n        _totalUsersSharesSeconds = _totalUsersSharesSeconds.sub(\r\n            stakingShareSecondsToBurn\r\n        );\r\n        totalUsersShares = totalUsersShares.sub(stakingSharesToBurn);\r\n        // Already set in updateAccountingF\r\n        // _lastAccountingTimestampSec = now;\r\n\r\n        // interactions\r\n        require(\r\n            _farmingVault.transfer(user, amount),\r\n            \"TokenGeyser: transfer out of staking pool failed\"\r\n        );\r\n\r\n        //in case rescueRewards was called, there are no rewards to be transfered\r\n        if (totalUnlocked() >= rewardAmount) {\r\n            uint256 feeAmount = calculateFee(rewardAmount);\r\n            uint256 finalRewardAmount = rewardAmount - feeAmount;\r\n            require(\r\n                _claimableVault.transfer(user, finalRewardAmount),\r\n                \"TokenGeyser: transfer out of unlocked pool failed\"\r\n            );\r\n            require(\r\n                _claimableVault.transfer(feeAddress, feeAmount),\r\n                \"TokenGeyser: transfer fee out of unlocked pool failed\"\r\n            );\r\n            emit FeeCollected(feeAddress, feeAmount);\r\n            emit RewardsClaimed(user, finalRewardAmount);\r\n\r\n            userClaimedRewards[user] += finalRewardAmount;\r\n        }\r\n        uint256 receiptBalance = ReceiptToken(receiptToken).balanceOf(user);\r\n        require(\r\n            receiptBalance >= amount,\r\n            \"TokenGeyser: You have less receipt tokens than it is required\"\r\n        );\r\n        ReceiptToken(receiptToken).burn(user, amount);\r\n\r\n        emit ReceiptBurned(user, amount);\r\n        emit Left(user, amount, totalStakedFor(user));\r\n\r\n        require(\r\n            totalUsersShares == 0 || totalStaked() > 0,\r\n            \"TokenGeyser: Error unstaking. Staking shares exist, but no staking tokens do\"\r\n        );\r\n\r\n        return rewardAmount;\r\n    }\r\n\r\n    /**\r\n     * @dev Applies an additional time-bonus to a distribution amount. This is necessary to\r\n     *      encourage long-term deposits instead of constant unstake/restakes.\r\n     *      The bonus-multiplier is the result of a linear function that starts at initialBonus and\r\n     *      ends at 100% over bonusPeriod, then stays at 100% thereafter.\r\n     * @param currentRewardTokens The current number of distribution tokens already alotted for this\r\n     *                            unstake op. Any bonuses are already applied.\r\n     * @param stakingShareSeconds The stakingShare-seconds that are being burned for new\r\n     *                            distribution tokens.\r\n     * @param stakeTimeSec Length of time for which the tokens were staked. Needed to calculate\r\n     *                     the time-bonus.\r\n     * @return Updated amount of distribution tokens to award, with any bonus included on the\r\n     *         newly added tokens.\r\n     */\r\n    function computeNewReward(\r\n        uint256 currentRewardTokens,\r\n        uint256 stakingShareSeconds,\r\n        uint256 stakeTimeSec\r\n    ) private view returns (uint256) {\r\n        uint256 newRewardTokens =\r\n            totalUnlocked().mul(stakingShareSeconds).div(\r\n                _totalUsersSharesSeconds\r\n            );\r\n\r\n        if (stakeTimeSec >= bonusPeriod) {\r\n            return currentRewardTokens.add(newRewardTokens);\r\n        }\r\n\r\n        uint256 oneHundredPct = 10**bonusDecimals;\r\n        uint256 bonusedReward =\r\n            initialBonus\r\n                .add(\r\n                oneHundredPct.sub(initialBonus).mul(stakeTimeSec).div(\r\n                    bonusPeriod\r\n                )\r\n            )\r\n                .mul(newRewardTokens)\r\n                .div(oneHundredPct);\r\n\r\n        return currentRewardTokens.add(bonusedReward);\r\n    }\r\n\r\n    /**\r\n     * @param addr The user to look up staking information for.\r\n     * @return The number of staking tokens deposited for addr.\r\n     */\r\n    function totalStakedFor(address addr)\r\n        public\r\n        view\r\n        override\r\n        returns (uint256)\r\n    {\r\n        return\r\n            totalUsersShares > 0\r\n                ? totalStaked().mul(_userTotals[addr].stakingShares).div(\r\n                    totalUsersShares\r\n                )\r\n                : 0;\r\n    }\r\n\r\n    /**\r\n     * @return The total number of deposit tokens staked globally, by all users.\r\n     */\r\n    function totalStaked() public view override returns (uint256) {\r\n        return _farmingVault.balance();\r\n    }\r\n\r\n    /**\r\n     * @dev Note that this application has a staking token as well as a distribution token, which\r\n     * may be different. This function is required by EIP-900.\r\n     * @return The deposit token used for staking.\r\n     */\r\n    function token() external view override returns (address) {\r\n        return address(getStakingToken());\r\n    }\r\n\r\n    /**\r\n     * @dev A globally callable function to update the accounting state of the system.\r\n     *      Global state and state for the caller are updated.\r\n     * @return [0] balance of the locked pool\r\n     * @return [1] balance of the unlocked pool\r\n     * @return [2] caller's staking share seconds\r\n     * @return [3] global staking share seconds\r\n     * @return [4] Rewards caller has accumulated, optimistically assumes max time-bonus.\r\n     * @return [5] block timestamp\r\n     */\r\n    function updateAccounting(address user)\r\n        public\r\n        returns (\r\n            uint256,\r\n            uint256,\r\n            uint256,\r\n            uint256,\r\n            uint256,\r\n            uint256\r\n        )\r\n    {\r\n        _unlockTokens();\r\n\r\n        // Global accounting\r\n        uint256 newStakingShareSeconds =\r\n            now.sub(_lastAccountingTimestampSec).mul(totalUsersShares);\r\n        _totalUsersSharesSeconds = _totalUsersSharesSeconds.add(\r\n            newStakingShareSeconds\r\n        );\r\n        _lastAccountingTimestampSec = now;\r\n\r\n        // User Accounting\r\n        UserTotals storage totals = _userTotals[user];\r\n        uint256 newUserStakingShareSeconds =\r\n            now.sub(totals.lastAccountingTimestampSec).mul(\r\n                totals.stakingShares\r\n            );\r\n        totals.stakingShareSeconds = totals.stakingShareSeconds.add(\r\n            newUserStakingShareSeconds\r\n        );\r\n        totals.lastAccountingTimestampSec = now;\r\n\r\n        uint256 totalUserRewards =\r\n            (_totalUsersSharesSeconds > 0)\r\n                ? totalUnlocked().mul(totals.stakingShareSeconds).div(\r\n                    _totalUsersSharesSeconds\r\n                )\r\n                : 0;\r\n\r\n        return (\r\n            totalLocked(),\r\n            totalUnlocked(),\r\n            totals.stakingShareSeconds,\r\n            _totalUsersSharesSeconds,\r\n            totalUserRewards,\r\n            now\r\n        );\r\n    }\r\n\r\n    /**\r\n     * @return Total number of locked distribution tokens.\r\n     */\r\n    function totalLocked() public view returns (uint256) {\r\n        return _frozenVault.balance();\r\n    }\r\n\r\n    /**\r\n     * @return Total number of unlocked distribution tokens.\r\n     */\r\n    function totalUnlocked() public view returns (uint256) {\r\n        return _claimableVault.balance();\r\n    }\r\n\r\n    /**\r\n     * @return Number of unlock schedules.\r\n     */\r\n    function unlockScheduleCount() public view returns (uint256) {\r\n        return unlockSchedules.length;\r\n    }\r\n\r\n    /**\r\n     * @dev This funcion allows the contract owner to add more locked distribution tokens, along\r\n     *      with the associated \"unlock schedule\". These locked tokens immediately begin unlocking\r\n     *      linearly over the duraction of durationSec timeframe.\r\n     * @param amount Number of distribution tokens to lock. These are transferred from the caller.\r\n     * @param durationSec Length of time to linear unlock the tokens.\r\n     */\r\n    function lockTokens(uint256 amount, uint256 durationSec)\r\n        external\r\n        onlyOwner\r\n    {\r\n        require(\r\n            unlockSchedules.length < _maxUnlocks,\r\n            \"TokenGeyser: reached maximum unlock schedules\"\r\n        );\r\n\r\n        // Update lockedTokens amount before using it in computations after.\r\n        updateAccounting(msg.sender);\r\n\r\n        uint256 lockedTokens = totalLocked();\r\n        uint256 mintedLockedShares =\r\n            (lockedTokens > 0)\r\n                ? totalFrozenShares.mul(amount).div(lockedTokens)\r\n                : amount.mul(_initialSharesPerToken);\r\n\r\n        UnlockSchedule memory schedule;\r\n        schedule.initialLockedShares = mintedLockedShares;\r\n        schedule.lastUnlockTimestampSec = now;\r\n        schedule.endAtSec = now.add(durationSec);\r\n        schedule.durationSec = durationSec;\r\n        unlockSchedules.push(schedule);\r\n\r\n        totalFrozenShares = totalFrozenShares.add(mintedLockedShares);\r\n\r\n        require(\r\n            _frozenVault.token().transferFrom(\r\n                msg.sender,\r\n                address(_frozenVault),\r\n                amount\r\n            ),\r\n            \"TokenGeyser: transfer into locked pool failed\"\r\n        );\r\n        emit RewardsAdded(amount, durationSec, totalLocked());\r\n    }\r\n\r\n    /**\r\n     * @dev Moves distribution tokens from the locked pool to the unlocked pool, according to the\r\n     *      previously defined unlock schedules. Publicly callable.\r\n     * @return Number of newly unlocked distribution tokens.\r\n     */\r\n    function unlockTokens() public onlyOwner returns (uint256) {\r\n        _unlockTokens();\r\n    }\r\n\r\n    function _unlockTokens() private returns (uint256) {\r\n        uint256 unlockedTokens = 0;\r\n        uint256 lockedTokens = totalLocked();\r\n\r\n        if (totalFrozenShares == 0) {\r\n            unlockedTokens = lockedTokens;\r\n        } else {\r\n            uint256 unlockedShares = 0;\r\n            for (uint256 s = 0; s < unlockSchedules.length; s++) {\r\n                unlockedShares = unlockedShares.add(unlockScheduleShares(s));\r\n            }\r\n            unlockedTokens = unlockedShares.mul(lockedTokens).div(\r\n                totalFrozenShares\r\n            );\r\n            totalFrozenShares = totalFrozenShares.sub(unlockedShares);\r\n        }\r\n\r\n        if (unlockedTokens > 0) {\r\n            require(\r\n                _frozenVault.transfer(address(_claimableVault), unlockedTokens),\r\n                \"TokenGeyser: transfer out of locked pool failed\"\r\n            );\r\n            emit RewardsMovedToClaimable(unlockedTokens, totalLocked());\r\n        }\r\n\r\n        return unlockedTokens;\r\n    }\r\n\r\n    /**\r\n     * @dev Returns the number of unlockable shares from a given schedule. The returned value\r\n     *      depends on the time since the last unlock. This function updates schedule accounting,\r\n     *      but does not actually transfer any tokens.\r\n     * @param s Index of the unlock schedule.\r\n     * @return The number of unlocked shares.\r\n     */\r\n    function unlockScheduleShares(uint256 s) private returns (uint256) {\r\n        UnlockSchedule storage schedule = unlockSchedules[s];\r\n\r\n        if (schedule.unlockedShares >= schedule.initialLockedShares) {\r\n            return 0;\r\n        }\r\n\r\n        uint256 sharesToUnlock = 0;\r\n        // Special case to handle any leftover dust from integer division\r\n        if (now >= schedule.endAtSec) {\r\n            sharesToUnlock = (\r\n                schedule.initialLockedShares.sub(schedule.unlockedShares)\r\n            );\r\n            schedule.lastUnlockTimestampSec = schedule.endAtSec;\r\n        } else {\r\n            sharesToUnlock = now\r\n                .sub(schedule.lastUnlockTimestampSec)\r\n                .mul(schedule.initialLockedShares)\r\n                .div(schedule.durationSec);\r\n            schedule.lastUnlockTimestampSec = now;\r\n        }\r\n\r\n        schedule.unlockedShares = schedule.unlockedShares.add(sharesToUnlock);\r\n        return sharesToUnlock;\r\n    }\r\n\r\n    /**\r\n     * @dev Lets the owner rescue funds air-dropped to the staking pool.\r\n     * @param otherToken Address of the token to be rescued.\r\n     * @param to Address to which the rescued funds are to be sent.\r\n     * @param amount Amount of tokens to be rescued.\r\n     * @return Transfer success.\r\n     */\r\n    function rescueFundsFromStakingPool(\r\n        address otherToken,\r\n        address to,\r\n        uint256 amount\r\n    ) public onlyOwner returns (bool) {\r\n        return _farmingVault.rescueOthers(otherToken, to, amount);\r\n    }\r\n\r\n    function totalRewards() external view returns (uint256) {\r\n        uint256 lockedPoolBalance = _frozenVault.balance();\r\n        uint256 unlockedPoolBalance = _claimableVault.balance();\r\n        return lockedPoolBalance + unlockedPoolBalance;\r\n    }\r\n}\r\n",
  "sourcePath": "D:\\Data\\4. Coding\\Solidity\\Nakamoto\\Tinfoil finance\\contracts\\Farm.sol",
  "compiler": {
    "name": "solc",
    "version": "0.6.6+commit.6c089d02.Emscripten.clang"
  },
  "schemaVersion": "3.3.3",
  "updatedAt": "2021-02-15T13:38:07.480Z",
  "devdoc": {
    "methods": {
      "constructor": {
        "params": {
          "bonusDecimals_": "bonus decimals",
          "bonusPeriod_": "Length of time for bonus to increase linearly to max.",
          "distributionToken": "reward token.",
          "initialBonus_": "Starting time bonus                   e.g. 25% means user gets 25% of max distribution tokens.",
          "initialSharesPerToken": "Number of shares to mint per staking token on first stake.",
          "maxUnlocks": "Max number of unlock stages, to guard against hitting gas limit.",
          "stakingToken": "staking asset."
        }
      },
      "join(address,uint256)": {
        "details": "Transfers amount of deposit tokens from the user.",
        "params": {
          "amount": "Number of deposit tokens to stake."
        }
      },
      "joinFor(address,address,uint256)": {
        "details": "Transfers amount of deposit tokens from the caller on behalf of user.",
        "params": {
          "amount": "Number of deposit tokens to stake.",
          "user": "User address who gains credit for this stake operation."
        }
      },
      "leave(address,uint256)": {
        "details": "Unstakes a certain amount of previously deposited tokens. User also receives their alotted number of distribution tokens.",
        "params": {
          "amount": "Number of deposit tokens to unstake / withdraw."
        }
      },
      "leaveQuery(address,uint256)": {
        "params": {
          "amount": "Number of deposit tokens to unstake / withdraw."
        },
        "returns": {
          "_0": "The total number of distribution tokens that would be rewarded."
        }
      },
      "lockTokens(uint256,uint256)": {
        "details": "This funcion allows the contract owner to add more locked distribution tokens, along     with the associated \"unlock schedule\". These locked tokens immediately begin unlocking     linearly over the duraction of durationSec timeframe.",
        "params": {
          "amount": "Number of distribution tokens to lock. These are transferred from the caller.",
          "durationSec": "Length of time to linear unlock the tokens."
        }
      },
      "owner()": {
        "details": "Returns the address of the current owner."
      },
      "renounceOwnership()": {
        "details": "Leaves the contract without owner. It will not be possible to call `onlyOwner` functions anymore. Can only be called by the current owner.     * NOTE: Renouncing ownership will leave the contract without an owner, thereby removing any functionality that is only available to the owner."
      },
      "rescueFundsFromStakingPool(address,address,uint256)": {
        "details": "Lets the owner rescue funds air-dropped to the staking pool.",
        "params": {
          "amount": "Amount of tokens to be rescued.",
          "otherToken": "Address of the token to be rescued.",
          "to": "Address to which the rescued funds are to be sent."
        },
        "returns": {
          "_0": "Transfer success."
        }
      },
      "rescueRewards(address)": {
        "details": "Rescue rewards"
      },
      "token()": {
        "details": "Note that this application has a staking token as well as a distribution token, which may be different. This function is required by EIP-900.",
        "returns": {
          "_0": "The deposit token used for staking."
        }
      },
      "totalStakedFor(address)": {
        "params": {
          "addr": "The user to look up staking information for."
        },
        "returns": {
          "_0": "The number of staking tokens deposited for addr."
        }
      },
      "transferOwnership(address)": {
        "details": "Transfers ownership of the contract to a new account (`newOwner`). Can only be called by the current owner."
      },
      "unlockTokens()": {
        "details": "Moves distribution tokens from the locked pool to the unlocked pool, according to the     previously defined unlock schedules. Publicly callable.",
        "returns": {
          "_0": "Number of newly unlocked distribution tokens."
        }
      },
      "updateAccounting(address)": {
        "details": "A globally callable function to update the accounting state of the system.     Global state and state for the caller are updated.",
        "returns": {
          "_0": "[0] balance of the locked pool",
          "_1": "[1] balance of the unlocked pool",
          "_2": "[2] caller's staking share seconds",
          "_3": "[3] global staking share seconds",
          "_4": "[4] Rewards caller has accumulated, optimistically assumes max time-bonus.",
          "_5": "[5] block timestamp"
        }
      }
    }
  },
  "userdoc": {
    "methods": {}
  }
}