{
  "contractName": "Farmer",
  "abi": [
    {
      "inputs": [],
      "stateMutability": "nonpayable",
      "type": "constructor"
    },
    {
      "anonymous": false,
      "inputs": [
        {
          "indexed": true,
          "internalType": "address",
          "name": "owner",
          "type": "address"
        },
        {
          "indexed": true,
          "internalType": "address",
          "name": "farm",
          "type": "address"
        },
        {
          "indexed": false,
          "internalType": "address",
          "name": "asset",
          "type": "address"
        }
      ],
      "name": "FarmAdded",
      "type": "event"
    },
    {
      "anonymous": false,
      "inputs": [
        {
          "indexed": true,
          "internalType": "address",
          "name": "user",
          "type": "address"
        },
        {
          "indexed": true,
          "internalType": "address",
          "name": "asset",
          "type": "address"
        },
        {
          "indexed": false,
          "internalType": "uint256",
          "name": "amount",
          "type": "uint256"
        }
      ],
      "name": "FarmJoined",
      "type": "event"
    },
    {
      "anonymous": false,
      "inputs": [
        {
          "indexed": true,
          "internalType": "address",
          "name": "user",
          "type": "address"
        },
        {
          "indexed": true,
          "internalType": "address",
          "name": "asset",
          "type": "address"
        },
        {
          "indexed": false,
          "internalType": "uint256",
          "name": "amount",
          "type": "uint256"
        }
      ],
      "name": "FarmLeft",
      "type": "event"
    },
    {
      "anonymous": false,
      "inputs": [
        {
          "indexed": true,
          "internalType": "address",
          "name": "previousOwner",
          "type": "address"
        },
        {
          "indexed": true,
          "internalType": "address",
          "name": "newOwner",
          "type": "address"
        }
      ],
      "name": "OwnershipTransferred",
      "type": "event"
    },
    {
      "inputs": [
        {
          "internalType": "uint256",
          "name": "",
          "type": "uint256"
        }
      ],
      "name": "assets",
      "outputs": [
        {
          "internalType": "address",
          "name": "",
          "type": "address"
        }
      ],
      "stateMutability": "view",
      "type": "function"
    },
    {
      "inputs": [
        {
          "internalType": "address",
          "name": "",
          "type": "address"
        }
      ],
      "name": "farms",
      "outputs": [
        {
          "internalType": "address",
          "name": "",
          "type": "address"
        }
      ],
      "stateMutability": "view",
      "type": "function"
    },
    {
      "inputs": [],
      "name": "owner",
      "outputs": [
        {
          "internalType": "address",
          "name": "",
          "type": "address"
        }
      ],
      "stateMutability": "view",
      "type": "function"
    },
    {
      "inputs": [],
      "name": "renounceOwnership",
      "outputs": [],
      "stateMutability": "nonpayable",
      "type": "function"
    },
    {
      "inputs": [
        {
          "internalType": "address",
          "name": "newOwner",
          "type": "address"
        }
      ],
      "name": "transferOwnership",
      "outputs": [],
      "stateMutability": "nonpayable",
      "type": "function"
    },
    {
      "inputs": [
        {
          "internalType": "address",
          "name": "asset",
          "type": "address"
        },
        {
          "internalType": "address",
          "name": "farm",
          "type": "address"
        }
      ],
      "name": "addFarm",
      "outputs": [],
      "stateMutability": "nonpayable",
      "type": "function"
    },
    {
      "inputs": [
        {
          "internalType": "address[]",
          "name": "_assets",
          "type": "address[]"
        },
        {
          "internalType": "uint256[]",
          "name": "values",
          "type": "uint256[]"
        }
      ],
      "name": "join",
      "outputs": [],
      "stateMutability": "nonpayable",
      "type": "function"
    },
    {
      "inputs": [
        {
          "internalType": "address[]",
          "name": "_assets",
          "type": "address[]"
        },
        {
          "internalType": "uint256[]",
          "name": "values",
          "type": "uint256[]"
        }
      ],
      "name": "leave",
      "outputs": [],
      "stateMutability": "nonpayable",
      "type": "function"
    },
    {
      "inputs": [
        {
          "internalType": "address",
          "name": "asset",
          "type": "address"
        }
      ],
      "name": "getJoined",
      "outputs": [
        {
          "internalType": "uint256",
          "name": "",
          "type": "uint256"
        }
      ],
      "stateMutability": "view",
      "type": "function"
    },
    {
      "inputs": [
        {
          "internalType": "address[]",
          "name": "_assets",
          "type": "address[]"
        },
        {
          "internalType": "uint256[]",
          "name": "values",
          "type": "uint256[]"
        }
      ],
      "name": "getCurrentUserRewards",
      "outputs": [
        {
          "internalType": "address[]",
          "name": "",
          "type": "address[]"
        },
        {
          "internalType": "uint256[]",
          "name": "",
          "type": "uint256[]"
        }
      ],
      "stateMutability": "nonpayable",
      "type": "function"
    },
    {
      "inputs": [
        {
          "internalType": "address",
          "name": "asset",
          "type": "address"
        }
      ],
      "name": "getFarmClaimedRewards",
      "outputs": [
        {
          "internalType": "uint256",
          "name": "",
          "type": "uint256"
        }
      ],
      "stateMutability": "view",
      "type": "function"
    },
    {
      "inputs": [],
      "name": "getAllFarmsClaimedRewards",
      "outputs": [
        {
          "internalType": "address[]",
          "name": "",
          "type": "address[]"
        },
        {
          "internalType": "uint256[]",
          "name": "",
          "type": "uint256[]"
        }
      ],
      "stateMutability": "view",
      "type": "function"
    },
    {
      "inputs": [],
      "name": "getAllFarmsJoined",
      "outputs": [
        {
          "internalType": "address[]",
          "name": "",
          "type": "address[]"
        },
        {
          "internalType": "uint256[]",
          "name": "",
          "type": "uint256[]"
        }
      ],
      "stateMutability": "view",
      "type": "function"
    },
    {
      "inputs": [],
      "name": "totalRewards",
      "outputs": [
        {
          "internalType": "address[]",
          "name": "",
          "type": "address[]"
        },
        {
          "internalType": "uint256[]",
          "name": "",
          "type": "uint256[]"
        }
      ],
      "stateMutability": "view",
      "type": "function"
    }
  ],
  "bytecode": "0x608060405234801561001057600080fd5b5060006100246001600160e01b0361007316565b600080546001600160a01b0319166001600160a01b0383169081178255604051929350917f8be0079c531659141344cd1fd0a4f28419497f9722a3daafe3b4186f6b6457e0908290a350610077565b3390565b611691806100866000396000f3fe608060405234801561001057600080fd5b50600436106100ea5760003560e01c80638356d8ae1161008c578063cf35bdd011610066578063cf35bdd01461048c578063e221c172146104a9578063f0641ff3146104cf578063f2fde38b146104d7576100ea565b80638356d8ae1461038e5780638da5cb5b146103c65780639e371537146103ce576100ea565b80634cf83e3c116100c85780634cf83e3c146102925780636b6dbddf146102c0578063715018a6146102c85780637903bce9146102d0576100ea565b80630e15561a146100ef5780632b89c5e614610190578063421adfa014610250575b600080fd5b6100f76104fd565b604051808060200180602001838103835285818151815260200191508051906020019060200280838360005b8381101561013b578181015183820152602001610123565b50505050905001838103825284818151815260200191508051906020019060200280838360005b8381101561017a578181015183820152602001610162565b5050505090500194505050505060405180910390f35b61024e600480360360408110156101a657600080fd5b810190602081018135600160201b8111156101c057600080fd5b8201836020820111156101d257600080fd5b803590602001918460208302840111600160201b831117156101f357600080fd5b919390929091602081019035600160201b81111561021057600080fd5b82018360208201111561022257600080fd5b803590602001918460208302840111600160201b8311171561024357600080fd5b5090925090506106ce565b005b6102766004803603602081101561026657600080fd5b50356001600160a01b03166108ed565b604080516001600160a01b039092168252519081900360200190f35b61024e600480360360408110156102a857600080fd5b506001600160a01b0381358116916020013516610908565b6100f7610ab9565b61024e610c86565b6100f7600480360360408110156102e657600080fd5b810190602081018135600160201b81111561030057600080fd5b82018360208201111561031257600080fd5b803590602001918460208302840111600160201b8311171561033357600080fd5b919390929091602081019035600160201b81111561035057600080fd5b82018360208201111561036257600080fd5b803590602001918460208302840111600160201b8311171561038357600080fd5b509092509050610d44565b6103b4600480360360208110156103a457600080fd5b50356001600160a01b0316610ff9565b60408051918252519081900360200190f35b610276611083565b61024e600480360360408110156103e457600080fd5b810190602081018135600160201b8111156103fe57600080fd5b82018360208201111561041057600080fd5b803590602001918460208302840111600160201b8311171561043157600080fd5b919390929091602081019035600160201b81111561044e57600080fd5b82018360208201111561046057600080fd5b803590602001918460208302840111600160201b8311171561048157600080fd5b509092509050611092565b610276600480360360208110156104a257600080fd5b50356112aa565b6103b4600480360360208110156104bf57600080fd5b50356001600160a01b03166112d1565b6100f7611329565b61024e600480360360208110156104ed57600080fd5b50356001600160a01b03166114f6565b606080606060028054905067ffffffffffffffff8111801561051e57600080fd5b50604051908082528060200260200182016040528015610548578160200160208202803683370190505b5060025490915060609067ffffffffffffffff8111801561056857600080fd5b50604051908082528060200260200182016040528015610592578160200160208202803683370190505b50905060005b60025460ff821610156106c45760028160ff16815481106105b557fe5b9060005260206000200160009054906101000a90046001600160a01b0316838260ff16815181106105e257fe5b60200260200101906001600160a01b031690816001600160a01b0316815250506001600060028360ff168154811061061657fe5b60009182526020808320909101546001600160a01b03908116845283820194909452604092830190912054825163070aab0d60e11b81529251931692630e15561a926004808201939291829003018186803b15801561067457600080fd5b505afa158015610688573d6000803e3d6000fd5b505050506040513d602081101561069e57600080fd5b50518251839060ff84169081106106b157fe5b6020908102919091010152600101610598565b5090925090509091565b82811461070c5760405162461bcd60e51b81526004018080602001828103825260278152602001806116356027913960400191505060405180910390fd5b82610750576040805162461bcd60e51b815260206004820152600f60248201526e61737365747320697320656d70747960881b604482015290519081900360640190fd5b80610794576040805162461bcd60e51b815260206004820152600f60248201526e76616c75657320697320656d70747960881b604482015290519081900360640190fd5b60005b60ff81168411156108e6576001600086868460ff168181106107b557fe5b6001600160a01b036020918202939093013583168452830193909352604090910160002054169050633b4da69f33858560ff86168181106107f257fe5b905060200201356040518363ffffffff1660e01b815260040180836001600160a01b03166001600160a01b0316815260200182815260200192505050600060405180830381600087803b15801561084857600080fd5b505af115801561085c573d6000803e3d6000fd5b5050505084848260ff1681811061086f57fe5b905060200201356001600160a01b03166001600160a01b0316336001600160a01b03167f5b6dda84cb81db085d4f088ce732809adba9fb396ed80ddf819ae34547f8b54585858560ff168181106108c257fe5b905060200201356040518082815260200191505060405180910390a3600101610797565b5050505050565b6001602052600090815260409020546001600160a01b031681565b61091061160a565b6001600160a01b0316610921611083565b6001600160a01b03161461097c576040805162461bcd60e51b815260206004820181905260248201527f4f776e61626c653a2063616c6c6572206973206e6f7420746865206f776e6572604482015290519081900360640190fd5b6001600160a01b0382166109ca576040805162461bcd60e51b815260206004820152601060248201526f185cdcd95d081a5cc81a5b9d985b1a5960821b604482015290519081900360640190fd5b6001600160a01b038116610a17576040805162461bcd60e51b815260206004820152600f60248201526e19985c9b481a5cc81a5b9d985b1a59608a1b604482015290519081900360640190fd5b6001600160a01b03828116600081815260016020818152604080842080546001600160a01b03199081169789169788179091556002805494850181559094527f405787fa12a823e0f2b7631cc41b3ba8828b3321ca811111fa75cd3aa3bb5ace9092018054909316841790925580519283525133927fccc28b619477791e21190cd0b1f00b4e70ac25bddc2d790c614342e84e4d626592908290030190a35050565b606080606060028054905067ffffffffffffffff81118015610ada57600080fd5b50604051908082528060200260200182016040528015610b04578160200160208202803683370190505b5060025490915060609067ffffffffffffffff81118015610b2457600080fd5b50604051908082528060200260200182016040528015610b4e578160200160208202803683370190505b50905060005b60025460ff821610156106c45760028160ff1681548110610b7157fe5b9060005260206000200160009054906101000a90046001600160a01b0316838260ff1681518110610b9e57fe5b60200260200101906001600160a01b031690816001600160a01b0316815250506001600060028360ff1681548110610bd257fe5b60009182526020808320909101546001600160a01b039081168452838201949094526040928301909120548251634b341aed60e01b81523360048201529251931692634b341aed926024808201939291829003018186803b158015610c3657600080fd5b505afa158015610c4a573d6000803e3d6000fd5b505050506040513d6020811015610c6057600080fd5b50518251839060ff8416908110610c7357fe5b6020908102919091010152600101610b54565b610c8e61160a565b6001600160a01b0316610c9f611083565b6001600160a01b031614610cfa576040805162461bcd60e51b815260206004820181905260248201527f4f776e61626c653a2063616c6c6572206973206e6f7420746865206f776e6572604482015290519081900360640190fd5b600080546040516001600160a01b03909116907f8be0079c531659141344cd1fd0a4f28419497f9722a3daafe3b4186f6b6457e0908390a3600080546001600160a01b0319169055565b606080848314610d855760405162461bcd60e51b81526004018080602001828103825260278152602001806116356027913960400191505060405180910390fd5b84610dc9576040805162461bcd60e51b815260206004820152600f60248201526e61737365747320697320656d70747960881b604482015290519081900360640190fd5b82610e0d576040805162461bcd60e51b815260206004820152600f60248201526e76616c75657320697320656d70747960881b604482015290519081900360640190fd5b60608567ffffffffffffffff81118015610e2657600080fd5b50604051908082528060200260200182016040528015610e50578160200160208202803683370190505b50905060608667ffffffffffffffff81118015610e6c57600080fd5b50604051908082528060200260200182016040528015610e96578160200160208202803683370190505b50905060005b60ff8116881115610feb5788888260ff16818110610eb657fe5b905060200201356001600160a01b0316838260ff1681518110610ed557fe5b60200260200101906001600160a01b031690816001600160a01b031681525050600160008a8a8460ff16818110610f0857fe5b6001600160a01b0360209182029390930135831684528301939093526040909101600020541690506360f4872733898960ff8616818110610f4557fe5b905060200201356040518363ffffffff1660e01b815260040180836001600160a01b03166001600160a01b0316815260200182815260200192505050602060405180830381600087803b158015610f9b57600080fd5b505af1158015610faf573d6000803e3d6000fd5b505050506040513d6020811015610fc557600080fd5b50518251839060ff8416908110610fd857fe5b6020908102919091010152600101610e9c565b509097909650945050505050565b6001600160a01b038082166000908152600160209081526040808320548151634b341aed60e01b8152336004820152915193941692634b341aed92602480840193919291829003018186803b15801561105157600080fd5b505afa158015611065573d6000803e3d6000fd5b505050506040513d602081101561107b57600080fd5b505192915050565b6000546001600160a01b031690565b8281146110d05760405162461bcd60e51b81526004018080602001828103825260278152602001806116356027913960400191505060405180910390fd5b82611114576040805162461bcd60e51b815260206004820152600f60248201526e61737365747320697320656d70747960881b604482015290519081900360640190fd5b80611158576040805162461bcd60e51b815260206004820152600f60248201526e76616c75657320697320656d70747960881b604482015290519081900360640190fd5b60005b60ff81168411156108e6576001600086868460ff1681811061117957fe5b6001600160a01b036020918202939093013583168452830193909352604090910160002054169050636cb58c9333858560ff86168181106111b657fe5b905060200201356040518363ffffffff1660e01b815260040180836001600160a01b03166001600160a01b0316815260200182815260200192505050600060405180830381600087803b15801561120c57600080fd5b505af1158015611220573d6000803e3d6000fd5b5050505084848260ff1681811061123357fe5b905060200201356001600160a01b03166001600160a01b0316336001600160a01b03167f3e89ad57c088b8678af1d2076500aba2bfd7669d443727ce7e47cec02b40729a85858560ff1681811061128657fe5b905060200201356040518082815260200191505060405180910390a360010161115b565b600281815481106112b757fe5b6000918252602090912001546001600160a01b0316905081565b6001600160a01b038082166000908152600160209081526040808320548151630b9e35db60e41b815233600482015291519394169263b9e35db092602480840193919291829003018186803b15801561105157600080fd5b606080606060028054905067ffffffffffffffff8111801561134a57600080fd5b50604051908082528060200260200182016040528015611374578160200160208202803683370190505b5060025490915060609067ffffffffffffffff8111801561139457600080fd5b506040519080825280602002602001820160405280156113be578160200160208202803683370190505b50905060005b60025460ff821610156106c45760028160ff16815481106113e157fe5b9060005260206000200160009054906101000a90046001600160a01b0316838260ff168151811061140e57fe5b60200260200101906001600160a01b031690816001600160a01b0316815250506001600060028360ff168154811061144257fe5b60009182526020808320909101546001600160a01b039081168452838201949094526040928301909120548251630b9e35db60e41b8152336004820152925193169263b9e35db0926024808201939291829003018186803b1580156114a657600080fd5b505afa1580156114ba573d6000803e3d6000fd5b505050506040513d60208110156114d057600080fd5b50518251839060ff84169081106114e357fe5b60209081029190910101526001016113c4565b6114fe61160a565b6001600160a01b031661150f611083565b6001600160a01b03161461156a576040805162461bcd60e51b815260206004820181905260248201527f4f776e61626c653a2063616c6c6572206973206e6f7420746865206f776e6572604482015290519081900360640190fd5b6001600160a01b0381166115af5760405162461bcd60e51b815260040180806020018281038252602681526020018061160f6026913960400191505060405180910390fd5b600080546040516001600160a01b03808516939216917f8be0079c531659141344cd1fd0a4f28419497f9722a3daafe3b4186f6b6457e091a3600080546001600160a01b0319166001600160a01b0392909216919091179055565b339056fe4f776e61626c653a206e6577206f776e657220697320746865207a65726f206164647265737361737365747320616e642076616c756573206861766520646966666572656e74206c656e677468a2646970667358221220bb3297cfdcc2dc61e9a0d6ffa1417a867a6252e20dfb23bc5f909843c506354264736f6c63430006060033",
  "immutableReferences": {},
  "source": "// SPDX-License-Identifier: MIT\r\npragma solidity ^0.6.0;\r\n\r\nimport \"@openzeppelin/contracts/token/ERC20/ERC20.sol\";\r\nimport \"@openzeppelin/contracts/access/Ownable.sol\";\r\n\r\nimport \"./interfaces/IFarmer.sol\";\r\nimport \"./Farm.sol\";\r\n\r\n/** @title BSC Farmer */\r\ncontract Farmer is Ownable, IFarmer {\r\n    mapping(address => address) public farms;\r\n    address[] public assets;\r\n\r\n    constructor() public {}\r\n\r\n    /**\r\n        @dev add farm to farmer\r\n     */\r\n    function addFarm(address asset, address farm) public override onlyOwner {\r\n        require(asset != address(0), \"asset is invalid\");\r\n        require(farm != address(0), \"farm is invalid\");\r\n\r\n        farms[asset] = farm;\r\n        assets.push(asset);\r\n\r\n        emit FarmAdded(msg.sender, farm, asset);\r\n    }\r\n\r\n    /**\r\n        @dev join a farm\r\n     */\r\n    function join(address[] calldata _assets, uint256[] calldata values)\r\n        external\r\n        override\r\n    {\r\n        require(\r\n            _assets.length == values.length,\r\n            \"assets and values have different length\"\r\n        );\r\n        require(_assets.length > 0, \"assets is empty\");\r\n        require(values.length > 0, \"values is empty\");\r\n\r\n        for (uint8 i = 0; i < _assets.length; i++) {\r\n            Farm(farms[_assets[i]]).join(msg.sender, values[i]);\r\n\r\n            emit FarmJoined(msg.sender, _assets[i], values[i]);\r\n        }\r\n    }\r\n\r\n    /**\r\n        @dev leave farm\r\n     */\r\n    function leave(address[] calldata _assets, uint256[] calldata values)\r\n        external\r\n        override\r\n    {\r\n        require(\r\n            _assets.length == values.length,\r\n            \"assets and values have different length\"\r\n        );\r\n        require(_assets.length > 0, \"assets is empty\");\r\n        require(values.length > 0, \"values is empty\");\r\n\r\n        for (uint8 i = 0; i < _assets.length; i++) {\r\n            Farm(farms[_assets[i]]).leave(msg.sender, values[i]);\r\n\r\n            emit FarmLeft(msg.sender, _assets[i], values[i]);\r\n        }\r\n    }\r\n\r\n    /**\r\n        @dev get joined amount for farm\r\n    */\r\n    function getJoined(address asset) public view override returns (uint256) {\r\n        return Farm(farms[asset]).totalStakedFor(msg.sender);\r\n    }\r\n\r\n    /**\r\n        @dev get current eligible rewards from all farms\r\n     */\r\n    function getCurrentUserRewards(\r\n        address[] calldata _assets,\r\n        uint256[] calldata values\r\n    ) external override returns (address[] memory, uint256[] memory) {\r\n        require(\r\n            _assets.length == values.length,\r\n            \"assets and values have different length\"\r\n        );\r\n        require(_assets.length > 0, \"assets is empty\");\r\n        require(values.length > 0, \"values is empty\");\r\n\r\n        address[] memory addresses = new address[](_assets.length);\r\n        uint256[] memory vResult = new uint256[](_assets.length);\r\n\r\n        for (uint8 i = 0; i < _assets.length; i++) {\r\n            addresses[i] = _assets[i];\r\n            vResult[i] = Farm(farms[_assets[i]]).leaveQuery(\r\n                msg.sender,\r\n                values[i]\r\n            );\r\n        }\r\n        return (addresses, vResult);\r\n    }\r\n\r\n    /**\r\n        @dev get claimed rewards from a specific farm\r\n    */\r\n    function getFarmClaimedRewards(address asset)\r\n        public\r\n        view\r\n        override\r\n        returns (uint256)\r\n    {\r\n        return Farm(farms[asset]).getClaimedRewards(msg.sender);\r\n    }\r\n\r\n    /**\r\n        @dev get claimed rewards from all farms added to the farmer\r\n    */\r\n    function getAllFarmsClaimedRewards()\r\n        public\r\n        view\r\n        override\r\n        returns (address[] memory, uint256[] memory)\r\n    {\r\n        address[] memory addresses = new address[](assets.length);\r\n        uint256[] memory values = new uint256[](assets.length);\r\n\r\n        for (uint8 i = 0; i < assets.length; i++) {\r\n            addresses[i] = assets[i];\r\n            values[i] = Farm(farms[assets[i]]).getClaimedRewards(msg.sender);\r\n        }\r\n\r\n        return (addresses, values);\r\n    }\r\n\r\n    /**\r\n        @dev Retrieves all stakes for sender\r\n     */\r\n    function getAllFarmsJoined()\r\n        public\r\n        view\r\n        override\r\n        returns (address[] memory, uint256[] memory)\r\n    {\r\n        address[] memory addresses = new address[](assets.length);\r\n        uint256[] memory vResult = new uint256[](assets.length);\r\n\r\n        for (uint8 i = 0; i < assets.length; i++) {\r\n            addresses[i] = assets[i];\r\n            vResult[i] = Farm(farms[assets[i]]).totalStakedFor(msg.sender);\r\n        }\r\n\r\n        return (addresses, vResult);\r\n    }\r\n\r\n    function totalRewards()\r\n        public\r\n        view\r\n        returns (address[] memory, uint256[] memory)\r\n    {\r\n        address[] memory addresses = new address[](assets.length);\r\n        uint256[] memory vResult = new uint256[](assets.length);\r\n\r\n        for (uint8 i = 0; i < assets.length; i++) {\r\n            addresses[i] = assets[i];\r\n            vResult[i] = Farm(farms[assets[i]]).totalRewards();\r\n        }\r\n\r\n        return (addresses, vResult);\r\n    }\r\n}\r\n",
  "sourcePath": "D:/Data/4. Coding/Solidity/Nakamoto/Tinfoil finance/contracts/Farmer.sol",
  "compiler": {
    "name": "solc",
    "version": "0.6.6+commit.6c089d02.Emscripten.clang"
  },
  "schemaVersion": "3.3.3",
  "updatedAt": "2021-02-15T13:38:07.506Z",
  "devdoc": {
    "methods": {
      "addFarm(address,address)": {
        "details": "add farm to farmer"
      },
      "getAllFarmsClaimedRewards()": {
        "details": "get claimed rewards from all farms added to the farmer"
      },
      "getAllFarmsJoined()": {
        "details": "Retrieves all stakes for sender"
      },
      "getCurrentUserRewards(address[],uint256[])": {
        "details": "get current eligible rewards from all farms"
      },
      "getFarmClaimedRewards(address)": {
        "details": "get claimed rewards from a specific farm"
      },
      "getJoined(address)": {
        "details": "get joined amount for farm"
      },
      "join(address[],uint256[])": {
        "details": "join a farm"
      },
      "leave(address[],uint256[])": {
        "details": "leave farm"
      },
      "owner()": {
        "details": "Returns the address of the current owner."
      },
      "renounceOwnership()": {
        "details": "Leaves the contract without owner. It will not be possible to call `onlyOwner` functions anymore. Can only be called by the current owner.     * NOTE: Renouncing ownership will leave the contract without an owner, thereby removing any functionality that is only available to the owner."
      },
      "transferOwnership(address)": {
        "details": "Transfers ownership of the contract to a new account (`newOwner`). Can only be called by the current owner."
      }
    },
    "title": "BSC Farmer "
  },
  "userdoc": {
    "methods": {}
  }
}