{
  "contractName": "ReceiptToken",
  "abi": [
    {
      "inputs": [
        {
          "internalType": "string",
          "name": "_tokenName",
          "type": "string"
        },
        {
          "internalType": "string",
          "name": "_tokenSymbol",
          "type": "string"
        }
      ],
      "stateMutability": "nonpayable",
      "type": "constructor"
    },
    {
      "anonymous": false,
      "inputs": [
        {
          "indexed": true,
          "internalType": "address",
          "name": "owner",
          "type": "address"
        },
        {
          "indexed": true,
          "internalType": "address",
          "name": "spender",
          "type": "address"
        },
        {
          "indexed": false,
          "internalType": "uint256",
          "name": "value",
          "type": "uint256"
        }
      ],
      "name": "Approval",
      "type": "event"
    },
    {
      "anonymous": false,
      "inputs": [
        {
          "indexed": true,
          "internalType": "bytes32",
          "name": "role",
          "type": "bytes32"
        },
        {
          "indexed": true,
          "internalType": "bytes32",
          "name": "previousAdminRole",
          "type": "bytes32"
        },
        {
          "indexed": true,
          "internalType": "bytes32",
          "name": "newAdminRole",
          "type": "bytes32"
        }
      ],
      "name": "RoleAdminChanged",
      "type": "event"
    },
    {
      "anonymous": false,
      "inputs": [
        {
          "indexed": true,
          "internalType": "bytes32",
          "name": "role",
          "type": "bytes32"
        },
        {
          "indexed": true,
          "internalType": "address",
          "name": "account",
          "type": "address"
        },
        {
          "indexed": true,
          "internalType": "address",
          "name": "sender",
          "type": "address"
        }
      ],
      "name": "RoleGranted",
      "type": "event"
    },
    {
      "anonymous": false,
      "inputs": [
        {
          "indexed": true,
          "internalType": "bytes32",
          "name": "role",
          "type": "bytes32"
        },
        {
          "indexed": true,
          "internalType": "address",
          "name": "account",
          "type": "address"
        },
        {
          "indexed": true,
          "internalType": "address",
          "name": "sender",
          "type": "address"
        }
      ],
      "name": "RoleRevoked",
      "type": "event"
    },
    {
      "anonymous": false,
      "inputs": [
        {
          "indexed": true,
          "internalType": "address",
          "name": "from",
          "type": "address"
        },
        {
          "indexed": true,
          "internalType": "address",
          "name": "to",
          "type": "address"
        },
        {
          "indexed": false,
          "internalType": "uint256",
          "name": "value",
          "type": "uint256"
        }
      ],
      "name": "Transfer",
      "type": "event"
    },
    {
      "inputs": [],
      "name": "BURNER_ROLE",
      "outputs": [
        {
          "internalType": "bytes32",
          "name": "",
          "type": "bytes32"
        }
      ],
      "stateMutability": "view",
      "type": "function"
    },
    {
      "inputs": [],
      "name": "DEFAULT_ADMIN_ROLE",
      "outputs": [
        {
          "internalType": "bytes32",
          "name": "",
          "type": "bytes32"
        }
      ],
      "stateMutability": "view",
      "type": "function"
    },
    {
      "inputs": [],
      "name": "MINTER_ROLE",
      "outputs": [
        {
          "internalType": "bytes32",
          "name": "",
          "type": "bytes32"
        }
      ],
      "stateMutability": "view",
      "type": "function"
    },
    {
      "inputs": [
        {
          "internalType": "address",
          "name": "owner",
          "type": "address"
        },
        {
          "internalType": "address",
          "name": "spender",
          "type": "address"
        }
      ],
      "name": "allowance",
      "outputs": [
        {
          "internalType": "uint256",
          "name": "",
          "type": "uint256"
        }
      ],
      "stateMutability": "view",
      "type": "function"
    },
    {
      "inputs": [
        {
          "internalType": "address",
          "name": "spender",
          "type": "address"
        },
        {
          "internalType": "uint256",
          "name": "amount",
          "type": "uint256"
        }
      ],
      "name": "approve",
      "outputs": [
        {
          "internalType": "bool",
          "name": "",
          "type": "bool"
        }
      ],
      "stateMutability": "nonpayable",
      "type": "function"
    },
    {
      "inputs": [
        {
          "internalType": "address",
          "name": "account",
          "type": "address"
        }
      ],
      "name": "balanceOf",
      "outputs": [
        {
          "internalType": "uint256",
          "name": "",
          "type": "uint256"
        }
      ],
      "stateMutability": "view",
      "type": "function"
    },
    {
      "inputs": [],
      "name": "decimals",
      "outputs": [
        {
          "internalType": "uint8",
          "name": "",
          "type": "uint8"
        }
      ],
      "stateMutability": "view",
      "type": "function"
    },
    {
      "inputs": [
        {
          "internalType": "address",
          "name": "spender",
          "type": "address"
        },
        {
          "internalType": "uint256",
          "name": "subtractedValue",
          "type": "uint256"
        }
      ],
      "name": "decreaseAllowance",
      "outputs": [
        {
          "internalType": "bool",
          "name": "",
          "type": "bool"
        }
      ],
      "stateMutability": "nonpayable",
      "type": "function"
    },
    {
      "inputs": [
        {
          "internalType": "bytes32",
          "name": "role",
          "type": "bytes32"
        }
      ],
      "name": "getRoleAdmin",
      "outputs": [
        {
          "internalType": "bytes32",
          "name": "",
          "type": "bytes32"
        }
      ],
      "stateMutability": "view",
      "type": "function"
    },
    {
      "inputs": [
        {
          "internalType": "bytes32",
          "name": "role",
          "type": "bytes32"
        },
        {
          "internalType": "uint256",
          "name": "index",
          "type": "uint256"
        }
      ],
      "name": "getRoleMember",
      "outputs": [
        {
          "internalType": "address",
          "name": "",
          "type": "address"
        }
      ],
      "stateMutability": "view",
      "type": "function"
    },
    {
      "inputs": [
        {
          "internalType": "bytes32",
          "name": "role",
          "type": "bytes32"
        }
      ],
      "name": "getRoleMemberCount",
      "outputs": [
        {
          "internalType": "uint256",
          "name": "",
          "type": "uint256"
        }
      ],
      "stateMutability": "view",
      "type": "function"
    },
    {
      "inputs": [
        {
          "internalType": "bytes32",
          "name": "role",
          "type": "bytes32"
        },
        {
          "internalType": "address",
          "name": "account",
          "type": "address"
        }
      ],
      "name": "grantRole",
      "outputs": [],
      "stateMutability": "nonpayable",
      "type": "function"
    },
    {
      "inputs": [
        {
          "internalType": "bytes32",
          "name": "role",
          "type": "bytes32"
        },
        {
          "internalType": "address",
          "name": "account",
          "type": "address"
        }
      ],
      "name": "hasRole",
      "outputs": [
        {
          "internalType": "bool",
          "name": "",
          "type": "bool"
        }
      ],
      "stateMutability": "view",
      "type": "function"
    },
    {
      "inputs": [
        {
          "internalType": "address",
          "name": "spender",
          "type": "address"
        },
        {
          "internalType": "uint256",
          "name": "addedValue",
          "type": "uint256"
        }
      ],
      "name": "increaseAllowance",
      "outputs": [
        {
          "internalType": "bool",
          "name": "",
          "type": "bool"
        }
      ],
      "stateMutability": "nonpayable",
      "type": "function"
    },
    {
      "inputs": [],
      "name": "name",
      "outputs": [
        {
          "internalType": "string",
          "name": "",
          "type": "string"
        }
      ],
      "stateMutability": "view",
      "type": "function"
    },
    {
      "inputs": [
        {
          "internalType": "bytes32",
          "name": "role",
          "type": "bytes32"
        },
        {
          "internalType": "address",
          "name": "account",
          "type": "address"
        }
      ],
      "name": "renounceRole",
      "outputs": [],
      "stateMutability": "nonpayable",
      "type": "function"
    },
    {
      "inputs": [
        {
          "internalType": "bytes32",
          "name": "role",
          "type": "bytes32"
        },
        {
          "internalType": "address",
          "name": "account",
          "type": "address"
        }
      ],
      "name": "revokeRole",
      "outputs": [],
      "stateMutability": "nonpayable",
      "type": "function"
    },
    {
      "inputs": [],
      "name": "symbol",
      "outputs": [
        {
          "internalType": "string",
          "name": "",
          "type": "string"
        }
      ],
      "stateMutability": "view",
      "type": "function"
    },
    {
      "inputs": [],
      "name": "totalSupply",
      "outputs": [
        {
          "internalType": "uint256",
          "name": "",
          "type": "uint256"
        }
      ],
      "stateMutability": "view",
      "type": "function"
    },
    {
      "inputs": [
        {
          "internalType": "address",
          "name": "recipient",
          "type": "address"
        },
        {
          "internalType": "uint256",
          "name": "amount",
          "type": "uint256"
        }
      ],
      "name": "transfer",
      "outputs": [
        {
          "internalType": "bool",
          "name": "",
          "type": "bool"
        }
      ],
      "stateMutability": "nonpayable",
      "type": "function"
    },
    {
      "inputs": [
        {
          "internalType": "address",
          "name": "sender",
          "type": "address"
        },
        {
          "internalType": "address",
          "name": "recipient",
          "type": "address"
        },
        {
          "internalType": "uint256",
          "name": "amount",
          "type": "uint256"
        }
      ],
      "name": "transferFrom",
      "outputs": [
        {
          "internalType": "bool",
          "name": "",
          "type": "bool"
        }
      ],
      "stateMutability": "nonpayable",
      "type": "function"
    },
    {
      "inputs": [
        {
          "internalType": "address",
          "name": "to",
          "type": "address"
        },
        {
          "internalType": "uint256",
          "name": "amount",
          "type": "uint256"
        }
      ],
      "name": "mint",
      "outputs": [],
      "stateMutability": "nonpayable",
      "type": "function"
    },
    {
      "inputs": [
        {
          "internalType": "address",
          "name": "from",
          "type": "address"
        },
        {
          "internalType": "uint256",
          "name": "amount",
          "type": "uint256"
        }
      ],
      "name": "burn",
      "outputs": [],
      "stateMutability": "nonpayable",
      "type": "function"
    }
  ],
  "bytecode": "0x60806040523480156200001157600080fd5b506040516200195038038062001950833981810160405260408110156200003757600080fd5b81019080805160405193929190846401000000008211156200005857600080fd5b9083019060208201858111156200006e57600080fd5b82516401000000008111828201881017156200008957600080fd5b82525081516020918201929091019080838360005b83811015620000b85781810151838201526020016200009e565b50505050905090810190601f168015620000e65780820380516001836020036101000a031916815260200191505b50604052602001805160405193929190846401000000008211156200010a57600080fd5b9083019060208201858111156200012057600080fd5b82516401000000008111828201881017156200013b57600080fd5b82525081516020918201929091019080838360005b838110156200016a57818101518382015260200162000150565b50505050905090810190601f168015620001985780820380516001836020036101000a031916815260200191505b50604052505081518291508390620001b890600390602085019062000337565b508051620001ce90600490602084019062000337565b50506005805460ff1916601217905550620001f46000336001600160e01b03620001fc16565b5050620003d9565b6200021182826001600160e01b036200021516565b5050565b60008281526006602090815260409091206200023c918390620010de62000299821b17901c565b156200021157620002556001600160e01b03620002c216565b6001600160a01b0316816001600160a01b0316837f2f8788117e7eff1d82e926ec794901d17c78024a50270940304540a733656f0d60405160405180910390a45050565b6000620002b9836001600160a01b0384166001600160e01b03620002c716565b90505b92915050565b335b90565b6000620002de83836001600160e01b036200031f16565b6200031657508154600181810184556000848152602080822090930184905584548482528286019093526040902091909155620002bc565b506000620002bc565b60009081526001919091016020526040902054151590565b828054600181600116156101000203166002900490600052602060002090601f016020900481019282601f106200037a57805160ff1916838001178555620003aa565b82800160010185558215620003aa579182015b82811115620003aa5782518255916020019190600101906200038d565b50620003b8929150620003bc565b5090565b620002c491905b80821115620003b85760008155600101620003c3565b61156780620003e96000396000f3fe608060405234801561001057600080fd5b506004361061014d5760003560e01c806370a08231116100c3578063a457c2d71161007c578063a457c2d714610421578063a9059cbb1461044d578063ca15c87314610479578063d539139314610496578063d547741f1461049e578063dd62ed3e146104ca5761014d565b806370a08231146103545780639010d07c1461037a57806391d14854146103b957806395d89b41146103e55780639dc29fac146103ed578063a217fddf146104195761014d565b8063282c51f311610115578063282c51f31461027c5780632f2ff15d14610284578063313ce567146102b257806336568abe146102d057806339509351146102fc57806340c10f19146103285761014d565b806306fdde0314610152578063095ea7b3146101cf57806318160ddd1461020f57806323b872dd14610229578063248a9ca31461025f575b600080fd5b61015a6104f8565b6040805160208082528351818301528351919283929083019185019080838360005b8381101561019457818101518382015260200161017c565b50505050905090810190601f1680156101c15780820380516001836020036101000a031916815260200191505b509250505060405180910390f35b6101fb600480360360408110156101e557600080fd5b506001600160a01b03813516906020013561058e565b604080519115158252519081900360200190f35b6102176105ac565b60408051918252519081900360200190f35b6101fb6004803603606081101561023f57600080fd5b506001600160a01b038135811691602081013590911690604001356105b2565b6102176004803603602081101561027557600080fd5b503561063f565b610217610654565b6102b06004803603604081101561029a57600080fd5b50803590602001356001600160a01b0316610677565b005b6102ba6106e3565b6040805160ff9092168252519081900360200190f35b6102b0600480360360408110156102e657600080fd5b50803590602001356001600160a01b03166106ec565b6101fb6004803603604081101561031257600080fd5b506001600160a01b03813516906020013561074d565b6102b06004803603604081101561033e57600080fd5b506001600160a01b0381351690602001356107a1565b6102176004803603602081101561036a57600080fd5b50356001600160a01b0316610810565b61039d6004803603604081101561039057600080fd5b508035906020013561082b565b604080516001600160a01b039092168252519081900360200190f35b6101fb600480360360408110156103cf57600080fd5b50803590602001356001600160a01b0316610850565b61015a61086e565b6102b06004803603604081101561040357600080fd5b506001600160a01b0381351690602001356108cf565b61021761093e565b6101fb6004803603604081101561043757600080fd5b506001600160a01b038135169060200135610943565b6101fb6004803603604081101561046357600080fd5b506001600160a01b0381351690602001356109b1565b6102176004803603602081101561048f57600080fd5b50356109c5565b6102176109dc565b6102b0600480360360408110156104b457600080fd5b50803590602001356001600160a01b03166109ff565b610217600480360360408110156104e057600080fd5b506001600160a01b0381358116916020013516610a58565b60038054604080516020601f60026000196101006001881615020190951694909404938401819004810282018101909252828152606093909290918301828280156105845780601f1061055957610100808354040283529160200191610584565b820191906000526020600020905b81548152906001019060200180831161056757829003601f168201915b5050505050905090565b60006105a261059b610a83565b8484610a87565b5060015b92915050565b60025490565b60006105bf848484610b73565b610635846105cb610a83565b61063085604051806060016040528060288152602001611428602891396001600160a01b038a16600090815260016020526040812090610609610a83565b6001600160a01b03168152602081019190915260400160002054919063ffffffff610cda16565b610a87565b5060019392505050565b60009081526006602052604090206002015490565b604080516a4255524e45525f524f4c4560a81b8152905190819003600b01902081565b60008281526006602052604090206002015461069a90610695610a83565b610850565b6106d55760405162461bcd60e51b815260040180806020018281038252602f81526020018061133b602f913960400191505060405180910390fd5b6106df8282610d71565b5050565b60055460ff1690565b6106f4610a83565b6001600160a01b0316816001600160a01b0316146107435760405162461bcd60e51b815260040180806020018281038252602f815260200180611503602f913960400191505060405180910390fd5b6106df8282610de0565b60006105a261075a610a83565b84610630856001600061076b610a83565b6001600160a01b03908116825260208083019390935260409182016000908120918c16815292529020549063ffffffff610e4f16565b604080516a4d494e5445525f524f4c4560a81b8152905190819003600b0190206107cb9033610850565b6108065760405162461bcd60e51b81526004018080602001828103825260248152602001806114506024913960400191505060405180910390fd5b6106df8282610ea9565b6001600160a01b031660009081526020819052604090205490565b6000828152600660205260408120610849908363ffffffff610fa516565b9392505050565b6000828152600660205260408120610849908363ffffffff610fb116565b60048054604080516020601f60026000196101006001881615020190951694909404938401819004810282018101909252828152606093909290918301828280156105845780601f1061055957610100808354040283529160200191610584565b604080516a4255524e45525f524f4c4560a81b8152905190819003600b0190206108f99033610850565b6109345760405162461bcd60e51b81526004018080602001828103825260248152602001806113d46024913960400191505060405180910390fd5b6106df8282610fc6565b600081565b60006105a2610950610a83565b84610630856040518060600160405280602581526020016114de602591396001600061097a610a83565b6001600160a01b03908116825260208083019390935260409182016000908120918d1681529252902054919063ffffffff610cda16565b60006105a26109be610a83565b8484610b73565b60008181526006602052604081206105a6906110ce565b604080516a4d494e5445525f524f4c4560a81b8152905190819003600b01902081565b600082815260066020526040902060020154610a1d90610695610a83565b6107435760405162461bcd60e51b81526004018080602001828103825260308152602001806113f86030913960400191505060405180910390fd5b6001600160a01b03918216600090815260016020908152604080832093909416825291909152205490565b3390565b6001600160a01b038316610acc5760405162461bcd60e51b81526004018080602001828103825260248152602001806114ba6024913960400191505060405180910390fd5b6001600160a01b038216610b115760405162461bcd60e51b815260040180806020018281038252602281526020018061138c6022913960400191505060405180910390fd5b6001600160a01b03808416600081815260016020908152604080832094871680845294825291829020859055815185815291517f8c5be1e5ebec7d5bd14f71427d1e84f3dd0314c0f7b2291e5b200ac8c7c3b9259281900390910190a3505050565b6001600160a01b038316610bb85760405162461bcd60e51b81526004018080602001828103825260258152602001806114956025913960400191505060405180910390fd5b6001600160a01b038216610bfd5760405162461bcd60e51b81526004018080602001828103825260238152602001806113186023913960400191505060405180910390fd5b610c088383836110d9565b610c4b816040518060600160405280602681526020016113ae602691396001600160a01b038616600090815260208190526040902054919063ffffffff610cda16565b6001600160a01b038085166000908152602081905260408082209390935590841681522054610c80908263ffffffff610e4f16565b6001600160a01b038084166000818152602081815260409182902094909455805185815290519193928716927fddf252ad1be2c89b69c2b068fc378daa952ba7f163c4a11628f55a4df523b3ef92918290030190a3505050565b60008184841115610d695760405162461bcd60e51b81526004018080602001828103825283818151815260200191508051906020019080838360005b83811015610d2e578181015183820152602001610d16565b50505050905090810190601f168015610d5b5780820380516001836020036101000a031916815260200191505b509250505060405180910390fd5b505050900390565b6000828152600660205260409020610d8f908263ffffffff6110de16565b156106df57610d9c610a83565b6001600160a01b0316816001600160a01b0316837f2f8788117e7eff1d82e926ec794901d17c78024a50270940304540a733656f0d60405160405180910390a45050565b6000828152600660205260409020610dfe908263ffffffff6110f316565b156106df57610e0b610a83565b6001600160a01b0316816001600160a01b0316837ff6391f5c32d9c69d2a47ea670b442974b53935d1edc7fd64eb21e047a839171b60405160405180910390a45050565b600082820183811015610849576040805162461bcd60e51b815260206004820152601b60248201527f536166654d6174683a206164646974696f6e206f766572666c6f770000000000604482015290519081900360640190fd5b6001600160a01b038216610f04576040805162461bcd60e51b815260206004820152601f60248201527f45524332303a206d696e7420746f20746865207a65726f206164647265737300604482015290519081900360640190fd5b610f10600083836110d9565b600254610f23908263ffffffff610e4f16565b6002556001600160a01b038216600090815260208190526040902054610f4f908263ffffffff610e4f16565b6001600160a01b0383166000818152602081815260408083209490945583518581529351929391927fddf252ad1be2c89b69c2b068fc378daa952ba7f163c4a11628f55a4df523b3ef9281900390910190a35050565b60006108498383611108565b6000610849836001600160a01b03841661116c565b6001600160a01b03821661100b5760405162461bcd60e51b81526004018080602001828103825260218152602001806114746021913960400191505060405180910390fd5b611017826000836110d9565b61105a8160405180606001604052806022815260200161136a602291396001600160a01b038516600090815260208190526040902054919063ffffffff610cda16565b6001600160a01b038316600090815260208190526040902055600254611086908263ffffffff61118416565b6002556040805182815290516000916001600160a01b038516917fddf252ad1be2c89b69c2b068fc378daa952ba7f163c4a11628f55a4df523b3ef9181900360200190a35050565b60006105a6826111e1565b505050565b6000610849836001600160a01b0384166111e5565b6000610849836001600160a01b03841661122f565b8154600090821061114a5760405162461bcd60e51b81526004018080602001828103825260228152602001806112f66022913960400191505060405180910390fd5b82600001828154811061115957fe5b9060005260206000200154905092915050565b60009081526001919091016020526040902054151590565b6000828211156111db576040805162461bcd60e51b815260206004820152601e60248201527f536166654d6174683a207375627472616374696f6e206f766572666c6f770000604482015290519081900360640190fd5b50900390565b5490565b60006111f1838361116c565b611227575081546001818101845560008481526020808220909301849055845484825282860190935260409020919091556105a6565b5060006105a6565b600081815260018301602052604081205480156112eb578354600019808301919081019060009087908390811061126257fe5b906000526020600020015490508087600001848154811061127f57fe5b6000918252602080832090910192909255828152600189810190925260409020908401905586548790806112af57fe5b600190038181906000526020600020016000905590558660010160008781526020019081526020016000206000905560019450505050506105a6565b60009150506105a656fe456e756d657261626c655365743a20696e646578206f7574206f6620626f756e647345524332303a207472616e7366657220746f20746865207a65726f2061646472657373416363657373436f6e74726f6c3a2073656e646572206d75737420626520616e2061646d696e20746f206772616e7445524332303a206275726e20616d6f756e7420657863656564732062616c616e636545524332303a20617070726f766520746f20746865207a65726f206164647265737345524332303a207472616e7366657220616d6f756e7420657863656564732062616c616e636552656365697074546f6b656e3a2043616c6c6572206973206e6f742061206275726e6572416363657373436f6e74726f6c3a2073656e646572206d75737420626520616e2061646d696e20746f207265766f6b6545524332303a207472616e7366657220616d6f756e74206578636565647320616c6c6f77616e636552656365697074546f6b656e3a2043616c6c6572206973206e6f742061206d696e74657245524332303a206275726e2066726f6d20746865207a65726f206164647265737345524332303a207472616e736665722066726f6d20746865207a65726f206164647265737345524332303a20617070726f76652066726f6d20746865207a65726f206164647265737345524332303a2064656372656173656420616c6c6f77616e63652062656c6f77207a65726f416363657373436f6e74726f6c3a2063616e206f6e6c792072656e6f756e636520726f6c657320666f722073656c66a26469706673582212209494d370712ac8e313b476df2366f034fff06f1ff70a1d4e47e6bf9293e9f72464736f6c63430006060033",
  "immutableReferences": {},
  "source": "pragma solidity ^0.6.2;\r\n\r\nimport \"@openzeppelin/contracts/access/AccessControl.sol\";\r\nimport \"@openzeppelin/contracts/token/ERC20/ERC20.sol\";\r\n\r\ncontract ReceiptToken is ERC20, AccessControl {\r\n    bytes32 public constant MINTER_ROLE = keccak256(\"MINTER_ROLE\");\r\n    bytes32 public constant BURNER_ROLE = keccak256(\"BURNER_ROLE\");\r\n\r\n    constructor(string memory _tokenName, string memory _tokenSymbol)\r\n        public\r\n        ERC20(_tokenSymbol, _tokenName)\r\n    {\r\n        // Grant the contract deployer the default admin role: it will be able\r\n        // to grant and revoke any roles\r\n        _setupRole(DEFAULT_ADMIN_ROLE, msg.sender);\r\n    }\r\n\r\n    function mint(address to, uint256 amount) public {\r\n        require(\r\n            hasRole(MINTER_ROLE, msg.sender),\r\n            \"ReceiptToken: Caller is not a minter\"\r\n        );\r\n        _mint(to, amount);\r\n    }\r\n\r\n    function burn(address from, uint256 amount) public {\r\n        require(\r\n            hasRole(BURNER_ROLE, msg.sender),\r\n            \"ReceiptToken: Caller is not a burner\"\r\n        );\r\n        _burn(from, amount);\r\n    }\r\n}\r\n",
  "sourcePath": "D:\\Data\\4. Coding\\Solidity\\Nakamoto\\Tinfoil finance\\contracts\\ReceiptToken.sol",
  "compiler": {
    "name": "solc",
    "version": "0.6.6+commit.6c089d02.Emscripten.clang"
  },
  "schemaVersion": "3.3.3",
  "updatedAt": "2021-02-15T13:38:07.521Z",
  "devdoc": {
    "methods": {
      "allowance(address,address)": {
        "details": "See {IERC20-allowance}."
      },
      "approve(address,uint256)": {
        "details": "See {IERC20-approve}.     * Requirements:     * - `spender` cannot be the zero address."
      },
      "balanceOf(address)": {
        "details": "See {IERC20-balanceOf}."
      },
      "decimals()": {
        "details": "Returns the number of decimals used to get its user representation. For example, if `decimals` equals `2`, a balance of `505` tokens should be displayed to a user as `5,05` (`505 / 10 ** 2`).     * Tokens usually opt for a value of 18, imitating the relationship between Ether and Wei. This is the value {ERC20} uses, unless {_setupDecimals} is called.     * NOTE: This information is only used for _display_ purposes: it in no way affects any of the arithmetic of the contract, including {IERC20-balanceOf} and {IERC20-transfer}."
      },
      "decreaseAllowance(address,uint256)": {
        "details": "Atomically decreases the allowance granted to `spender` by the caller.     * This is an alternative to {approve} that can be used as a mitigation for problems described in {IERC20-approve}.     * Emits an {Approval} event indicating the updated allowance.     * Requirements:     * - `spender` cannot be the zero address. - `spender` must have allowance for the caller of at least `subtractedValue`."
      },
      "getRoleAdmin(bytes32)": {
        "details": "Returns the admin role that controls `role`. See {grantRole} and {revokeRole}.     * To change a role's admin, use {_setRoleAdmin}."
      },
      "getRoleMember(bytes32,uint256)": {
        "details": "Returns one of the accounts that have `role`. `index` must be a value between 0 and {getRoleMemberCount}, non-inclusive.     * Role bearers are not sorted in any particular way, and their ordering may change at any point.     * WARNING: When using {getRoleMember} and {getRoleMemberCount}, make sure you perform all queries on the same block. See the following https://forum.openzeppelin.com/t/iterating-over-elements-on-enumerableset-in-openzeppelin-contracts/2296[forum post] for more information."
      },
      "getRoleMemberCount(bytes32)": {
        "details": "Returns the number of accounts that have `role`. Can be used together with {getRoleMember} to enumerate all bearers of a role."
      },
      "grantRole(bytes32,address)": {
        "details": "Grants `role` to `account`.     * If `account` had not been already granted `role`, emits a {RoleGranted} event.     * Requirements:     * - the caller must have ``role``'s admin role."
      },
      "hasRole(bytes32,address)": {
        "details": "Returns `true` if `account` has been granted `role`."
      },
      "increaseAllowance(address,uint256)": {
        "details": "Atomically increases the allowance granted to `spender` by the caller.     * This is an alternative to {approve} that can be used as a mitigation for problems described in {IERC20-approve}.     * Emits an {Approval} event indicating the updated allowance.     * Requirements:     * - `spender` cannot be the zero address."
      },
      "name()": {
        "details": "Returns the name of the token."
      },
      "renounceRole(bytes32,address)": {
        "details": "Revokes `role` from the calling account.     * Roles are often managed via {grantRole} and {revokeRole}: this function's purpose is to provide a mechanism for accounts to lose their privileges if they are compromised (such as when a trusted device is misplaced).     * If the calling account had been granted `role`, emits a {RoleRevoked} event.     * Requirements:     * - the caller must be `account`."
      },
      "revokeRole(bytes32,address)": {
        "details": "Revokes `role` from `account`.     * If `account` had been granted `role`, emits a {RoleRevoked} event.     * Requirements:     * - the caller must have ``role``'s admin role."
      },
      "symbol()": {
        "details": "Returns the symbol of the token, usually a shorter version of the name."
      },
      "totalSupply()": {
        "details": "See {IERC20-totalSupply}."
      },
      "transfer(address,uint256)": {
        "details": "See {IERC20-transfer}.     * Requirements:     * - `recipient` cannot be the zero address. - the caller must have a balance of at least `amount`."
      },
      "transferFrom(address,address,uint256)": {
        "details": "See {IERC20-transferFrom}.     * Emits an {Approval} event indicating the updated allowance. This is not required by the EIP. See the note at the beginning of {ERC20}.     * Requirements:     * - `sender` and `recipient` cannot be the zero address. - `sender` must have a balance of at least `amount`. - the caller must have allowance for ``sender``'s tokens of at least `amount`."
      }
    }
  },
  "userdoc": {
    "methods": {}
  }
}