{
  "contractName": "TokenGeyserManager",
  "abi": [
    {
      "inputs": [],
      "stateMutability": "nonpayable",
      "type": "constructor"
    },
    {
      "anonymous": false,
      "inputs": [
        {
          "indexed": true,
          "internalType": "address",
          "name": "sender",
          "type": "address"
        },
        {
          "indexed": true,
          "internalType": "address",
          "name": "geyser",
          "type": "address"
        },
        {
          "indexed": false,
          "internalType": "address",
          "name": "token",
          "type": "address"
        }
      ],
      "name": "GeyserAdded",
      "type": "event"
    },
    {
      "anonymous": false,
      "inputs": [
        {
          "indexed": true,
          "internalType": "address",
          "name": "sender",
          "type": "address"
        },
        {
          "indexed": true,
          "internalType": "address",
          "name": "geyserManager",
          "type": "address"
        }
      ],
      "name": "GeyserManagerCreated",
      "type": "event"
    },
    {
      "anonymous": false,
      "inputs": [
        {
          "indexed": true,
          "internalType": "address",
          "name": "previousOwner",
          "type": "address"
        },
        {
          "indexed": true,
          "internalType": "address",
          "name": "newOwner",
          "type": "address"
        }
      ],
      "name": "OwnershipTransferred",
      "type": "event"
    },
    {
      "anonymous": false,
      "inputs": [
        {
          "indexed": true,
          "internalType": "address",
          "name": "sender",
          "type": "address"
        },
        {
          "indexed": true,
          "internalType": "address",
          "name": "token",
          "type": "address"
        },
        {
          "indexed": false,
          "internalType": "uint256",
          "name": "amount",
          "type": "uint256"
        }
      ],
      "name": "Staked",
      "type": "event"
    },
    {
      "anonymous": false,
      "inputs": [
        {
          "indexed": true,
          "internalType": "address",
          "name": "sender",
          "type": "address"
        },
        {
          "indexed": true,
          "internalType": "address",
          "name": "token",
          "type": "address"
        },
        {
          "indexed": false,
          "internalType": "uint256",
          "name": "amount",
          "type": "uint256"
        }
      ],
      "name": "Unstaked",
      "type": "event"
    },
    {
      "inputs": [
        {
          "internalType": "address",
          "name": "",
          "type": "address"
        }
      ],
      "name": "geysers",
      "outputs": [
        {
          "internalType": "address",
          "name": "",
          "type": "address"
        }
      ],
      "stateMutability": "view",
      "type": "function",
      "constant": true
    },
    {
      "inputs": [],
      "name": "owner",
      "outputs": [
        {
          "internalType": "address",
          "name": "",
          "type": "address"
        }
      ],
      "stateMutability": "view",
      "type": "function",
      "constant": true
    },
    {
      "inputs": [],
      "name": "renounceOwnership",
      "outputs": [],
      "stateMutability": "nonpayable",
      "type": "function"
    },
    {
      "inputs": [
        {
          "internalType": "uint256",
          "name": "",
          "type": "uint256"
        }
      ],
      "name": "tokens",
      "outputs": [
        {
          "internalType": "address",
          "name": "",
          "type": "address"
        }
      ],
      "stateMutability": "view",
      "type": "function",
      "constant": true
    },
    {
      "inputs": [
        {
          "internalType": "address",
          "name": "newOwner",
          "type": "address"
        }
      ],
      "name": "transferOwnership",
      "outputs": [],
      "stateMutability": "nonpayable",
      "type": "function"
    },
    {
      "inputs": [
        {
          "internalType": "address",
          "name": "token",
          "type": "address"
        },
        {
          "internalType": "address",
          "name": "geyser",
          "type": "address"
        }
      ],
      "name": "addGeyser",
      "outputs": [
        {
          "internalType": "bool",
          "name": "",
          "type": "bool"
        }
      ],
      "stateMutability": "nonpayable",
      "type": "function"
    },
    {
      "inputs": [
        {
          "internalType": "address",
          "name": "token",
          "type": "address"
        }
      ],
      "name": "getEarned",
      "outputs": [
        {
          "internalType": "uint256",
          "name": "",
          "type": "uint256"
        }
      ],
      "stateMutability": "view",
      "type": "function",
      "constant": true
    },
    {
      "inputs": [],
      "name": "getEarnings",
      "outputs": [
        {
          "internalType": "address[]",
          "name": "",
          "type": "address[]"
        },
        {
          "internalType": "uint256[]",
          "name": "",
          "type": "uint256[]"
        }
      ],
      "stateMutability": "view",
      "type": "function",
      "constant": true
    },
    {
      "inputs": [
        {
          "internalType": "address",
          "name": "token",
          "type": "address"
        }
      ],
      "name": "getStake",
      "outputs": [
        {
          "internalType": "uint256",
          "name": "",
          "type": "uint256"
        }
      ],
      "stateMutability": "view",
      "type": "function",
      "constant": true
    },
    {
      "inputs": [],
      "name": "getStakes",
      "outputs": [
        {
          "internalType": "address[]",
          "name": "",
          "type": "address[]"
        },
        {
          "internalType": "uint256[]",
          "name": "",
          "type": "uint256[]"
        }
      ],
      "stateMutability": "view",
      "type": "function",
      "constant": true
    },
    {
      "inputs": [
        {
          "internalType": "address[]",
          "name": "_tokens",
          "type": "address[]"
        },
        {
          "internalType": "uint256[]",
          "name": "amounts",
          "type": "uint256[]"
        }
      ],
      "name": "stake",
      "outputs": [
        {
          "internalType": "bool",
          "name": "",
          "type": "bool"
        }
      ],
      "stateMutability": "nonpayable",
      "type": "function"
    },
    {
      "inputs": [
        {
          "internalType": "address[]",
          "name": "_tokens",
          "type": "address[]"
        },
        {
          "internalType": "uint256[]",
          "name": "amounts",
          "type": "uint256[]"
        }
      ],
      "name": "unstake",
      "outputs": [],
      "stateMutability": "nonpayable",
      "type": "function"
    }
  ],
  "bytecode": "0x608060405234801561001057600080fd5b5060006100246001600160e01b036100a016565b600080546001600160a01b0319166001600160a01b0383169081178255604051929350917f8be0079c531659141344cd1fd0a4f28419497f9722a3daafe3b4186f6b6457e0908290a350604051309033907fc067bb78b4f9199578c7aafc32f47d63c89b88b2eac29beefcf9b687d81522bf90600090a36100a4565b3390565b611528806100b36000396000f3fe608060405234801561001057600080fd5b50600436106100b45760003560e01c80638da5cb5b116100715780638da5cb5b146101c257806390666232146101ca578063bcca1e041461026b578063cf86add514610329578063df4b4776146103e7578063f2fde38b146103ef576100b4565b80634f64b2be146100b9578063715018a6146100f257806374cb4e77146100fc5780637a7664601461013e5780638611ef0f146101765780638620612b1461019c575b600080fd5b6100d6600480360360208110156100cf57600080fd5b5035610415565b604080516001600160a01b039092168252519081900360200190f35b6100fa61043c565b005b61012a6004803603604081101561011257600080fd5b506001600160a01b03813581169160200135166104fa565b604080519115158252519081900360200190f35b6101646004803603602081101561015457600080fd5b50356001600160a01b03166106a3565b60408051918252519081900360200190f35b6100d66004803603602081101561018c57600080fd5b50356001600160a01b031661072d565b610164600480360360208110156101b257600080fd5b50356001600160a01b0316610748565b6100d66107a0565b6101d26107af565b604051808060200180602001838103835285818151815260200191508051906020019060200280838360005b838110156102165781810151838201526020016101fe565b50505050905001838103825284818151815260200191508051906020019060200280838360005b8381101561025557818101518382015260200161023d565b5050505090500194505050505060405180910390f35b6100fa6004803603604081101561028157600080fd5b810190602081018135600160201b81111561029b57600080fd5b8201836020820111156102ad57600080fd5b803590602001918460208302840111600160201b831117156102ce57600080fd5b919390929091602081019035600160201b8111156102eb57600080fd5b8201836020820111156102fd57600080fd5b803590602001918460208302840111600160201b8311171561031e57600080fd5b509092509050610986565b61012a6004803603604081101561033f57600080fd5b810190602081018135600160201b81111561035957600080fd5b82018360208201111561036b57600080fd5b803590602001918460208302840111600160201b8311171561038c57600080fd5b919390929091602081019035600160201b8111156103a957600080fd5b8201836020820111156103bb57600080fd5b803590602001918460208302840111600160201b831117156103dc57600080fd5b509092509050610ba3565b6101d26110ee565b6100fa6004803603602081101561040557600080fd5b50356001600160a01b03166112bb565b6002818154811061042257fe5b6000918252602090912001546001600160a01b0316905081565b6104446113cf565b6001600160a01b03166104556107a0565b6001600160a01b0316146104b0576040805162461bcd60e51b815260206004820181905260248201527f4f776e61626c653a2063616c6c6572206973206e6f7420746865206f776e6572604482015290519081900360640190fd5b600080546040516001600160a01b03909116907f8be0079c531659141344cd1fd0a4f28419497f9722a3daafe3b4186f6b6457e0908390a3600080546001600160a01b0319169055565b60006105046113cf565b6001600160a01b03166105156107a0565b6001600160a01b031614610570576040805162461bcd60e51b815260206004820181905260248201527f4f776e61626c653a2063616c6c6572206973206e6f7420746865206f776e6572604482015290519081900360640190fd5b6001600160a01b0383166105b55760405162461bcd60e51b81526004018080602001828103825260248152602001806114456024913960400191505060405180910390fd5b6001600160a01b0382166105fa5760405162461bcd60e51b81526004018080602001828103825260258152602001806113fa6025913960400191505060405180910390fd5b6002805460018181019092557f405787fa12a823e0f2b7631cc41b3ba8828b3321ca811111fa75cd3aa3bb5ace0180546001600160a01b038087166001600160a01b0319928316811790935560008381526020948552604090819020805492881692909316821790925581519283529051909233927f3ba9c5acb9d2dd40d1bbb4afea6340e05534233096ae5773ab6c5a3d03aa14ba929081900390910190a350600192915050565b6001600160a01b038082166000908152600160209081526040808320548151634b341aed60e01b8152336004820152915193941692634b341aed92602480840193919291829003018186803b1580156106fb57600080fd5b505afa15801561070f573d6000803e3d6000fd5b505050506040513d602081101561072557600080fd5b505192915050565b6001602052600090815260409020546001600160a01b031681565b6001600160a01b0380821660009081526001602090815260408083205481516304c6e70160e21b815233600482015291519394169263131b9c0492602480840193919291829003018186803b1580156106fb57600080fd5b6000546001600160a01b031690565b606080606060028054905067ffffffffffffffff811180156107d057600080fd5b506040519080825280602002602001820160405280156107fa578160200160208202803683370190505b5060025490915060609067ffffffffffffffff8111801561081a57600080fd5b50604051908082528060200260200182016040528015610844578160200160208202803683370190505b50905060005b60025460ff8216101561097c5760028160ff168154811061086757fe5b9060005260206000200160009054906101000a90046001600160a01b0316838260ff168151811061089457fe5b60200260200101906001600160a01b031690816001600160a01b0316815250506001600060028360ff16815481106108c857fe5b60009182526020808320909101546001600160a01b0390811684528382019490945260409283019091205482516304c6e70160e21b8152336004820152925193169263131b9c04926024808201939291829003018186803b15801561092c57600080fd5b505afa158015610940573d6000803e3d6000fd5b505050506040513d602081101561095657600080fd5b50518251839060ff841690811061096957fe5b602090810291909101015260010161084a565b5090925090509091565b6002546109c45760405162461bcd60e51b815260040180806020018281038252602481526020018061148d6024913960400191505060405180910390fd5b80610a005760405162461bcd60e51b81526004018080602001828103825260248152602001806114696024913960400191505060405180910390fd5b828114610a3e5760405162461bcd60e51b81526004018080602001828103825260428152602001806114b16042913960600191505060405180910390fd5b60005b60ff8116841115610b9c576001600086868460ff16818110610a5f57fe5b6001600160a01b03602091820293909301358316845283019390935260409091016000205416905063c4113b8833858560ff8616818110610a9c57fe5b604080516001600160e01b031960e088901b1681526001600160a01b0390951660048601526020909102929092013560248401525060606044830152600060648301819052905160a48084019382900301818387803b158015610afe57600080fd5b505af1158015610b12573d6000803e3d6000fd5b5050505084848260ff16818110610b2557fe5b905060200201356001600160a01b03166001600160a01b0316336001600160a01b03167fd8654fcc8cf5b36d30b3f5e4688fc78118e6d68de60b9994e09902268b57c3e385858560ff16818110610b7857fe5b905060200201356040518082815260200191505060405180910390a3600101610a41565b5050505050565b600254600090610be45760405162461bcd60e51b815260040180806020018281038252602481526020018061148d6024913960400191505060405180910390fd5b81610c205760405162461bcd60e51b81526004018080602001828103825260248152602001806114696024913960400191505060405180910390fd5b838214610c5e5760405162461bcd60e51b81526004018080602001828103825260428152602001806114b16042913960600191505060405180910390fd5b60005b60ff8116851115610f8f57600086868360ff16818110610c7d57fe5b905060200201356001600160a01b031690506000816001600160a01b03166370a08231336040518263ffffffff1660e01b815260040180826001600160a01b03166001600160a01b0316815260200191505060206040518083038186803b158015610ce757600080fd5b505afa158015610cfb573d6000803e3d6000fd5b505050506040513d6020811015610d1157600080fd5b505190506000868660ff8616818110610d2657fe5b9050602002013590506060836001600160a01b03166306fdde036040518163ffffffff1660e01b815260040160006040518083038186803b158015610d6a57600080fd5b505afa158015610d7e573d6000803e3d6000fd5b505050506040513d6000823e601f3d908101601f191682016040526020811015610da757600080fd5b8101908080516040519392919084600160201b821115610dc657600080fd5b908301906020820185811115610ddb57600080fd5b8251600160201b811182820188101715610df457600080fd5b82525081516020918201929091019080838360005b83811015610e21578181015183820152602001610e09565b50505050905090810190601f168015610e4e5780820380516001836020036101000a031916815260200191505b506040525050509050818310158160405160200180807f546f6b656e4765797365724d616e616765723a20546f6b656e20000000000000815250601a0182805190602001908083835b60208310610eb65780518252601f199092019160209182019101610e97565b6001836020036101000a038019825116818451168082178552505050505050905001806113d46026913960260191505060405160208183030381529060405290610f7e5760405162461bcd60e51b81526004018080602001828103825283818151815260200191508051906020019080838360005b83811015610f43578181015183820152602001610f2b565b50505050905090810190601f168015610f705780820380516001836020036101000a031916815260200191505b509250505060405180910390fd5b505060019093019250610c61915050565b5060005b60ff81168511156110e2576001600087878460ff16818110610fb157fe5b6001600160a01b036020918202939093013583168452830193909352604090910160002054169050633e12170f33868660ff8616818110610fee57fe5b604080516001600160e01b031960e088901b1681526001600160a01b0390951660048601526020909102929092013560248401525060606044830152600060648301819052905160a48084019382900301818387803b15801561105057600080fd5b505af1158015611064573d6000803e3d6000fd5b5050505060028160ff168154811061107857fe5b6000918252602090912001546001600160a01b0316337f5dac0c1b1112564a045ba943c9d50270893e8e826c49be8e7073adc713ab7bd7868660ff86168181106110be57fe5b905060200201356040518082815260200191505060405180910390a3600101610f93565b50600195945050505050565b606080606060028054905067ffffffffffffffff8111801561110f57600080fd5b50604051908082528060200260200182016040528015611139578160200160208202803683370190505b5060025490915060609067ffffffffffffffff8111801561115957600080fd5b50604051908082528060200260200182016040528015611183578160200160208202803683370190505b50905060005b60025460ff8216101561097c5760028160ff16815481106111a657fe5b9060005260206000200160009054906101000a90046001600160a01b0316838260ff16815181106111d357fe5b60200260200101906001600160a01b031690816001600160a01b0316815250506001600060028360ff168154811061120757fe5b60009182526020808320909101546001600160a01b039081168452838201949094526040928301909120548251634b341aed60e01b81523360048201529251931692634b341aed926024808201939291829003018186803b15801561126b57600080fd5b505afa15801561127f573d6000803e3d6000fd5b505050506040513d602081101561129557600080fd5b50518251839060ff84169081106112a857fe5b6020908102919091010152600101611189565b6112c36113cf565b6001600160a01b03166112d46107a0565b6001600160a01b03161461132f576040805162461bcd60e51b815260206004820181905260248201527f4f776e61626c653a2063616c6c6572206973206e6f7420746865206f776e6572604482015290519081900360640190fd5b6001600160a01b0381166113745760405162461bcd60e51b815260040180806020018281038252602681526020018061141f6026913960400191505060405180910390fd5b600080546040516001600160a01b03808516939216917f8be0079c531659141344cd1fd0a4f28419497f9722a3daafe3b4186f6b6457e091a3600080546001600160a01b0319166001600160a01b0392909216919091179055565b339056fe2062616c616e6365206973206c6f776572207468616e2074686520616d6f756e742073656e74546f6b656e4765797365724d616e616765723a2067657973657220697320696e76616c69644f776e61626c653a206e6577206f776e657220697320746865207a65726f2061646472657373546f6b656e4765797365724d616e616765723a20746f6b656e20697320696e76616c6964546f6b656e4765797365724d616e616765723a20616d6f756e747320697320656d707479546f6b656e4765797365724d616e616765723a205f746f6b656e7320697320656d707479546f6b656e4765797365724d616e616765723a20746f6b656e7320616e6420616d6f756e7473206e65656420746f20206265207468652073616d65206c656e677468a2646970667358221220ad619dc545c453634fa8bcf7d0a68ca7aeb7d03bbf9db5810622b3f081fb344e64736f6c63430006060033",
  "immutableReferences": {},
  "source": "// SPDX-License-Identifier: MIT\r\npragma solidity ^0.6.0;\r\n\r\nimport \"./interfaces/ITokenGeyserManager.sol\";\r\nimport \"./TokenGeyser.sol\";\r\nimport \"@openzeppelin/contracts/token/ERC20/ERC20.sol\";\r\nimport \"@openzeppelin/contracts/access/Ownable.sol\";\r\n\r\n/** @title Token Geyser Manager */\r\ncontract TokenGeyserManager is Ownable, ITokenGeyserManager {\r\n    mapping(address => address) public geysers;\r\n    address[] public tokens;\r\n\r\n    /**\r\n       @dev Creates an empty Geyser token managers\r\n    \r\n     */\r\n    constructor() public {\r\n        emit GeyserManagerCreated(msg.sender, address(this));\r\n    }\r\n\r\n    /**\r\n        @dev Adds a new geyser in the team\r\n        @param token - address of the staking token for which the geyser was created\r\n        @param geyser - address of the geyser\r\n     */\r\n    function addGeyser(address token, address geyser)\r\n        public\r\n        override\r\n        onlyOwner\r\n        returns (bool)\r\n    {\r\n        require(token != address(0), \"TokenGeyserManager: token is invalid\");\r\n        require(geyser != address(0), \"TokenGeyserManager: geyser is invalid\");\r\n\r\n        tokens.push(token);\r\n        geysers[token] = geyser;\r\n\r\n        emit GeyserAdded(msg.sender, geyser, token);\r\n        return true;\r\n    }\r\n\r\n    /**\r\n        @dev Retrieves total rewards earned for a specific staking token\r\n        @param token - address of the ERC20 token\r\n    */\r\n    function getEarned(address token) public view override returns (uint256) {\r\n        return TokenGeyser(geysers[token]).getEarnings(msg.sender);\r\n    }\r\n\r\n    /**\r\n        @dev Retrieves total rewards earned for all the staking tokens\r\n    */\r\n    function getEarnings()\r\n        public\r\n        view\r\n        override\r\n        returns (address[] memory, uint256[] memory)\r\n    {\r\n        address[] memory addresses = new address[](tokens.length);\r\n        uint256[] memory amounts = new uint256[](tokens.length);\r\n\r\n        for (uint8 i = 0; i < tokens.length; i++) {\r\n            addresses[i] = tokens[i];\r\n            amounts[i] = TokenGeyser(geysers[tokens[i]]).getEarnings(\r\n                msg.sender\r\n            );\r\n        }\r\n\r\n        return (addresses, amounts);\r\n    }\r\n\r\n    /**\r\n        @dev Retrieves staked amount for a specific token address\r\n        @param token - address of the ERC20 token\r\n    */\r\n    function getStake(address token) public view override returns (uint256) {\r\n        return TokenGeyser(geysers[token]).totalStakedFor(msg.sender);\r\n    }\r\n\r\n    /**\r\n        @dev Retrieves all stakes for sender\r\n     */\r\n    function getStakes()\r\n        public\r\n        view\r\n        override\r\n        returns (address[] memory, uint256[] memory)\r\n    {\r\n        address[] memory addresses = new address[](tokens.length);\r\n        uint256[] memory amounts = new uint256[](tokens.length);\r\n\r\n        for (uint8 i = 0; i < tokens.length; i++) {\r\n            addresses[i] = tokens[i];\r\n            amounts[i] = TokenGeyser(geysers[tokens[i]]).totalStakedFor(\r\n                msg.sender\r\n            );\r\n        }\r\n\r\n        return (addresses, amounts);\r\n    }\r\n\r\n    /**\r\n        @dev Stakes all tokens sent\r\n        @param _tokens - array of tokens' addresses you want to stake\r\n        @param amounts - stake amount you want for each token\r\n     */\r\n    function stake(\r\n        address[] calldata _tokens,\r\n        uint256[] calldata amounts\r\n    ) external override returns (bool) {\r\n        //validation\r\n        require(tokens.length > 0, \"TokenGeyserManager: _tokens is empty\");\r\n        require(amounts.length > 0, \"TokenGeyserManager: amounts is empty\");\r\n        require(\r\n            _tokens.length == amounts.length,\r\n            \"TokenGeyserManager: tokens and amounts need to  be the same length\"\r\n        );\r\n\r\n        for (uint8 i = 0; i < _tokens.length; i++) {\r\n            ERC20 currentToken = ERC20(_tokens[i]);\r\n            uint256 currentTokenBalance = currentToken.balanceOf(msg.sender);\r\n            uint256 sentAmount = amounts[i];\r\n            string memory tokenName = currentToken.name();\r\n\r\n            require(\r\n                currentTokenBalance >= sentAmount,\r\n                string(\r\n                    abi.encodePacked(\r\n                        \"TokenGeyserManager: Token \",\r\n                        tokenName,\r\n                        \" balance is lower than the amount sent\"\r\n                    )\r\n                )\r\n            );\r\n        }\r\n        //actions\r\n        for (uint8 i = 0; i < _tokens.length; i++) {\r\n            TokenGeyser(geysers[_tokens[i]]).stake(msg.sender, amounts[i], \"\");\r\n\r\n            emit Staked(msg.sender, tokens[i], amounts[i]);\r\n        }\r\n\r\n        return true;\r\n    }\r\n\r\n    /**\r\n        @dev Unstakes all tokens sent\r\n        @param _tokens - array of tokens' addresses you want to unstake\r\n        @param amounts - unstake amount you want for each token\r\n     */\r\n    function unstake(address[] calldata _tokens, uint256[] calldata amounts)\r\n        external\r\n        override\r\n    {\r\n        //validation\r\n        require(tokens.length > 0, \"TokenGeyserManager: _tokens is empty\");\r\n        require(amounts.length > 0, \"TokenGeyserManager: amounts is empty\");\r\n        require(\r\n            _tokens.length == amounts.length,\r\n            \"TokenGeyserManager: tokens and amounts need to  be the same length\"\r\n        );\r\n\r\n        for (uint8 i = 0; i < _tokens.length; i++) {\r\n            TokenGeyser(geysers[_tokens[i]]).unstake(\r\n                msg.sender,\r\n                amounts[i],\r\n                \"\"\r\n            );\r\n\r\n            emit Unstaked(msg.sender, _tokens[i], amounts[i]);\r\n        }\r\n    }\r\n}\r\n",
  "sourcePath": "D:/Data/4. Coding/Solidity/Nakamoto/Tinfoil finance/contracts/TokenGeyserManager.sol",
  "compiler": {
    "name": "solc",
    "version": "0.6.6+commit.6c089d02.Emscripten.clang"
  },
  "schemaVersion": "3.3.3",
  "updatedAt": "2021-02-11T00:17:39.110Z",
  "networkType": "ethereum",
  "devdoc": {
    "methods": {
      "addGeyser(address,address)": {
        "details": "Adds a new geyser in the team",
        "params": {
          "geyser": "- address of the geyser",
          "token": "- address of the staking token for which the geyser was created"
        }
      },
      "constructor": {
        "details": "Creates an empty Geyser token managers"
      },
      "getEarned(address)": {
        "details": "Retrieves total rewards earned for a specific staking token",
        "params": {
          "token": "- address of the ERC20 token"
        }
      },
      "getEarnings()": {
        "details": "Retrieves total rewards earned for all the staking tokens"
      },
      "getStake(address)": {
        "details": "Retrieves staked amount for a specific token address",
        "params": {
          "token": "- address of the ERC20 token"
        }
      },
      "getStakes()": {
        "details": "Retrieves all stakes for sender"
      },
      "owner()": {
        "details": "Returns the address of the current owner."
      },
      "renounceOwnership()": {
        "details": "Leaves the contract without owner. It will not be possible to call `onlyOwner` functions anymore. Can only be called by the current owner.     * NOTE: Renouncing ownership will leave the contract without an owner, thereby removing any functionality that is only available to the owner."
      },
      "stake(address[],uint256[])": {
        "details": "Stakes all tokens sent",
        "params": {
          "_tokens": "- array of tokens' addresses you want to stake",
          "amounts": "- stake amount you want for each token"
        }
      },
      "transferOwnership(address)": {
        "details": "Transfers ownership of the contract to a new account (`newOwner`). Can only be called by the current owner."
      },
      "unstake(address[],uint256[])": {
        "details": "Unstakes all tokens sent",
        "params": {
          "_tokens": "- array of tokens' addresses you want to unstake",
          "amounts": "- unstake amount you want for each token"
        }
      }
    },
    "title": "Token Geyser Manager "
  },
  "userdoc": {
    "methods": {}
  }
}