{
  "contractName": "TokenPool",
  "abi": [
    {
      "inputs": [
        {
          "internalType": "contract IERC20",
          "name": "_token",
          "type": "address"
        }
      ],
      "stateMutability": "nonpayable",
      "type": "constructor"
    },
    {
      "anonymous": false,
      "inputs": [
        {
          "indexed": true,
          "internalType": "address",
          "name": "previousOwner",
          "type": "address"
        },
        {
          "indexed": true,
          "internalType": "address",
          "name": "newOwner",
          "type": "address"
        }
      ],
      "name": "OwnershipTransferred",
      "type": "event"
    },
    {
      "inputs": [],
      "name": "owner",
      "outputs": [
        {
          "internalType": "address",
          "name": "",
          "type": "address"
        }
      ],
      "stateMutability": "view",
      "type": "function"
    },
    {
      "inputs": [],
      "name": "renounceOwnership",
      "outputs": [],
      "stateMutability": "nonpayable",
      "type": "function"
    },
    {
      "inputs": [],
      "name": "token",
      "outputs": [
        {
          "internalType": "contract IERC20",
          "name": "",
          "type": "address"
        }
      ],
      "stateMutability": "view",
      "type": "function"
    },
    {
      "inputs": [
        {
          "internalType": "address",
          "name": "newOwner",
          "type": "address"
        }
      ],
      "name": "transferOwnership",
      "outputs": [],
      "stateMutability": "nonpayable",
      "type": "function"
    },
    {
      "inputs": [],
      "name": "balance",
      "outputs": [
        {
          "internalType": "uint256",
          "name": "",
          "type": "uint256"
        }
      ],
      "stateMutability": "view",
      "type": "function"
    },
    {
      "inputs": [
        {
          "internalType": "bool",
          "name": "rescuable",
          "type": "bool"
        }
      ],
      "name": "setRescuable",
      "outputs": [],
      "stateMutability": "nonpayable",
      "type": "function"
    },
    {
      "inputs": [
        {
          "internalType": "address",
          "name": "to",
          "type": "address"
        },
        {
          "internalType": "uint256",
          "name": "value",
          "type": "uint256"
        }
      ],
      "name": "transfer",
      "outputs": [
        {
          "internalType": "bool",
          "name": "",
          "type": "bool"
        }
      ],
      "stateMutability": "nonpayable",
      "type": "function"
    },
    {
      "inputs": [
        {
          "internalType": "address",
          "name": "tokenToRescue",
          "type": "address"
        },
        {
          "internalType": "address",
          "name": "to",
          "type": "address"
        },
        {
          "internalType": "uint256",
          "name": "amount",
          "type": "uint256"
        }
      ],
      "name": "rescueFunds",
      "outputs": [
        {
          "internalType": "bool",
          "name": "",
          "type": "bool"
        }
      ],
      "stateMutability": "nonpayable",
      "type": "function"
    }
  ],
  "bytecode": "0x608060405234801561001057600080fd5b506040516108263803806108268339818101604052602081101561003357600080fd5b505160006100486001600160e01b036100be16565b600080546001600160a01b0319166001600160a01b0383169081178255604051929350917f8be0079c531659141344cd1fd0a4f28419497f9722a3daafe3b4186f6b6457e0908290a350600180546001600160a01b0319166001600160a01b03929092169190911760ff60a01b191690556100c2565b3390565b610755806100d16000396000f3fe608060405234801561001057600080fd5b50600436106100885760003560e01c8063a9059cbb1161005b578063a9059cbb14610124578063b69ef8a814610150578063f2fde38b1461016a578063fc0c546a1461019057610088565b80630a9d492d1461008d5780636ccae054146100ae578063715018a6146100f85780638da5cb5b14610100575b600080fd5b6100ac600480360360208110156100a357600080fd5b50351515610198565b005b6100e4600480360360608110156100c457600080fd5b506001600160a01b03813581169160208101359091169060400135610218565b604080519115158252519081900360200190f35b6100ac61036e565b61010861041a565b604080516001600160a01b039092168252519081900360200190f35b6100e46004803603604081101561013a57600080fd5b506001600160a01b038135169060200135610429565b610158610516565b60408051918252519081900360200190f35b6100ac6004803603602081101561018057600080fd5b50356001600160a01b0316610592565b610108610694565b6101a06106a3565b6001600160a01b03166101b161041a565b6001600160a01b0316146101fa576040805162461bcd60e51b815260206004820181905260248201526000805160206106ce833981519152604482015290519081900360640190fd5b60018054911515600160a01b0260ff60a01b19909216919091179055565b60006102226106a3565b6001600160a01b031661023361041a565b6001600160a01b03161461027c576040805162461bcd60e51b815260206004820181905260248201526000805160206106ce833981519152604482015290519081900360640190fd5b600154600160a01b900460ff166102da576001546001600160a01b03858116911614156102da5760405162461bcd60e51b81526004018080602001828103825260328152602001806106ee6032913960400191505060405180910390fd5b836001600160a01b031663a9059cbb84846040518363ffffffff1660e01b815260040180836001600160a01b03166001600160a01b0316815260200182815260200192505050602060405180830381600087803b15801561033a57600080fd5b505af115801561034e573d6000803e3d6000fd5b505050506040513d602081101561036457600080fd5b5051949350505050565b6103766106a3565b6001600160a01b031661038761041a565b6001600160a01b0316146103d0576040805162461bcd60e51b815260206004820181905260248201526000805160206106ce833981519152604482015290519081900360640190fd5b600080546040516001600160a01b03909116907f8be0079c531659141344cd1fd0a4f28419497f9722a3daafe3b4186f6b6457e0908390a3600080546001600160a01b0319169055565b6000546001600160a01b031690565b60006104336106a3565b6001600160a01b031661044461041a565b6001600160a01b03161461048d576040805162461bcd60e51b815260206004820181905260248201526000805160206106ce833981519152604482015290519081900360640190fd5b6001546040805163a9059cbb60e01b81526001600160a01b038681166004830152602482018690529151919092169163a9059cbb9160448083019260209291908290030181600087803b1580156104e357600080fd5b505af11580156104f7573d6000803e3d6000fd5b505050506040513d602081101561050d57600080fd5b50519392505050565b600154604080516370a0823160e01b815230600482015290516000926001600160a01b0316916370a08231916024808301926020929190829003018186803b15801561056157600080fd5b505afa158015610575573d6000803e3d6000fd5b505050506040513d602081101561058b57600080fd5b5051905090565b61059a6106a3565b6001600160a01b03166105ab61041a565b6001600160a01b0316146105f4576040805162461bcd60e51b815260206004820181905260248201526000805160206106ce833981519152604482015290519081900360640190fd5b6001600160a01b0381166106395760405162461bcd60e51b81526004018080602001828103825260268152602001806106a86026913960400191505060405180910390fd5b600080546040516001600160a01b03808516939216917f8be0079c531659141344cd1fd0a4f28419497f9722a3daafe3b4186f6b6457e091a3600080546001600160a01b0319166001600160a01b0392909216919091179055565b6001546001600160a01b031681565b339056fe4f776e61626c653a206e6577206f776e657220697320746865207a65726f20616464726573734f776e61626c653a2063616c6c6572206973206e6f7420746865206f776e6572546f6b656e506f6f6c3a2043616e6e6f7420636c61696d20746f6b656e2068656c642062792074686520636f6e7472616374a2646970667358221220536770ebfdff5981e002146152ff123922ab5a42158109ce2a829434a0f8cf8964736f6c63430006060033",
  "immutableReferences": {},
  "source": "// SPDX-License-Identifier: MIT\r\npragma solidity ^0.6.0;\r\n\r\nimport \"@openzeppelin/contracts/access/Ownable.sol\";\r\nimport \"@openzeppelin/contracts/token/ERC20/ERC20.sol\";\r\n\r\n/**\r\n * @title A simple holder of tokens.\r\n * This is a simple contract to hold tokens. It's useful in the case where a separate contract\r\n * needs to hold multiple distinct pools of the same token.\r\n */\r\ncontract TokenPool is Ownable {\r\n    IERC20 public token;\r\n    bool private _isTokenRescuable;\r\n\r\n    constructor(IERC20 _token) public {\r\n        token = _token;\r\n        _isTokenRescuable = false;\r\n    }\r\n\r\n    function balance() public view returns (uint256) {\r\n        return token.balanceOf(address(this));\r\n    }\r\n\r\n    function setRescuable(bool rescuable) public onlyOwner {\r\n        _isTokenRescuable = rescuable;\r\n    }\r\n\r\n    function transfer(address to, uint256 value)\r\n        external\r\n        onlyOwner\r\n        returns (bool)\r\n    {\r\n        return token.transfer(to, value);\r\n    }\r\n\r\n    function rescueFunds(\r\n        address tokenToRescue,\r\n        address to,\r\n        uint256 amount\r\n    ) external onlyOwner returns (bool) {\r\n        if (!_isTokenRescuable) {\r\n            require(\r\n                address(token) != tokenToRescue,\r\n                \"TokenPool: Cannot claim token held by the contract\"\r\n            );\r\n        }\r\n\r\n        return IERC20(tokenToRescue).transfer(to, amount);\r\n    }\r\n}\r\n",
  "sourcePath": "D:\\Data\\4. Coding\\Solidity\\Nakamoto\\Tinfoil finance\\contracts\\TokenPool.sol",
  "compiler": {
    "name": "solc",
    "version": "0.6.6+commit.6c089d02.Emscripten.clang"
  },
  "schemaVersion": "3.3.3",
  "updatedAt": "2021-02-11T00:17:02.831Z",
  "devdoc": {
    "methods": {
      "owner()": {
        "details": "Returns the address of the current owner."
      },
      "renounceOwnership()": {
        "details": "Leaves the contract without owner. It will not be possible to call `onlyOwner` functions anymore. Can only be called by the current owner.     * NOTE: Renouncing ownership will leave the contract without an owner, thereby removing any functionality that is only available to the owner."
      },
      "transferOwnership(address)": {
        "details": "Transfers ownership of the contract to a new account (`newOwner`). Can only be called by the current owner."
      }
    },
    "title": "A simple holder of tokens. This is a simple contract to hold tokens. It's useful in the case where a separate contract needs to hold multiple distinct pools of the same token."
  },
  "userdoc": {
    "methods": {}
  }
}