{
  "contractName": "TokenGeyser",
  "abi": [
    {
      "inputs": [
        {
          "internalType": "contract IERC20",
          "name": "stakingToken",
          "type": "address"
        },
        {
          "internalType": "contract IERC20",
          "name": "distributionToken",
          "type": "address"
        },
        {
          "internalType": "uint256",
          "name": "maxUnlockSchedules",
          "type": "uint256"
        },
        {
          "internalType": "uint256",
          "name": "startBonus_",
          "type": "uint256"
        },
        {
          "internalType": "uint256",
          "name": "bonusPeriodSec_",
          "type": "uint256"
        },
        {
          "internalType": "uint256",
          "name": "initialSharesPerToken",
          "type": "uint256"
        },
        {
          "internalType": "uint256",
          "name": "bonusDecimals_",
          "type": "uint256"
        },
        {
          "internalType": "address",
          "name": "managerAddress",
          "type": "address"
        },
        {
          "internalType": "address",
          "name": "receiptTokenAddres",
          "type": "address"
        },
        {
          "internalType": "address",
          "name": "_feeAddress",
          "type": "address"
        }
      ],
      "stateMutability": "nonpayable",
      "type": "constructor"
    },
    {
      "anonymous": false,
      "inputs": [
        {
          "indexed": true,
          "internalType": "address",
          "name": "feeAddress",
          "type": "address"
        },
        {
          "indexed": false,
          "internalType": "uint256",
          "name": "amount",
          "type": "uint256"
        }
      ],
      "name": "FeeCollected",
      "type": "event"
    },
    {
      "anonymous": false,
      "inputs": [
        {
          "indexed": true,
          "internalType": "address",
          "name": "previousOwner",
          "type": "address"
        },
        {
          "indexed": true,
          "internalType": "address",
          "name": "newOwner",
          "type": "address"
        }
      ],
      "name": "OwnershipTransferred",
      "type": "event"
    },
    {
      "anonymous": false,
      "inputs": [
        {
          "indexed": true,
          "internalType": "address",
          "name": "user",
          "type": "address"
        },
        {
          "indexed": false,
          "internalType": "uint256",
          "name": "amount",
          "type": "uint256"
        }
      ],
      "name": "ReceiptBurned",
      "type": "event"
    },
    {
      "anonymous": false,
      "inputs": [
        {
          "indexed": true,
          "internalType": "address",
          "name": "user",
          "type": "address"
        },
        {
          "indexed": false,
          "internalType": "uint256",
          "name": "amount",
          "type": "uint256"
        }
      ],
      "name": "ReceiptMinted",
      "type": "event"
    },
    {
      "anonymous": false,
      "inputs": [
        {
          "indexed": true,
          "internalType": "address",
          "name": "user",
          "type": "address"
        },
        {
          "indexed": false,
          "internalType": "uint256",
          "name": "amount",
          "type": "uint256"
        },
        {
          "indexed": false,
          "internalType": "uint256",
          "name": "total",
          "type": "uint256"
        },
        {
          "indexed": false,
          "internalType": "bytes",
          "name": "data",
          "type": "bytes"
        }
      ],
      "name": "Staked",
      "type": "event"
    },
    {
      "anonymous": false,
      "inputs": [
        {
          "indexed": true,
          "internalType": "address",
          "name": "user",
          "type": "address"
        },
        {
          "indexed": false,
          "internalType": "uint256",
          "name": "amount",
          "type": "uint256"
        }
      ],
      "name": "TokensClaimed",
      "type": "event"
    },
    {
      "anonymous": false,
      "inputs": [
        {
          "indexed": false,
          "internalType": "uint256",
          "name": "amount",
          "type": "uint256"
        },
        {
          "indexed": false,
          "internalType": "uint256",
          "name": "durationSec",
          "type": "uint256"
        },
        {
          "indexed": false,
          "internalType": "uint256",
          "name": "total",
          "type": "uint256"
        }
      ],
      "name": "TokensLocked",
      "type": "event"
    },
    {
      "anonymous": false,
      "inputs": [
        {
          "indexed": false,
          "internalType": "uint256",
          "name": "amount",
          "type": "uint256"
        },
        {
          "indexed": false,
          "internalType": "uint256",
          "name": "total",
          "type": "uint256"
        }
      ],
      "name": "TokensUnlocked",
      "type": "event"
    },
    {
      "anonymous": false,
      "inputs": [
        {
          "indexed": true,
          "internalType": "address",
          "name": "user",
          "type": "address"
        },
        {
          "indexed": false,
          "internalType": "uint256",
          "name": "amount",
          "type": "uint256"
        },
        {
          "indexed": false,
          "internalType": "uint256",
          "name": "total",
          "type": "uint256"
        },
        {
          "indexed": false,
          "internalType": "bytes",
          "name": "data",
          "type": "bytes"
        }
      ],
      "name": "Unstaked",
      "type": "event"
    },
    {
      "anonymous": false,
      "inputs": [
        {
          "indexed": false,
          "internalType": "string",
          "name": "s",
          "type": "string"
        }
      ],
      "name": "log",
      "type": "event"
    },
    {
      "anonymous": false,
      "inputs": [
        {
          "indexed": false,
          "internalType": "uint256",
          "name": "s",
          "type": "uint256"
        }
      ],
      "name": "log",
      "type": "event"
    },
    {
      "anonymous": false,
      "inputs": [
        {
          "indexed": false,
          "internalType": "address",
          "name": "s",
          "type": "address"
        }
      ],
      "name": "log",
      "type": "event"
    },
    {
      "inputs": [],
      "name": "bonusDecimals",
      "outputs": [
        {
          "internalType": "uint256",
          "name": "",
          "type": "uint256"
        }
      ],
      "stateMutability": "view",
      "type": "function"
    },
    {
      "inputs": [],
      "name": "bonusPeriodSec",
      "outputs": [
        {
          "internalType": "uint256",
          "name": "",
          "type": "uint256"
        }
      ],
      "stateMutability": "view",
      "type": "function"
    },
    {
      "inputs": [],
      "name": "feeAddress",
      "outputs": [
        {
          "internalType": "address",
          "name": "",
          "type": "address"
        }
      ],
      "stateMutability": "view",
      "type": "function"
    },
    {
      "inputs": [],
      "name": "geyserManager",
      "outputs": [
        {
          "internalType": "address",
          "name": "",
          "type": "address"
        }
      ],
      "stateMutability": "view",
      "type": "function"
    },
    {
      "inputs": [],
      "name": "owner",
      "outputs": [
        {
          "internalType": "address",
          "name": "",
          "type": "address"
        }
      ],
      "stateMutability": "view",
      "type": "function"
    },
    {
      "inputs": [],
      "name": "receiptToken",
      "outputs": [
        {
          "internalType": "address",
          "name": "",
          "type": "address"
        }
      ],
      "stateMutability": "view",
      "type": "function"
    },
    {
      "inputs": [],
      "name": "renounceOwnership",
      "outputs": [],
      "stateMutability": "nonpayable",
      "type": "function"
    },
    {
      "inputs": [],
      "name": "startBonus",
      "outputs": [
        {
          "internalType": "uint256",
          "name": "",
          "type": "uint256"
        }
      ],
      "stateMutability": "view",
      "type": "function"
    },
    {
      "inputs": [],
      "name": "totalLockedShares",
      "outputs": [
        {
          "internalType": "uint256",
          "name": "",
          "type": "uint256"
        }
      ],
      "stateMutability": "view",
      "type": "function"
    },
    {
      "inputs": [],
      "name": "totalStakingShares",
      "outputs": [
        {
          "internalType": "uint256",
          "name": "",
          "type": "uint256"
        }
      ],
      "stateMutability": "view",
      "type": "function"
    },
    {
      "inputs": [
        {
          "internalType": "address",
          "name": "newOwner",
          "type": "address"
        }
      ],
      "name": "transferOwnership",
      "outputs": [],
      "stateMutability": "nonpayable",
      "type": "function"
    },
    {
      "inputs": [
        {
          "internalType": "uint256",
          "name": "",
          "type": "uint256"
        }
      ],
      "name": "unlockSchedules",
      "outputs": [
        {
          "internalType": "uint256",
          "name": "initialLockedShares",
          "type": "uint256"
        },
        {
          "internalType": "uint256",
          "name": "unlockedShares",
          "type": "uint256"
        },
        {
          "internalType": "uint256",
          "name": "lastUnlockTimestampSec",
          "type": "uint256"
        },
        {
          "internalType": "uint256",
          "name": "endAtSec",
          "type": "uint256"
        },
        {
          "internalType": "uint256",
          "name": "durationSec",
          "type": "uint256"
        }
      ],
      "stateMutability": "view",
      "type": "function"
    },
    {
      "inputs": [
        {
          "internalType": "address",
          "name": "_feeAddress",
          "type": "address"
        }
      ],
      "name": "setFeeAddress",
      "outputs": [],
      "stateMutability": "nonpayable",
      "type": "function"
    },
    {
      "inputs": [
        {
          "internalType": "address",
          "name": "user",
          "type": "address"
        }
      ],
      "name": "getEarnings",
      "outputs": [
        {
          "internalType": "uint256",
          "name": "",
          "type": "uint256"
        }
      ],
      "stateMutability": "view",
      "type": "function"
    },
    {
      "inputs": [
        {
          "internalType": "address",
          "name": "user",
          "type": "address"
        }
      ],
      "name": "rescueRewards",
      "outputs": [],
      "stateMutability": "nonpayable",
      "type": "function"
    },
    {
      "inputs": [],
      "name": "getStakingToken",
      "outputs": [
        {
          "internalType": "contract IERC20",
          "name": "",
          "type": "address"
        }
      ],
      "stateMutability": "view",
      "type": "function"
    },
    {
      "inputs": [],
      "name": "getDistributionToken",
      "outputs": [
        {
          "internalType": "contract IERC20",
          "name": "",
          "type": "address"
        }
      ],
      "stateMutability": "view",
      "type": "function"
    },
    {
      "inputs": [
        {
          "internalType": "address",
          "name": "staker",
          "type": "address"
        },
        {
          "internalType": "uint256",
          "name": "amount",
          "type": "uint256"
        },
        {
          "internalType": "bytes",
          "name": "data",
          "type": "bytes"
        }
      ],
      "name": "stake",
      "outputs": [],
      "stateMutability": "nonpayable",
      "type": "function"
    },
    {
      "inputs": [
        {
          "internalType": "address",
          "name": "staker",
          "type": "address"
        },
        {
          "internalType": "address",
          "name": "user",
          "type": "address"
        },
        {
          "internalType": "uint256",
          "name": "amount",
          "type": "uint256"
        },
        {
          "internalType": "bytes",
          "name": "data",
          "type": "bytes"
        }
      ],
      "name": "stakeFor",
      "outputs": [],
      "stateMutability": "nonpayable",
      "type": "function"
    },
    {
      "inputs": [
        {
          "internalType": "address",
          "name": "staker",
          "type": "address"
        },
        {
          "internalType": "uint256",
          "name": "amount",
          "type": "uint256"
        },
        {
          "internalType": "bytes",
          "name": "data",
          "type": "bytes"
        }
      ],
      "name": "unstake",
      "outputs": [],
      "stateMutability": "nonpayable",
      "type": "function"
    },
    {
      "inputs": [
        {
          "internalType": "address",
          "name": "staker",
          "type": "address"
        },
        {
          "internalType": "uint256",
          "name": "amount",
          "type": "uint256"
        }
      ],
      "name": "unstakeQuery",
      "outputs": [
        {
          "internalType": "uint256",
          "name": "",
          "type": "uint256"
        }
      ],
      "stateMutability": "nonpayable",
      "type": "function"
    },
    {
      "inputs": [
        {
          "internalType": "address",
          "name": "addr",
          "type": "address"
        }
      ],
      "name": "totalStakedFor",
      "outputs": [
        {
          "internalType": "uint256",
          "name": "",
          "type": "uint256"
        }
      ],
      "stateMutability": "view",
      "type": "function"
    },
    {
      "inputs": [],
      "name": "totalStaked",
      "outputs": [
        {
          "internalType": "uint256",
          "name": "",
          "type": "uint256"
        }
      ],
      "stateMutability": "view",
      "type": "function"
    },
    {
      "inputs": [],
      "name": "token",
      "outputs": [
        {
          "internalType": "address",
          "name": "",
          "type": "address"
        }
      ],
      "stateMutability": "view",
      "type": "function"
    },
    {
      "inputs": [
        {
          "internalType": "address",
          "name": "user",
          "type": "address"
        }
      ],
      "name": "updateAccounting",
      "outputs": [
        {
          "internalType": "uint256",
          "name": "",
          "type": "uint256"
        },
        {
          "internalType": "uint256",
          "name": "",
          "type": "uint256"
        },
        {
          "internalType": "uint256",
          "name": "",
          "type": "uint256"
        },
        {
          "internalType": "uint256",
          "name": "",
          "type": "uint256"
        },
        {
          "internalType": "uint256",
          "name": "",
          "type": "uint256"
        },
        {
          "internalType": "uint256",
          "name": "",
          "type": "uint256"
        }
      ],
      "stateMutability": "nonpayable",
      "type": "function"
    },
    {
      "inputs": [],
      "name": "totalLocked",
      "outputs": [
        {
          "internalType": "uint256",
          "name": "",
          "type": "uint256"
        }
      ],
      "stateMutability": "view",
      "type": "function"
    },
    {
      "inputs": [],
      "name": "totalUnlocked",
      "outputs": [
        {
          "internalType": "uint256",
          "name": "",
          "type": "uint256"
        }
      ],
      "stateMutability": "view",
      "type": "function"
    },
    {
      "inputs": [],
      "name": "unlockScheduleCount",
      "outputs": [
        {
          "internalType": "uint256",
          "name": "",
          "type": "uint256"
        }
      ],
      "stateMutability": "view",
      "type": "function"
    },
    {
      "inputs": [
        {
          "internalType": "uint256",
          "name": "amount",
          "type": "uint256"
        },
        {
          "internalType": "uint256",
          "name": "durationSec",
          "type": "uint256"
        }
      ],
      "name": "lockTokens",
      "outputs": [],
      "stateMutability": "nonpayable",
      "type": "function"
    },
    {
      "inputs": [],
      "name": "unlockTokens",
      "outputs": [
        {
          "internalType": "uint256",
          "name": "",
          "type": "uint256"
        }
      ],
      "stateMutability": "nonpayable",
      "type": "function"
    },
    {
      "inputs": [
        {
          "internalType": "address",
          "name": "otherToken",
          "type": "address"
        },
        {
          "internalType": "address",
          "name": "to",
          "type": "address"
        },
        {
          "internalType": "uint256",
          "name": "amount",
          "type": "uint256"
        }
      ],
      "name": "rescueFundsFromStakingPool",
      "outputs": [
        {
          "internalType": "bool",
          "name": "",
          "type": "bool"
        }
      ],
      "stateMutability": "nonpayable",
      "type": "function"
    },
    {
      "inputs": [],
      "name": "totalRewards",
      "outputs": [
        {
          "internalType": "uint256",
          "name": "",
          "type": "uint256"
        }
      ],
      "stateMutability": "view",
      "type": "function"
    }
  ],
  "bytecode": "0x608060405260026004556000600555600060065560006007556000600855600060095542600a556000600b556000600c553480156200003d57600080fd5b50604051620035f9380380620035f983398181016040526101408110156200006457600080fd5b508051602082015160408301516060840151608085015160a086015160c087015160e088015161010089015161012090990151979896979596949593949293919290916000620000bc6001600160e01b036200037816565b600080546001600160a01b0319166001600160a01b0383169081178255604051929350917f8be0079c531659141344cd1fd0a4f28419497f9722a3daafe3b4186f6b6457e0908290a35083600a0a8711156200014a5760405162461bcd60e51b81526004018080602001828103825260218152602001806200358d6021913960400191505060405180910390fd5b85620001885760405162461bcd60e51b8152600401808060200182810382526021815260200180620035d86021913960400191505060405180910390fd5b60008511620001c95760405162461bcd60e51b815260040180806020018281038252602a815260200180620035ae602a913960400191505060405180910390fd5b600084116200020a5760405162461bcd60e51b81526004018080602001828103825260238152602001806200356a6023913960400191505060405180910390fd5b8960405162000219906200037c565b6001600160a01b03909116815260405190819003602001906000f08015801562000247573d6000803e3d6000fd5b50600180546001600160a01b0319166001600160a01b0392909216919091179055604051899062000278906200037c565b6001600160a01b03909116815260405190819003602001906000f080158015620002a6573d6000803e3d6000fd5b50600280546001600160a01b0319166001600160a01b03929092169190911790556040518990620002d7906200037c565b6001600160a01b03909116815260405190819003602001906000f08015801562000305573d6000803e3d6000fd5b50600380546001600160a01b03199081166001600160a01b039384161790915560118054821695831695909517909455600597909755600493909355600694909455600b95909555600c9190915560128054851692841692909217909155601380549093169116179055506200038a9050565b3390565b6106f08062002e7a83390190565b612ae0806200039a6000396000f3fe608060405234801561001057600080fd5b50600436106101f05760003560e01c8063817b1cd21161010f578063c4113b88116100a2578063ee72b9d011610071578063ee72b9d0146105c0578063f2fde38b14610619578063f968f4931461063f578063fc0c546a14610647576101f0565b8063c4113b88146104ff578063c7ae200714610584578063d71115f01461058c578063ec78e832146105b8576101f0565b80638da5cb5b116100de5780638da5cb5b146104c15780639f9106d1146104c9578063a779d080146104d1578063b90817f2146104d9576101f0565b8063817b1cd21461046857806381c39bec146104705780638705fcd41461047857806389158d8e1461049e576101f0565b80635689141211610187578063715018a611610156578063715018a6146103c05780637c6aa6f4146103c85780637cb446a8146103d0578063812ae2c514610460576101f0565b8063568914121461031e5780635a72bbef146103265780635c94bcb21461037057806370c6a17e146103b8576101f0565b80633e12170f116101c35780633e12170f146102615780633e1d0ae5146102e857806341275358146102f05780634b341aed146102f8576101f0565b80630e15561a146101f5578063131b9c041461020f57806322c12b841461023557806338b45fde14610259575b600080fd5b6101fd61064f565b60408051918252519081900360200190f35b6101fd6004803603602081101561022557600080fd5b50356001600160a01b031661074d565b61023d61076c565b604080516001600160a01b039092168252519081900360200190f35b6101fd6108e1565b6102e66004803603606081101561027757600080fd5b6001600160a01b03823516916020810135918101906060810160408201356401000000008111156102a757600080fd5b8201836020820111156102b957600080fd5b803590602001918460018302840111640100000000831117156102db57600080fd5b5090925090506108e7565b005b6101fd610941565b61023d610947565b6101fd6004803603602081101561030e57600080fd5b50356001600160a01b0316610956565b6101fd6109b3565b61035c6004803603606081101561033c57600080fd5b506001600160a01b038135811691602081013590911690604001356109f8565b604080519115158252519081900360200190f35b61038d6004803603602081101561038657600080fd5b5035610af0565b6040805195865260208601949094528484019290925260608401526080830152519081900360a00190f35b6101fd610b2e565b6102e6610b34565b6101fd610be0565b6102e6600480360360808110156103e657600080fd5b6001600160a01b0382358116926020810135909116916040820135919081019060808101606082013564010000000081111561042157600080fd5b82018360208201111561043357600080fd5b8035906020019184600183028401116401000000008311171561045557600080fd5b509092509050610be6565b61023d610ca3565b6101fd610cb2565b6101fd610cf7565b6102e66004803603602081101561048e57600080fd5b50356001600160a01b0316610cfd565b6102e6600480360360408110156104b457600080fd5b5080359060200135610d81565b61023d61111b565b61023d61112a565b6101fd61116f565b6102e6600480360360208110156104ef57600080fd5b50356001600160a01b03166111b4565b6102e66004803603606081101561051557600080fd5b6001600160a01b038235169160208101359181019060608101604082013564010000000081111561054557600080fd5b82018360208201111561055757600080fd5b8035906020019184600183028401116401000000008311171561057957600080fd5b5090925090506113a5565b6101fd6113f8565b6101fd600480360360408110156105a257600080fd5b506001600160a01b0381351690602001356113fe565b61023d611454565b6105e6600480360360208110156105d657600080fd5b50356001600160a01b0316611463565b604080519687526020870195909552858501939093526060850191909152608084015260a0830152519081900360c00190f35b6102e66004803603602081101561062f57600080fd5b50356001600160a01b0316611561565b6101fd611663565b61023d6116d3565b600080600360009054906101000a90046001600160a01b03166001600160a01b031663b69ef8a86040518163ffffffff1660e01b815260040160206040518083038186803b1580156106a057600080fd5b505afa1580156106b4573d6000803e3d6000fd5b505050506040513d60208110156106ca57600080fd5b5051600254604080516316d3df1560e31b815290519293506000926001600160a01b039092169163b69ef8a891600480820192602092909190829003018186803b15801561071757600080fd5b505afa15801561072b573d6000803e3d6000fd5b505050506040513d602081101561074157600080fd5b50519190910191505090565b6001600160a01b0381166000908152600f60205260409020545b919050565b60035460408051637e062a3560e11b815290516000926001600160a01b03169163fc0c546a916004808301926020929190829003018186803b1580156107b157600080fd5b505afa1580156107c5573d6000803e3d6000fd5b505050506040513d60208110156107db57600080fd5b505160025460408051637e062a3560e11b815290516001600160a01b03938416939092169163fc0c546a91600480820192602092909190829003018186803b15801561082657600080fd5b505afa15801561083a573d6000803e3d6000fd5b505050506040513d602081101561085057600080fd5b50516001600160a01b03161461086257fe5b600260009054906101000a90046001600160a01b03166001600160a01b031663fc0c546a6040518163ffffffff1660e01b815260040160206040518083038186803b1580156108b057600080fd5b505afa1580156108c4573d6000803e3d6000fd5b505050506040513d60208110156108da57600080fd5b5051905090565b60055481565b6011546001600160a01b031633146109305760405162461bcd60e51b81526004018080602001828103825260348152602001806128916034913960400191505060405180910390fd5b61093b8485856116e2565b50505050565b60045481565b6013546001600160a01b031681565b600080600854116109685760006109ad565b6008546001600160a01b0383166000908152600d60205260409020546109ad91906109a190610995610cb2565b9063ffffffff611b2a16565b9063ffffffff611b8316565b92915050565b600354604080516316d3df1560e31b815290516000926001600160a01b03169163b69ef8a8916004808301926020929190829003018186803b1580156108b057600080fd5b6000610a02611bea565b6001600160a01b0316610a1361111b565b6001600160a01b031614610a5c576040805162461bcd60e51b815260206004820181905260248201526000805160206129e4833981519152604482015290519081900360640190fd5b6001546040805163e7d2150d60e01b81526001600160a01b0387811660048301528681166024830152604482018690529151919092169163e7d2150d9160648083019260209291908290030181600087803b158015610aba57600080fd5b505af1158015610ace573d6000803e3d6000fd5b505050506040513d6020811015610ae457600080fd5b505190505b9392505050565b60108181548110610afd57fe5b6000918252602090912060059091020180546001820154600283015460038401546004909401549294509092909185565b60085481565b610b3c611bea565b6001600160a01b0316610b4d61111b565b6001600160a01b031614610b96576040805162461bcd60e51b815260206004820181905260248201526000805160206129e4833981519152604482015290519081900360640190fd5b600080546040516001600160a01b03909116907f8be0079c531659141344cd1fd0a4f28419497f9722a3daafe3b4186f6b6457e0908390a3600080546001600160a01b0319169055565b60065481565b610bee611bea565b6001600160a01b0316610bff61111b565b6001600160a01b031614610c48576040805162461bcd60e51b815260206004820181905260248201526000805160206129e4833981519152604482015290519081900360640190fd5b6011546001600160a01b03163314610c915760405162461bcd60e51b81526004018080602001828103825260348152602001806128916034913960400191505060405180910390fd5b610c9c8585856116e2565b5050505050565b6011546001600160a01b031681565b600154604080516316d3df1560e31b815290516000926001600160a01b03169163b69ef8a8916004808301926020929190829003018186803b1580156108b057600080fd5b60075481565b610d05611bea565b6001600160a01b0316610d1661111b565b6001600160a01b031614610d5f576040805162461bcd60e51b815260206004820181905260248201526000805160206129e4833981519152604482015290519081900360640190fd5b601380546001600160a01b0319166001600160a01b0392909216919091179055565b610d89611bea565b6001600160a01b0316610d9a61111b565b6001600160a01b031614610de3576040805162461bcd60e51b815260206004820181905260248201526000805160206129e4833981519152604482015290519081900360640190fd5b600b5460105410610e255760405162461bcd60e51b815260040180806020018281038252602d815260200180612a4e602d913960400191505060405180910390fd5b610e2e33611463565b5050505050506000610e3e6109b3565b90506000808211610e6257600c54610e5d90859063ffffffff611b2a16565b610e7b565b610e7b826109a186600754611b2a90919063ffffffff16565b9050610e856126d3565b8181524260408201819052610ea0908563ffffffff611bee16565b60608201908152608082018581526010805460018101825560009190915283517f1b6847dc741a1b0cd08d278845f9d819d87b734759afb55fe2de5cb82a9ae67260059092029182015560208401517f1b6847dc741a1b0cd08d278845f9d819d87b734759afb55fe2de5cb82a9ae67382015560408401517f1b6847dc741a1b0cd08d278845f9d819d87b734759afb55fe2de5cb82a9ae67482015591517f1b6847dc741a1b0cd08d278845f9d819d87b734759afb55fe2de5cb82a9ae675830155517f1b6847dc741a1b0cd08d278845f9d819d87b734759afb55fe2de5cb82a9ae67690910155600754610f959083611bee565b60075560035460408051637e062a3560e11b815290516001600160a01b039092169163fc0c546a91600480820192602092909190829003018186803b158015610fdd57600080fd5b505afa158015610ff1573d6000803e3d6000fd5b505050506040513d602081101561100757600080fd5b5051600354604080516323b872dd60e01b81523360048201526001600160a01b03928316602482015260448101899052905191909216916323b872dd9160648083019260209291908290030181600087803b15801561106557600080fd5b505af1158015611079573d6000803e3d6000fd5b505050506040513d602081101561108f57600080fd5b50516110cc5760405162461bcd60e51b815260040180806020018281038252602d815260200180612751602d913960400191505060405180910390fd5b7ff346961af4c52f314df1b45964746280fe409abb959d4a2458d58f79408b1fe885856110f76109b3565b60408051938452602084019290925282820152519081900360600190a15050505050565b6000546001600160a01b031690565b60015460408051637e062a3560e11b815290516000926001600160a01b03169163fc0c546a916004808301926020929190829003018186803b1580156108b057600080fd5b600254604080516316d3df1560e31b815290516000926001600160a01b03169163b69ef8a8916004808301926020929190829003018186803b1580156108b057600080fd5b6111bc611bea565b6001600160a01b03166111cd61111b565b6001600160a01b031614611216576040805162461bcd60e51b815260206004820181905260248201526000805160206129e4833981519152604482015290519081900360640190fd5b600061122061116f565b11611272576040805162461bcd60e51b815260206004820152601e60248201527f546f6b656e4765797365723a204e6f7468696e6720746f207265736375650000604482015290519081900360640190fd5b600254604080516316d3df1560e31b815290516001600160a01b039092169163a9059cbb918491849163b69ef8a8916004808301926020929190829003018186803b1580156112c057600080fd5b505afa1580156112d4573d6000803e3d6000fd5b505050506040513d60208110156112ea57600080fd5b5051604080516001600160e01b031960e086901b1681526001600160a01b03909316600484015260248301919091525160448083019260209291908290030181600087803b15801561133b57600080fd5b505af115801561134f573d6000803e3d6000fd5b505050506040513d602081101561136557600080fd5b50516113a25760405162461bcd60e51b815260040180806020018281038252603481526020018061271d6034913960400191505060405180910390fd5b50565b6011546001600160a01b031633146113ee5760405162461bcd60e51b81526004018080602001828103825260348152602001806128916034913960400191505060405180910390fd5b610c9c8484611c48565b60105490565b6011546000906001600160a01b0316331461144a5760405162461bcd60e51b81526004018080602001828103825260348152602001806128916034913960400191505060405180910390fd5b610ae98383611c48565b6012546001600160a01b031681565b600080600080600080611474612377565b506000611492600854610995600a544261250b90919063ffffffff16565b6009549091506114a8908263ffffffff611bee16565b60095542600a8190556001600160a01b0389166000908152600d602052604081208054600282015491936114e692610995919063ffffffff61250b16565b60018301549091506114fe908263ffffffff611bee16565b600183015542600283015560095460009061151a576000611530565b6115306009546109a1856001015461099561116f565b905061153a6109b3565b61154261116f565b600190940154600954919d949c509a5098509650429550909350505050565b611569611bea565b6001600160a01b031661157a61111b565b6001600160a01b0316146115c3576040805162461bcd60e51b815260206004820181905260248201526000805160206129e4833981519152604482015290519081900360640190fd5b6001600160a01b0381166116085760405162461bcd60e51b81526004018080602001828103825260268152602001806127ae6026913960400191505060405180910390fd5b600080546040516001600160a01b03808516939216917f8be0079c531659141344cd1fd0a4f28419497f9722a3daafe3b4186f6b6457e091a3600080546001600160a01b0319166001600160a01b0392909216919091179055565b600061166d611bea565b6001600160a01b031661167e61111b565b6001600160a01b0316146116c7576040805162461bcd60e51b815260206004820181905260248201526000805160206129e4833981519152604482015290519081900360640190fd5b6116cf612377565b5090565b60006116dd61112a565b905090565b600081116117215760405162461bcd60e51b81526004018080602001828103825260218152602001806129656021913960400191505060405180910390fd5b6001600160a01b0382166117665760405162461bcd60e51b815260040180806020018281038252602881526020018061283a6028913960400191505060405180910390fd5b600854158061177c5750600061177a610cb2565b115b6117b75760405162461bcd60e51b815260040180806020018281038252604a815260200180612a04604a913960600191505060405180910390fd5b600080600854116117db57600c546117d690839063ffffffff611b2a16565b6117f9565b6117f96117e6610cb2565b6008546109a1908563ffffffff611b2a16565b90506000811161183a5760405162461bcd60e51b81526004018080602001828103825260268152602001806128c56026913960400191505060405180910390fd5b61184383611463565b505050506001600160a01b0385166000908152600d60205260409020805490925061186f915083611bee565b815542600282015561187f612702565b506040805180820182528381524260208083019182526001600160a01b0388166000908152600e825293842080546001818101835591865291909420835160029092020190815590519201919091556008546118e1908463ffffffff611bee16565b60085560015460408051637e062a3560e11b815290516001600160a01b039092169163fc0c546a91600480820192602092909190829003018186803b15801561192957600080fd5b505afa15801561193d573d6000803e3d6000fd5b505050506040513d602081101561195357600080fd5b5051600154604080516323b872dd60e01b81526001600160a01b038a81166004830152928316602482015260448101889052905191909216916323b872dd9160648083019260209291908290030181600087803b1580156119b357600080fd5b505af11580156119c7573d6000803e3d6000fd5b505050506040513d60208110156119dd57600080fd5b5051611a1a5760405162461bcd60e51b815260040180806020018281038252602e815260200180612937602e913960400191505060405180910390fd5b601254604080516340c10f1960e01b81526001600160a01b03898116600483015260248201889052915191909216916340c10f1991604480830192600092919082900301818387803b158015611a6f57600080fd5b505af1158015611a83573d6000803e3d6000fd5b50506040805187815290516001600160a01b038a1693507f7426b47c070daa8b9ccf879cb8120114c763442de428045459543fcaeb45db6f92509081900360200190a2846001600160a01b03167fc65e53b88159e7d2c0fc12a0600072e28ae53ff73b4c1715369c30f16093514285611afb88610956565b6040805192835260208301919091526060828201819052600090830152519081900360a00190a2505050505050565b600082611b39575060006109ad565b82820282848281611b4657fe5b0414610ae95760405162461bcd60e51b81526004018080602001828103825260218152602001806129c36021913960400191505060405180910390fd5b6000808211611bd9576040805162461bcd60e51b815260206004820152601a60248201527f536166654d6174683a206469766973696f6e206279207a65726f000000000000604482015290519081900360640190fd5b818381611be257fe5b049392505050565b3390565b600082820183811015610ae9576040805162461bcd60e51b815260206004820152601b60248201527f536166654d6174683a206164646974696f6e206f766572666c6f770000000000604482015290519081900360640190fd5b6000611c5383611463565b5050505050506000611c79611c66610cb2565b6008546109a1908663ffffffff611b2a16565b905060008111611cba5760405162461bcd60e51b815260040180806020018281038252603081526020018061277e6030913960400191505060405180910390fd5b6001600160a01b0384166000908152600d60209081526040808320600e9092528220909183815b8115611dfc57835460009085906000198101908110611cfc57fe5b906000526020600020906002020190506000611d2582600101544261250b90919063ffffffff16565b82549091506000908510611da9578254611d45908363ffffffff611b2a16565b9050611d52848284612568565b9350611d64868263ffffffff611bee16565b8354909650611d7a90869063ffffffff61250b16565b945086805480611d8657fe5b600082815260208120600260001990930192830201818155600101559055611df4565b611db9858363ffffffff611b2a16565b9050611dc6848284612568565b9350611dd8868263ffffffff611bee16565b8354909650611ded908663ffffffff61250b16565b8355600094505b505050611ce1565b6001850154611e11908463ffffffff61250b16565b60018601558454611e28908763ffffffff61250b16565b8555600954611e3d908463ffffffff61250b16565b600955600854611e53908763ffffffff61250b16565b6008556001546040805163a9059cbb60e01b81526001600160a01b038c81166004830152602482018c90529151919092169163a9059cbb9160448083019260209291908290030181600087803b158015611eac57600080fd5b505af1158015611ec0573d6000803e3d6000fd5b505050506040513d6020811015611ed657600080fd5b5051611f135760405162461bcd60e51b8152600401808060200182810382526030815260200180612a7b6030913960400191505060405180910390fd5b80611f1c61116f565b10612153576000611f2c82612602565b6002546040805163a9059cbb60e01b81526001600160a01b038e811660048301528487036024830181905292519495509193919092169163a9059cbb9160448083019260209291908290030181600087803b158015611f8a57600080fd5b505af1158015611f9e573d6000803e3d6000fd5b505050506040513d6020811015611fb457600080fd5b5051611ff15760405162461bcd60e51b81526004018080602001828103825260318152602001806128096031913960400191505060405180910390fd5b6002546013546040805163a9059cbb60e01b81526001600160a01b039283166004820152602481018690529051919092169163a9059cbb9160448083019260209291908290030181600087803b15801561204a57600080fd5b505af115801561205e573d6000803e3d6000fd5b505050506040513d602081101561207457600080fd5b50516120b15760405162461bcd60e51b81526004018080602001828103825260358152602001806127d46035913960400191505060405180910390fd5b6013546040805184815290516001600160a01b03909216917f06c5efeff5c320943d265dc4e5f1af95ad523555ce0c1957e367dda5514572df9181900360200190a26040805182815290516001600160a01b038d16917f896e034966eaaf1adc54acc0f257056febbd300c9e47182cf761982cf1f5e430919081900360200190a26001600160a01b038b166000908152600f6020526040902080549091019055505b601254604080516370a0823160e01b81526001600160a01b038c81166004830152915160009392909216916370a0823191602480820192602092909190829003018186803b1580156121a457600080fd5b505afa1580156121b8573d6000803e3d6000fd5b505050506040513d60208110156121ce57600080fd5b50519050888110156122115760405162461bcd60e51b815260040180806020018281038252603d815260200180612986603d913960400191505060405180910390fd5b60125460408051632770a7eb60e21b81526001600160a01b038d81166004830152602482018d905291519190921691639dc29fac91604480830192600092919082900301818387803b15801561226657600080fd5b505af115801561227a573d6000803e3d6000fd5b5050604080518c815290516001600160a01b038e1693507feddf1a03703df6e2747cc7ba07b9a9f872c580156f7ea678dcc5952fdd00e6f192509081900360200190a2896001600160a01b03167faf01bfc8475df280aca00b578c4a948e6d95700f0db8c13365240f7f973c87548a6122f28d610956565b6040805192835260208301919091526060828201819052600090830152519081900360a00190a2600854158061232f5750600061232d610cb2565b115b61236a5760405162461bcd60e51b815260040180806020018281038252604c8152602001806128eb604c913960600191505060405180910390fd5b5098975050505050505050565b600080806123836109b3565b905060075460001415612398578091506123fc565b6000805b6010548110156123c9576123bf6123b282612610565b839063ffffffff611bee16565b915060010161239c565b506007546123e1906109a1838563ffffffff611b2a16565b6007549093506123f7908263ffffffff61250b16565b600755505b8115612505576003546002546040805163a9059cbb60e01b81526001600160a01b039283166004820152602481018690529051919092169163a9059cbb9160448083019260209291908290030181600087803b15801561245b57600080fd5b505af115801561246f573d6000803e3d6000fd5b505050506040513d602081101561248557600080fd5b50516124c25760405162461bcd60e51b815260040180806020018281038252602f815260200180612862602f913960400191505060405180910390fd5b7f2e444eb379b177e88ce0649c6110a3b01099f03e297127919dd5e3b63a761a9c826124ec6109b3565b6040805192835260208301919091528051918290030190a15b50905090565b600082821115612562576040805162461bcd60e51b815260206004820152601e60248201527f536166654d6174683a207375627472616374696f6e206f766572666c6f770000604482015290519081900360640190fd5b50900390565b60008061257d6009546109a18661099561116f565b905060065483106125a057612598858263ffffffff611bee16565b915050610ae9565b6000600454600a0a905060006125e5826109a1856109956125d66006546109a18c6109956005548c61250b90919063ffffffff16565b6005549063ffffffff611bee16565b90506125f7878263ffffffff611bee16565b979650505050505050565b6127106101f4919091020490565b6000806010838154811061262057fe5b906000526020600020906005020190508060000154816001015410612649576000915050610767565b6003810154600090421061267e576001820154825461266d9163ffffffff61250b16565b6003830154600284015590506126ae565b6126a582600401546109a1846000015461099586600201544261250b90919063ffffffff16565b42600284015590505b60018201546126c3908263ffffffff611bee16565b6001909201919091559050919050565b6040518060a0016040528060008152602001600081526020016000815260200160008152602001600081525090565b60405180604001604052806000815260200160008152509056fe546f6b656e4765797365723a2072657363756520726577617264732066726f6d207265776172647320706f6f6c206661696c6564546f6b656e4765797365723a207472616e7366657220696e746f206c6f636b656420706f6f6c206661696c6564546f6b656e4765797365723a20556e61626c6520746f20756e7374616b6520616d6f756e74207468697320736d616c6c4f776e61626c653a206e6577206f776e657220697320746865207a65726f2061646472657373546f6b656e4765797365723a207472616e7366657220666565206f7574206f6620756e6c6f636b656420706f6f6c206661696c6564546f6b656e4765797365723a207472616e73666572206f7574206f6620756e6c6f636b656420706f6f6c206661696c6564546f6b656e4765797365723a2062656e6566696369617279206973207a65726f2061646472657373546f6b656e4765797365723a207472616e73666572206f7574206f66206c6f636b656420706f6f6c206661696c656454686973206d6574686f642063616e2062652063616c6c65642062792074686520676579736572206d616e61676572206f6e6c79546f6b656e4765797365723a205374616b6520616d6f756e7420697320746f6f20736d616c6c546f6b656e4765797365723a204572726f7220756e7374616b696e672e205374616b696e67207368617265732065786973742c20627574206e6f207374616b696e6720746f6b656e7320646f546f6b656e4765797365723a207472616e7366657220696e746f207374616b696e6720706f6f6c206661696c6564546f6b656e4765797365723a207374616b6520616d6f756e74206973207a65726f546f6b656e4765797365723a20596f752068617665206c657373207265636569707420746f6b656e73207468616e206974206973207265717569726564536166654d6174683a206d756c7469706c69636174696f6e206f766572666c6f774f776e61626c653a2063616c6c6572206973206e6f7420746865206f776e6572546f6b656e4765797365723a20496e76616c69642073746174652e205374616b696e67207368617265732065786973742c20627574206e6f207374616b696e6720746f6b656e7320646f546f6b656e4765797365723a2072656163686564206d6178696d756d20756e6c6f636b207363686564756c6573546f6b656e4765797365723a207472616e73666572206f7574206f66207374616b696e6720706f6f6c206661696c6564a2646970667358221220c3aee37c77322fab461e70895fd67075c87c66dcddea8da2ce32624ed493283664736f6c63430006060033608060405234801561001057600080fd5b506040516106f03803806106f08339818101604052602081101561003357600080fd5b505160006100486001600160e01b036100b716565b600080546001600160a01b0319166001600160a01b0383169081178255604051929350917f8be0079c531659141344cd1fd0a4f28419497f9722a3daafe3b4186f6b6457e0908290a350600180546001600160a01b0319166001600160a01b03929092169190911790556100bb565b3390565b610626806100ca6000396000f3fe608060405234801561001057600080fd5b50600436106100885760003560e01c8063b69ef8a81161005b578063b69ef8a8146100fb578063e7d2150d14610115578063f2fde38b1461014b578063fc0c546a1461017157610088565b8063715018a61461008d5780637a4e4ecf146100975780638da5cb5b146100d7578063a9059cbb14610097575b600080fd5b610095610179565b005b6100c3600480360360408110156100ad57600080fd5b506001600160a01b038135169060200135610225565b604080519115158252519081900360200190f35b6100df610312565b604080516001600160a01b039092168252519081900360200190f35b610103610321565b60408051918252519081900360200190f35b6100c36004803603606081101561012b57600080fd5b506001600160a01b0381358116916020810135909116906040013561039d565b6100956004803603602081101561016157600080fd5b50356001600160a01b0316610495565b6100df610597565b6101816105a6565b6001600160a01b0316610192610312565b6001600160a01b0316146101db576040805162461bcd60e51b815260206004820181905260248201526000805160206105d1833981519152604482015290519081900360640190fd5b600080546040516001600160a01b03909116907f8be0079c531659141344cd1fd0a4f28419497f9722a3daafe3b4186f6b6457e0908390a3600080546001600160a01b0319169055565b600061022f6105a6565b6001600160a01b0316610240610312565b6001600160a01b031614610289576040805162461bcd60e51b815260206004820181905260248201526000805160206105d1833981519152604482015290519081900360640190fd5b6001546040805163a9059cbb60e01b81526001600160a01b038681166004830152602482018690529151919092169163a9059cbb9160448083019260209291908290030181600087803b1580156102df57600080fd5b505af11580156102f3573d6000803e3d6000fd5b505050506040513d602081101561030957600080fd5b50519392505050565b6000546001600160a01b031690565b600154604080516370a0823160e01b815230600482015290516000926001600160a01b0316916370a08231916024808301926020929190829003018186803b15801561036c57600080fd5b505afa158015610380573d6000803e3d6000fd5b505050506040513d602081101561039657600080fd5b5051905090565b60006103a76105a6565b6001600160a01b03166103b8610312565b6001600160a01b031614610401576040805162461bcd60e51b815260206004820181905260248201526000805160206105d1833981519152604482015290519081900360640190fd5b836001600160a01b031663a9059cbb84846040518363ffffffff1660e01b815260040180836001600160a01b03166001600160a01b0316815260200182815260200192505050602060405180830381600087803b15801561046157600080fd5b505af1158015610475573d6000803e3d6000fd5b505050506040513d602081101561048b57600080fd5b5051949350505050565b61049d6105a6565b6001600160a01b03166104ae610312565b6001600160a01b0316146104f7576040805162461bcd60e51b815260206004820181905260248201526000805160206105d1833981519152604482015290519081900360640190fd5b6001600160a01b03811661053c5760405162461bcd60e51b81526004018080602001828103825260268152602001806105ab6026913960400191505060405180910390fd5b600080546040516001600160a01b03808516939216917f8be0079c531659141344cd1fd0a4f28419497f9722a3daafe3b4186f6b6457e091a3600080546001600160a01b0319166001600160a01b0392909216919091179055565b6001546001600160a01b031681565b339056fe4f776e61626c653a206e6577206f776e657220697320746865207a65726f20616464726573734f776e61626c653a2063616c6c6572206973206e6f7420746865206f776e6572a26469706673582212203d5dbf80e4dfe602ea36c9f0a19723349850854e8cab3759c59c1f844614755564736f6c63430006060033546f6b656e4765797365723a20626f6e7573446563696d616c735f206973207a65726f546f6b656e4765797365723a20737461727420626f6e757320746f6f2068696768546f6b656e4765797365723a20696e697469616c536861726573506572546f6b656e206973207a65726f546f6b656e4765797365723a20626f6e757320706572696f64206973207a65726f",
  "immutableReferences": {},
  "source": "// SPDX-License-Identifier: MIT\r\npragma solidity ^0.6.0;\r\n\r\nimport \"@openzeppelin/contracts/math/SafeMath.sol\";\r\nimport \"@openzeppelin/contracts/access/Ownable.sol\";\r\nimport \"@openzeppelin/contracts/token/ERC20/ERC20.sol\";\r\n\r\nimport \"./interfaces/ILock.sol\";\r\nimport \"./Vault.sol\";\r\nimport \"./ReceiptToken.sol\";\r\n\r\ncontract TokenGeyser is ILock, Ownable {\r\n    using SafeMath for uint256;\r\n\r\n    event Staked(\r\n        address indexed user,\r\n        uint256 amount,\r\n        uint256 total,\r\n        bytes data\r\n    );\r\n    event ReceiptMinted(address indexed user, uint256 amount);\r\n    event ReceiptBurned(address indexed user, uint256 amount);\r\n\r\n    event Unstaked(\r\n        address indexed user,\r\n        uint256 amount,\r\n        uint256 total,\r\n        bytes data\r\n    );\r\n    event FeeCollected(address indexed feeAddress, uint256 amount);\r\n    event TokensClaimed(address indexed user, uint256 amount);\r\n    event TokensLocked(uint256 amount, uint256 durationSec, uint256 total);\r\n    // amount: Unlocked tokens, total: Total locked tokens\r\n    event TokensUnlocked(uint256 amount, uint256 total);\r\n\r\n    Vault private _stakingPool;\r\n    Vault private _unlockedPool;\r\n    Vault private _lockedPool;\r\n\r\n    //\r\n    // Time-bonus params\r\n    //\r\n    uint256 public bonusDecimals = 2;\r\n    uint256 public startBonus = 0;\r\n    uint256 public bonusPeriodSec = 0;\r\n\r\n    //\r\n    // Global accounting state\r\n    //\r\n    uint256 public totalLockedShares = 0;\r\n    uint256 public totalStakingShares = 0;\r\n    uint256 private _totalStakingShareSeconds = 0;\r\n    uint256 private _lastAccountingTimestampSec = now;\r\n    uint256 private _maxUnlockSchedules = 0;\r\n    uint256 private _initialSharesPerToken = 0;\r\n\r\n    //\r\n    // User accounting state\r\n    //\r\n    // Represents a single stake for a user. A user may have multiple.\r\n    struct Stake {\r\n        uint256 stakingShares;\r\n        uint256 timestampSec;\r\n    }\r\n\r\n    // Caches aggregated values from the User->Stake[] map to save computation.\r\n    // If lastAccountingTimestampSec is 0, there's no entry for that user.\r\n    struct UserTotals {\r\n        uint256 stakingShares;\r\n        uint256 stakingShareSeconds;\r\n        uint256 lastAccountingTimestampSec;\r\n    }\r\n\r\n    // Aggregated staking values per user\r\n    mapping(address => UserTotals) private _userTotals;\r\n\r\n    // The collection of stakes for each user. Ordered by timestamp, earliest to latest.\r\n    mapping(address => Stake[]) private _userStakes;\r\n\r\n    mapping(address => uint256) userEarnings;\r\n\r\n    //\r\n    // Locked/Unlocked Accounting state\r\n    //\r\n    struct UnlockSchedule {\r\n        uint256 initialLockedShares;\r\n        uint256 unlockedShares;\r\n        uint256 lastUnlockTimestampSec;\r\n        uint256 endAtSec;\r\n        uint256 durationSec;\r\n    }\r\n\r\n    UnlockSchedule[] public unlockSchedules;\r\n\r\n    address public geyserManager;\r\n    address public receiptToken;\r\n    address public feeAddress;\r\n\r\n    /**\r\n     * @param stakingToken The token users deposit as stake.\r\n     * @param distributionToken The token users receive as they unstake.\r\n     * @param maxUnlockSchedules Max number of unlock stages, to guard against hitting gas limit.\r\n     * @param startBonus_ Starting time bonus\r\n     *                    e.g. 25% means user gets 25% of max distribution tokens.\r\n     * @param bonusPeriodSec_ Length of time for bonus to increase linearly to max.\r\n     * @param initialSharesPerToken Number of shares to mint per staking token on first stake.\r\n     * @param bonusDecimals_ The number of decimals for shares\r\n     */\r\n    constructor(\r\n        IERC20 stakingToken,\r\n        IERC20 distributionToken,\r\n        uint256 maxUnlockSchedules,\r\n        uint256 startBonus_,\r\n        uint256 bonusPeriodSec_,\r\n        uint256 initialSharesPerToken,\r\n        uint256 bonusDecimals_,\r\n        address managerAddress,\r\n        address receiptTokenAddres,\r\n        address _feeAddress\r\n    ) public {\r\n        // The start bonus must be some fraction of the max. (i.e. <= 100%)\r\n        require(\r\n            startBonus_ <= 10**bonusDecimals_,\r\n            \"TokenGeyser: start bonus too high\"\r\n        );\r\n        // If no period is desired, instead set startBonus = 100%\r\n        // and bonusPeriod to a small value like 1sec.\r\n        require(bonusPeriodSec_ != 0, \"TokenGeyser: bonus period is zero\");\r\n        require(\r\n            initialSharesPerToken > 0,\r\n            \"TokenGeyser: initialSharesPerToken is zero\"\r\n        );\r\n\r\n        require(bonusDecimals_ > 0, \"TokenGeyser: bonusDecimals_ is zero\");\r\n\r\n        _stakingPool = new Vault(stakingToken);\r\n        _unlockedPool = new Vault(distributionToken);\r\n        _lockedPool = new Vault(distributionToken);\r\n\r\n        geyserManager = managerAddress;\r\n        startBonus = startBonus_;\r\n        bonusDecimals = bonusDecimals_;\r\n        bonusPeriodSec = bonusPeriodSec_;\r\n        _maxUnlockSchedules = maxUnlockSchedules;\r\n        _initialSharesPerToken = initialSharesPerToken;\r\n        receiptToken = receiptTokenAddres;\r\n        feeAddress = _feeAddress;\r\n    }\r\n\r\n    function setFeeAddress(address _feeAddress) public onlyOwner {\r\n        feeAddress = _feeAddress;\r\n    }\r\n\r\n    /**\r\n     * @return Total earnings for a user\r\n     */\r\n    function getEarnings(address user) public view returns (uint256) {\r\n        return userEarnings[user];\r\n    }\r\n\r\n    /**\r\n     * @dev Rescue rewards\r\n     */\r\n    function rescueRewards(address user) external onlyOwner {\r\n        require(totalUnlocked() > 0, \"TokenGeyser: Nothing to rescue\");\r\n        require(\r\n            _unlockedPool.transfer(user, _unlockedPool.balance()),\r\n            \"TokenGeyser: rescue rewards from rewards pool failed\"\r\n        );\r\n    }\r\n\r\n    /**\r\n     * @return The token users deposit as stake.\r\n     */\r\n    function getStakingToken() public view returns (IERC20) {\r\n        return _stakingPool.token();\r\n    }\r\n\r\n    /**\r\n     * @return The token users receive as they unstake.\r\n     */\r\n    function getDistributionToken() public view returns (IERC20) {\r\n        assert(_unlockedPool.token() == _lockedPool.token());\r\n        return _unlockedPool.token();\r\n    }\r\n\r\n    event log(string s);\r\n    event log(uint256 s);\r\n    event log(address s);\r\n\r\n    /**\r\n     * @dev Transfers amount of deposit tokens from the user.\r\n     * @param amount Number of deposit tokens to stake.\r\n     * @param data Not used.\r\n     */\r\n    function stake(\r\n        address staker,\r\n        uint256 amount,\r\n        bytes calldata data\r\n    ) external override {\r\n        require(\r\n            geyserManager == msg.sender,\r\n            \"This method can be called by the geyser manager only\"\r\n        );\r\n        _stakeFor(staker, staker, amount);\r\n    }\r\n\r\n    /**\r\n     * @dev Transfers amount of deposit tokens from the caller on behalf of user.\r\n     * @param user User address who gains credit for this stake operation.\r\n     * @param amount Number of deposit tokens to stake.\r\n     * @param data Not used.\r\n     */\r\n    function stakeFor(\r\n        address staker,\r\n        address user,\r\n        uint256 amount,\r\n        bytes calldata data\r\n    ) external override onlyOwner {\r\n        require(\r\n            geyserManager == msg.sender,\r\n            \"This method can be called by the geyser manager only\"\r\n        );\r\n        _stakeFor(staker, user, amount);\r\n    }\r\n\r\n    /**\r\n     * @dev Private implementation of staking methods.\r\n     * @param staker User address who deposits tokens to stake.\r\n     * @param beneficiary User address who gains credit for this stake operation.\r\n     * @param amount Number of deposit tokens to stake.\r\n     */\r\n    function _stakeFor(\r\n        address staker,\r\n        address beneficiary,\r\n        uint256 amount\r\n    ) private {\r\n        require(amount > 0, \"TokenGeyser: stake amount is zero\");\r\n        require(\r\n            beneficiary != address(0),\r\n            \"TokenGeyser: beneficiary is zero address\"\r\n        );\r\n        require(\r\n            totalStakingShares == 0 || totalStaked() > 0,\r\n            \"TokenGeyser: Invalid state. Staking shares exist, but no staking tokens do\"\r\n        );\r\n\r\n        uint256 mintedStakingShares =\r\n            (totalStakingShares > 0)\r\n                ? totalStakingShares.mul(amount).div(totalStaked())\r\n                : amount.mul(_initialSharesPerToken);\r\n\r\n        require(\r\n            mintedStakingShares > 0,\r\n            \"TokenGeyser: Stake amount is too small\"\r\n        );\r\n\r\n        updateAccounting(beneficiary);\r\n\r\n        // 1. User Accounting\r\n        UserTotals storage totals = _userTotals[beneficiary];\r\n        totals.stakingShares = totals.stakingShares.add(mintedStakingShares);\r\n        totals.lastAccountingTimestampSec = now;\r\n\r\n        Stake memory newStake = Stake(mintedStakingShares, now);\r\n        _userStakes[beneficiary].push(newStake);\r\n\r\n        // 2. Global Accounting\r\n        totalStakingShares = totalStakingShares.add(mintedStakingShares);\r\n        // Already set in updateAccounting()\r\n        // _lastAccountingTimestampSec = now;\r\n\r\n        // interactions\r\n        require(\r\n            _stakingPool.token().transferFrom(\r\n                staker,\r\n                address(_stakingPool),\r\n                amount\r\n            ),\r\n            \"TokenGeyser: transfer into staking pool failed\"\r\n        );\r\n\r\n        //receiptToken\r\n        ReceiptToken(receiptToken).mint(staker, amount);\r\n\r\n        emit ReceiptMinted(staker, amount);\r\n        emit Staked(beneficiary, amount, totalStakedFor(beneficiary), \"\");\r\n    }\r\n\r\n    /**\r\n     * @dev Unstakes a certain amount of previously deposited tokens. User also receives their\r\n     * alotted number of distribution tokens.\r\n     * @param amount Number of deposit tokens to unstake / withdraw.\r\n     * @param data Not used.\r\n     */\r\n    function unstake(\r\n        address staker,\r\n        uint256 amount,\r\n        bytes calldata data\r\n    ) external override {\r\n        require(\r\n            geyserManager == msg.sender,\r\n            \"This method can be called by the geyser manager only\"\r\n        );\r\n        _unstake(staker, amount);\r\n    }\r\n\r\n    /**\r\n     * @param amount Number of deposit tokens to unstake / withdraw.\r\n     * @return The total number of distribution tokens that would be rewarded.\r\n     */\r\n    function unstakeQuery(address staker, uint256 amount)\r\n        public\r\n        returns (uint256)\r\n    {\r\n        require(\r\n            geyserManager == msg.sender,\r\n            \"This method can be called by the geyser manager only\"\r\n        );\r\n        return _unstake(staker, amount);\r\n    }\r\n\r\n    function calculateFee(uint256 amount) private pure returns (uint256) {\r\n        return (amount * 500) / 10000;\r\n    }\r\n\r\n    /**\r\n     * @dev Unstakes a certain amount of previously deposited tokens. User also receives their\r\n     * alotted number of distribution tokens.\r\n     * @param amount Number of deposit tokens to unstake / withdraw.\r\n     * @return The total number of distribution tokens rewarded.\r\n     */\r\n\r\n    function _unstake(address user, uint256 amount) private returns (uint256) {\r\n        updateAccounting(user);\r\n\r\n        uint256 stakingSharesToBurn =\r\n            totalStakingShares.mul(amount).div(totalStaked());\r\n\r\n        require(\r\n            stakingSharesToBurn > 0,\r\n            \"TokenGeyser: Unable to unstake amount this small\"\r\n        );\r\n\r\n        // 1. User Accounting\r\n        UserTotals storage totals = _userTotals[user];\r\n        Stake[] storage accountStakes = _userStakes[user];\r\n\r\n        // Redeem from most recent stake and go backwards in time.\r\n        uint256 stakingShareSecondsToBurn = 0;\r\n        uint256 sharesLeftToBurn = stakingSharesToBurn;\r\n        uint256 rewardAmount = 0;\r\n        while (sharesLeftToBurn > 0) {\r\n            Stake storage lastStake = accountStakes[accountStakes.length - 1];\r\n            uint256 stakeTimeSec = now.sub(lastStake.timestampSec);\r\n            uint256 newStakingShareSecondsToBurn = 0;\r\n\r\n            if (lastStake.stakingShares <= sharesLeftToBurn) {\r\n                newStakingShareSecondsToBurn = lastStake.stakingShares.mul(\r\n                    stakeTimeSec\r\n                );\r\n                rewardAmount = computeNewReward(\r\n                    rewardAmount,\r\n                    newStakingShareSecondsToBurn,\r\n                    stakeTimeSec\r\n                );\r\n\r\n                stakingShareSecondsToBurn = stakingShareSecondsToBurn.add(\r\n                    newStakingShareSecondsToBurn\r\n                );\r\n                sharesLeftToBurn = sharesLeftToBurn.sub(\r\n                    lastStake.stakingShares\r\n                );\r\n                accountStakes.pop();\r\n            } else {\r\n                newStakingShareSecondsToBurn = sharesLeftToBurn.mul(\r\n                    stakeTimeSec\r\n                );\r\n                rewardAmount = computeNewReward(\r\n                    rewardAmount,\r\n                    newStakingShareSecondsToBurn,\r\n                    stakeTimeSec\r\n                );\r\n                stakingShareSecondsToBurn = stakingShareSecondsToBurn.add(\r\n                    newStakingShareSecondsToBurn\r\n                );\r\n                lastStake.stakingShares = lastStake.stakingShares.sub(\r\n                    sharesLeftToBurn\r\n                );\r\n                sharesLeftToBurn = 0;\r\n            }\r\n        }\r\n        totals.stakingShareSeconds = totals.stakingShareSeconds.sub(\r\n            stakingShareSecondsToBurn\r\n        );\r\n        totals.stakingShares = totals.stakingShares.sub(stakingSharesToBurn);\r\n        // Already set in updateAccounting\r\n        // totals.lastAccountingTimestampSec = now;\r\n\r\n        // 2. Global Accounting\r\n        _totalStakingShareSeconds = _totalStakingShareSeconds.sub(\r\n            stakingShareSecondsToBurn\r\n        );\r\n        totalStakingShares = totalStakingShares.sub(stakingSharesToBurn);\r\n        // Already set in updateAccountingF\r\n        // _lastAccountingTimestampSec = now;\r\n\r\n        // interactions\r\n        require(\r\n            _stakingPool.transfer(user, amount),\r\n            \"TokenGeyser: transfer out of staking pool failed\"\r\n        );\r\n\r\n        //in case rescueRewards was called, there are no rewards to be transfered\r\n        if (totalUnlocked() >= rewardAmount) {\r\n            uint256 feeAmount = calculateFee(rewardAmount);\r\n            uint256 finalRewardAmount = rewardAmount - feeAmount;\r\n            require(\r\n                _unlockedPool.transfer(user, finalRewardAmount),\r\n                \"TokenGeyser: transfer out of unlocked pool failed\"\r\n            );\r\n            require(\r\n                _unlockedPool.transfer(feeAddress, feeAmount),\r\n                \"TokenGeyser: transfer fee out of unlocked pool failed\"\r\n            );\r\n            emit FeeCollected(feeAddress, feeAmount);\r\n            emit TokensClaimed(user, finalRewardAmount);\r\n\r\n            userEarnings[user] += finalRewardAmount;\r\n        }\r\n        uint256 receiptBalance = ReceiptToken(receiptToken).balanceOf(user);\r\n        require(\r\n            receiptBalance >= amount,\r\n            \"TokenGeyser: You have less receipt tokens than it is required\"\r\n        );\r\n        ReceiptToken(receiptToken).burn(user, amount);\r\n\r\n        emit ReceiptBurned(user, amount);\r\n        emit Unstaked(user, amount, totalStakedFor(user), \"\");\r\n\r\n        require(\r\n            totalStakingShares == 0 || totalStaked() > 0,\r\n            \"TokenGeyser: Error unstaking. Staking shares exist, but no staking tokens do\"\r\n        );\r\n\r\n        return rewardAmount;\r\n    }\r\n\r\n    /**\r\n     * @dev Applies an additional time-bonus to a distribution amount. This is necessary to\r\n     *      encourage long-term deposits instead of constant unstake/restakes.\r\n     *      The bonus-multiplier is the result of a linear function that starts at startBonus and\r\n     *      ends at 100% over bonusPeriodSec, then stays at 100% thereafter.\r\n     * @param currentRewardTokens The current number of distribution tokens already alotted for this\r\n     *                            unstake op. Any bonuses are already applied.\r\n     * @param stakingShareSeconds The stakingShare-seconds that are being burned for new\r\n     *                            distribution tokens.\r\n     * @param stakeTimeSec Length of time for which the tokens were staked. Needed to calculate\r\n     *                     the time-bonus.\r\n     * @return Updated amount of distribution tokens to award, with any bonus included on the\r\n     *         newly added tokens.\r\n     */\r\n    function computeNewReward(\r\n        uint256 currentRewardTokens,\r\n        uint256 stakingShareSeconds,\r\n        uint256 stakeTimeSec\r\n    ) private view returns (uint256) {\r\n        uint256 newRewardTokens =\r\n            totalUnlocked().mul(stakingShareSeconds).div(\r\n                _totalStakingShareSeconds\r\n            );\r\n\r\n        if (stakeTimeSec >= bonusPeriodSec) {\r\n            return currentRewardTokens.add(newRewardTokens);\r\n        }\r\n\r\n        uint256 oneHundredPct = 10**bonusDecimals;\r\n        uint256 bonusedReward =\r\n            startBonus\r\n                .add(\r\n                oneHundredPct.sub(startBonus).mul(stakeTimeSec).div(\r\n                    bonusPeriodSec\r\n                )\r\n            )\r\n                .mul(newRewardTokens)\r\n                .div(oneHundredPct);\r\n\r\n        return currentRewardTokens.add(bonusedReward);\r\n    }\r\n\r\n    /**\r\n     * @param addr The user to look up staking information for.\r\n     * @return The number of staking tokens deposited for addr.\r\n     */\r\n    function totalStakedFor(address addr)\r\n        public\r\n        view\r\n        override\r\n        returns (uint256)\r\n    {\r\n        return\r\n            totalStakingShares > 0\r\n                ? totalStaked().mul(_userTotals[addr].stakingShares).div(\r\n                    totalStakingShares\r\n                )\r\n                : 0;\r\n    }\r\n\r\n    /**\r\n     * @return The total number of deposit tokens staked globally, by all users.\r\n     */\r\n    function totalStaked() public view override returns (uint256) {\r\n        return _stakingPool.balance();\r\n    }\r\n\r\n    /**\r\n     * @dev Note that this application has a staking token as well as a distribution token, which\r\n     * may be different. This function is required by EIP-900.\r\n     * @return The deposit token used for staking.\r\n     */\r\n    function token() external view override returns (address) {\r\n        return address(getStakingToken());\r\n    }\r\n\r\n    /**\r\n     * @dev A globally callable function to update the accounting state of the system.\r\n     *      Global state and state for the caller are updated.\r\n     * @return [0] balance of the locked pool\r\n     * @return [1] balance of the unlocked pool\r\n     * @return [2] caller's staking share seconds\r\n     * @return [3] global staking share seconds\r\n     * @return [4] Rewards caller has accumulated, optimistically assumes max time-bonus.\r\n     * @return [5] block timestamp\r\n     */\r\n    function updateAccounting(address user)\r\n        public\r\n        returns (\r\n            uint256,\r\n            uint256,\r\n            uint256,\r\n            uint256,\r\n            uint256,\r\n            uint256\r\n        )\r\n    {\r\n        _unlockTokens();\r\n\r\n        // Global accounting\r\n        uint256 newStakingShareSeconds =\r\n            now.sub(_lastAccountingTimestampSec).mul(totalStakingShares);\r\n        _totalStakingShareSeconds = _totalStakingShareSeconds.add(\r\n            newStakingShareSeconds\r\n        );\r\n        _lastAccountingTimestampSec = now;\r\n\r\n        // User Accounting\r\n        UserTotals storage totals = _userTotals[user];\r\n        uint256 newUserStakingShareSeconds =\r\n            now.sub(totals.lastAccountingTimestampSec).mul(\r\n                totals.stakingShares\r\n            );\r\n        totals.stakingShareSeconds = totals.stakingShareSeconds.add(\r\n            newUserStakingShareSeconds\r\n        );\r\n        totals.lastAccountingTimestampSec = now;\r\n\r\n        uint256 totalUserRewards =\r\n            (_totalStakingShareSeconds > 0)\r\n                ? totalUnlocked().mul(totals.stakingShareSeconds).div(\r\n                    _totalStakingShareSeconds\r\n                )\r\n                : 0;\r\n\r\n        return (\r\n            totalLocked(),\r\n            totalUnlocked(),\r\n            totals.stakingShareSeconds,\r\n            _totalStakingShareSeconds,\r\n            totalUserRewards,\r\n            now\r\n        );\r\n    }\r\n\r\n    /**\r\n     * @return Total number of locked distribution tokens.\r\n     */\r\n    function totalLocked() public view returns (uint256) {\r\n        return _lockedPool.balance();\r\n    }\r\n\r\n    /**\r\n     * @return Total number of unlocked distribution tokens.\r\n     */\r\n    function totalUnlocked() public view returns (uint256) {\r\n        return _unlockedPool.balance();\r\n    }\r\n\r\n    /**\r\n     * @return Number of unlock schedules.\r\n     */\r\n    function unlockScheduleCount() public view returns (uint256) {\r\n        return unlockSchedules.length;\r\n    }\r\n\r\n    /**\r\n     * @dev This funcion allows the contract owner to add more locked distribution tokens, along\r\n     *      with the associated \"unlock schedule\". These locked tokens immediately begin unlocking\r\n     *      linearly over the duraction of durationSec timeframe.\r\n     * @param amount Number of distribution tokens to lock. These are transferred from the caller.\r\n     * @param durationSec Length of time to linear unlock the tokens.\r\n     */\r\n    function lockTokens(uint256 amount, uint256 durationSec)\r\n        external\r\n        onlyOwner\r\n    {\r\n        require(\r\n            unlockSchedules.length < _maxUnlockSchedules,\r\n            \"TokenGeyser: reached maximum unlock schedules\"\r\n        );\r\n\r\n        // Update lockedTokens amount before using it in computations after.\r\n        updateAccounting(msg.sender);\r\n\r\n        uint256 lockedTokens = totalLocked();\r\n        uint256 mintedLockedShares =\r\n            (lockedTokens > 0)\r\n                ? totalLockedShares.mul(amount).div(lockedTokens)\r\n                : amount.mul(_initialSharesPerToken);\r\n\r\n        UnlockSchedule memory schedule;\r\n        schedule.initialLockedShares = mintedLockedShares;\r\n        schedule.lastUnlockTimestampSec = now;\r\n        schedule.endAtSec = now.add(durationSec);\r\n        schedule.durationSec = durationSec;\r\n        unlockSchedules.push(schedule);\r\n\r\n        totalLockedShares = totalLockedShares.add(mintedLockedShares);\r\n\r\n        require(\r\n            _lockedPool.token().transferFrom(\r\n                msg.sender,\r\n                address(_lockedPool),\r\n                amount\r\n            ),\r\n            \"TokenGeyser: transfer into locked pool failed\"\r\n        );\r\n        emit TokensLocked(amount, durationSec, totalLocked());\r\n    }\r\n\r\n    /**\r\n     * @dev Moves distribution tokens from the locked pool to the unlocked pool, according to the\r\n     *      previously defined unlock schedules. Publicly callable.\r\n     * @return Number of newly unlocked distribution tokens.\r\n     */\r\n    function unlockTokens() public onlyOwner returns (uint256) {\r\n        _unlockTokens();\r\n    }\r\n\r\n    function _unlockTokens() private returns (uint256) {\r\n        uint256 unlockedTokens = 0;\r\n        uint256 lockedTokens = totalLocked();\r\n\r\n        if (totalLockedShares == 0) {\r\n            unlockedTokens = lockedTokens;\r\n        } else {\r\n            uint256 unlockedShares = 0;\r\n            for (uint256 s = 0; s < unlockSchedules.length; s++) {\r\n                unlockedShares = unlockedShares.add(unlockScheduleShares(s));\r\n            }\r\n            unlockedTokens = unlockedShares.mul(lockedTokens).div(\r\n                totalLockedShares\r\n            );\r\n            totalLockedShares = totalLockedShares.sub(unlockedShares);\r\n        }\r\n\r\n        if (unlockedTokens > 0) {\r\n            require(\r\n                _lockedPool.transfer(address(_unlockedPool), unlockedTokens),\r\n                \"TokenGeyser: transfer out of locked pool failed\"\r\n            );\r\n            emit TokensUnlocked(unlockedTokens, totalLocked());\r\n        }\r\n\r\n        return unlockedTokens;\r\n    }\r\n\r\n    /**\r\n     * @dev Returns the number of unlockable shares from a given schedule. The returned value\r\n     *      depends on the time since the last unlock. This function updates schedule accounting,\r\n     *      but does not actually transfer any tokens.\r\n     * @param s Index of the unlock schedule.\r\n     * @return The number of unlocked shares.\r\n     */\r\n    function unlockScheduleShares(uint256 s) private returns (uint256) {\r\n        UnlockSchedule storage schedule = unlockSchedules[s];\r\n\r\n        if (schedule.unlockedShares >= schedule.initialLockedShares) {\r\n            return 0;\r\n        }\r\n\r\n        uint256 sharesToUnlock = 0;\r\n        // Special case to handle any leftover dust from integer division\r\n        if (now >= schedule.endAtSec) {\r\n            sharesToUnlock = (\r\n                schedule.initialLockedShares.sub(schedule.unlockedShares)\r\n            );\r\n            schedule.lastUnlockTimestampSec = schedule.endAtSec;\r\n        } else {\r\n            sharesToUnlock = now\r\n                .sub(schedule.lastUnlockTimestampSec)\r\n                .mul(schedule.initialLockedShares)\r\n                .div(schedule.durationSec);\r\n            schedule.lastUnlockTimestampSec = now;\r\n        }\r\n\r\n        schedule.unlockedShares = schedule.unlockedShares.add(sharesToUnlock);\r\n        return sharesToUnlock;\r\n    }\r\n\r\n    /**\r\n     * @dev Lets the owner rescue funds air-dropped to the staking pool.\r\n     * @param otherToken Address of the token to be rescued.\r\n     * @param to Address to which the rescued funds are to be sent.\r\n     * @param amount Amount of tokens to be rescued.\r\n     * @return Transfer success.\r\n     */\r\n    function rescueFundsFromStakingPool(\r\n        address otherToken,\r\n        address to,\r\n        uint256 amount\r\n    ) public onlyOwner returns (bool) {\r\n        return _stakingPool.rescueOthers(otherToken, to, amount);\r\n    }\r\n\r\n    function totalRewards() external view returns (uint256) {\r\n        uint256 lockedPoolBalance = _lockedPool.balance();\r\n        uint256 unlockedPoolBalance = _unlockedPool.balance();\r\n        return lockedPoolBalance + unlockedPoolBalance;\r\n    }\r\n}\r\n",
  "sourcePath": "D:\\Data\\4. Coding\\Solidity\\Nakamoto\\Tinfoil finance\\contracts\\TokenGeyser.sol",
  "compiler": {
    "name": "solc",
    "version": "0.6.6+commit.6c089d02.Emscripten.clang"
  },
  "schemaVersion": "3.3.3",
  "updatedAt": "2021-02-15T11:53:37.430Z",
  "devdoc": {
    "methods": {
      "constructor": {
        "params": {
          "bonusDecimals_": "The number of decimals for shares",
          "bonusPeriodSec_": "Length of time for bonus to increase linearly to max.",
          "distributionToken": "The token users receive as they unstake.",
          "initialSharesPerToken": "Number of shares to mint per staking token on first stake.",
          "maxUnlockSchedules": "Max number of unlock stages, to guard against hitting gas limit.",
          "stakingToken": "The token users deposit as stake.",
          "startBonus_": "Starting time bonus                   e.g. 25% means user gets 25% of max distribution tokens."
        }
      },
      "lockTokens(uint256,uint256)": {
        "details": "This funcion allows the contract owner to add more locked distribution tokens, along     with the associated \"unlock schedule\". These locked tokens immediately begin unlocking     linearly over the duraction of durationSec timeframe.",
        "params": {
          "amount": "Number of distribution tokens to lock. These are transferred from the caller.",
          "durationSec": "Length of time to linear unlock the tokens."
        }
      },
      "owner()": {
        "details": "Returns the address of the current owner."
      },
      "renounceOwnership()": {
        "details": "Leaves the contract without owner. It will not be possible to call `onlyOwner` functions anymore. Can only be called by the current owner.     * NOTE: Renouncing ownership will leave the contract without an owner, thereby removing any functionality that is only available to the owner."
      },
      "rescueFundsFromStakingPool(address,address,uint256)": {
        "details": "Lets the owner rescue funds air-dropped to the staking pool.",
        "params": {
          "amount": "Amount of tokens to be rescued.",
          "otherToken": "Address of the token to be rescued.",
          "to": "Address to which the rescued funds are to be sent."
        },
        "returns": {
          "_0": "Transfer success."
        }
      },
      "rescueRewards(address)": {
        "details": "Rescue rewards"
      },
      "stake(address,uint256,bytes)": {
        "details": "Transfers amount of deposit tokens from the user.",
        "params": {
          "amount": "Number of deposit tokens to stake.",
          "data": "Not used."
        }
      },
      "stakeFor(address,address,uint256,bytes)": {
        "details": "Transfers amount of deposit tokens from the caller on behalf of user.",
        "params": {
          "amount": "Number of deposit tokens to stake.",
          "data": "Not used.",
          "user": "User address who gains credit for this stake operation."
        }
      },
      "token()": {
        "details": "Note that this application has a staking token as well as a distribution token, which may be different. This function is required by EIP-900.",
        "returns": {
          "_0": "The deposit token used for staking."
        }
      },
      "totalStakedFor(address)": {
        "params": {
          "addr": "The user to look up staking information for."
        },
        "returns": {
          "_0": "The number of staking tokens deposited for addr."
        }
      },
      "transferOwnership(address)": {
        "details": "Transfers ownership of the contract to a new account (`newOwner`). Can only be called by the current owner."
      },
      "unlockTokens()": {
        "details": "Moves distribution tokens from the locked pool to the unlocked pool, according to the     previously defined unlock schedules. Publicly callable.",
        "returns": {
          "_0": "Number of newly unlocked distribution tokens."
        }
      },
      "unstake(address,uint256,bytes)": {
        "details": "Unstakes a certain amount of previously deposited tokens. User also receives their alotted number of distribution tokens.",
        "params": {
          "amount": "Number of deposit tokens to unstake / withdraw.",
          "data": "Not used."
        }
      },
      "unstakeQuery(address,uint256)": {
        "params": {
          "amount": "Number of deposit tokens to unstake / withdraw."
        },
        "returns": {
          "_0": "The total number of distribution tokens that would be rewarded."
        }
      },
      "updateAccounting(address)": {
        "details": "A globally callable function to update the accounting state of the system.     Global state and state for the caller are updated.",
        "returns": {
          "_0": "[0] balance of the locked pool",
          "_1": "[1] balance of the unlocked pool",
          "_2": "[2] caller's staking share seconds",
          "_3": "[3] global staking share seconds",
          "_4": "[4] Rewards caller has accumulated, optimistically assumes max time-bonus.",
          "_5": "[5] block timestamp"
        }
      }
    }
  },
  "userdoc": {
    "methods": {}
  }
}