{
  "contractName": "Vault",
  "abi": [
    {
      "inputs": [
        {
          "internalType": "contract IERC20",
          "name": "_token",
          "type": "address"
        }
      ],
      "stateMutability": "nonpayable",
      "type": "constructor"
    },
    {
      "anonymous": false,
      "inputs": [
        {
          "indexed": true,
          "internalType": "address",
          "name": "previousOwner",
          "type": "address"
        },
        {
          "indexed": true,
          "internalType": "address",
          "name": "newOwner",
          "type": "address"
        }
      ],
      "name": "OwnershipTransferred",
      "type": "event"
    },
    {
      "inputs": [],
      "name": "owner",
      "outputs": [
        {
          "internalType": "address",
          "name": "",
          "type": "address"
        }
      ],
      "stateMutability": "view",
      "type": "function"
    },
    {
      "inputs": [],
      "name": "renounceOwnership",
      "outputs": [],
      "stateMutability": "nonpayable",
      "type": "function"
    },
    {
      "inputs": [],
      "name": "token",
      "outputs": [
        {
          "internalType": "contract IERC20",
          "name": "",
          "type": "address"
        }
      ],
      "stateMutability": "view",
      "type": "function"
    },
    {
      "inputs": [
        {
          "internalType": "address",
          "name": "newOwner",
          "type": "address"
        }
      ],
      "name": "transferOwnership",
      "outputs": [],
      "stateMutability": "nonpayable",
      "type": "function"
    },
    {
      "inputs": [],
      "name": "balance",
      "outputs": [
        {
          "internalType": "uint256",
          "name": "",
          "type": "uint256"
        }
      ],
      "stateMutability": "view",
      "type": "function"
    },
    {
      "inputs": [
        {
          "internalType": "address",
          "name": "to",
          "type": "address"
        },
        {
          "internalType": "uint256",
          "name": "value",
          "type": "uint256"
        }
      ],
      "name": "transfer",
      "outputs": [
        {
          "internalType": "bool",
          "name": "",
          "type": "bool"
        }
      ],
      "stateMutability": "nonpayable",
      "type": "function"
    },
    {
      "inputs": [
        {
          "internalType": "address",
          "name": "to",
          "type": "address"
        },
        {
          "internalType": "uint256",
          "name": "amount",
          "type": "uint256"
        }
      ],
      "name": "rescue",
      "outputs": [
        {
          "internalType": "bool",
          "name": "",
          "type": "bool"
        }
      ],
      "stateMutability": "nonpayable",
      "type": "function"
    },
    {
      "inputs": [
        {
          "internalType": "address",
          "name": "otherToken",
          "type": "address"
        },
        {
          "internalType": "address",
          "name": "to",
          "type": "address"
        },
        {
          "internalType": "uint256",
          "name": "amount",
          "type": "uint256"
        }
      ],
      "name": "rescueOthers",
      "outputs": [
        {
          "internalType": "bool",
          "name": "",
          "type": "bool"
        }
      ],
      "stateMutability": "nonpayable",
      "type": "function"
    }
  ],
  "bytecode": "0x608060405234801561001057600080fd5b506040516106f03803806106f08339818101604052602081101561003357600080fd5b505160006100486001600160e01b036100b716565b600080546001600160a01b0319166001600160a01b0383169081178255604051929350917f8be0079c531659141344cd1fd0a4f28419497f9722a3daafe3b4186f6b6457e0908290a350600180546001600160a01b0319166001600160a01b03929092169190911790556100bb565b3390565b610626806100ca6000396000f3fe608060405234801561001057600080fd5b50600436106100885760003560e01c8063b69ef8a81161005b578063b69ef8a8146100fb578063e7d2150d14610115578063f2fde38b1461014b578063fc0c546a1461017157610088565b8063715018a61461008d5780637a4e4ecf146100975780638da5cb5b146100d7578063a9059cbb14610097575b600080fd5b610095610179565b005b6100c3600480360360408110156100ad57600080fd5b506001600160a01b038135169060200135610225565b604080519115158252519081900360200190f35b6100df610312565b604080516001600160a01b039092168252519081900360200190f35b610103610321565b60408051918252519081900360200190f35b6100c36004803603606081101561012b57600080fd5b506001600160a01b0381358116916020810135909116906040013561039d565b6100956004803603602081101561016157600080fd5b50356001600160a01b0316610495565b6100df610597565b6101816105a6565b6001600160a01b0316610192610312565b6001600160a01b0316146101db576040805162461bcd60e51b815260206004820181905260248201526000805160206105d1833981519152604482015290519081900360640190fd5b600080546040516001600160a01b03909116907f8be0079c531659141344cd1fd0a4f28419497f9722a3daafe3b4186f6b6457e0908390a3600080546001600160a01b0319169055565b600061022f6105a6565b6001600160a01b0316610240610312565b6001600160a01b031614610289576040805162461bcd60e51b815260206004820181905260248201526000805160206105d1833981519152604482015290519081900360640190fd5b6001546040805163a9059cbb60e01b81526001600160a01b038681166004830152602482018690529151919092169163a9059cbb9160448083019260209291908290030181600087803b1580156102df57600080fd5b505af11580156102f3573d6000803e3d6000fd5b505050506040513d602081101561030957600080fd5b50519392505050565b6000546001600160a01b031690565b600154604080516370a0823160e01b815230600482015290516000926001600160a01b0316916370a08231916024808301926020929190829003018186803b15801561036c57600080fd5b505afa158015610380573d6000803e3d6000fd5b505050506040513d602081101561039657600080fd5b5051905090565b60006103a76105a6565b6001600160a01b03166103b8610312565b6001600160a01b031614610401576040805162461bcd60e51b815260206004820181905260248201526000805160206105d1833981519152604482015290519081900360640190fd5b836001600160a01b031663a9059cbb84846040518363ffffffff1660e01b815260040180836001600160a01b03166001600160a01b0316815260200182815260200192505050602060405180830381600087803b15801561046157600080fd5b505af1158015610475573d6000803e3d6000fd5b505050506040513d602081101561048b57600080fd5b5051949350505050565b61049d6105a6565b6001600160a01b03166104ae610312565b6001600160a01b0316146104f7576040805162461bcd60e51b815260206004820181905260248201526000805160206105d1833981519152604482015290519081900360640190fd5b6001600160a01b03811661053c5760405162461bcd60e51b81526004018080602001828103825260268152602001806105ab6026913960400191505060405180910390fd5b600080546040516001600160a01b03808516939216917f8be0079c531659141344cd1fd0a4f28419497f9722a3daafe3b4186f6b6457e091a3600080546001600160a01b0319166001600160a01b0392909216919091179055565b6001546001600160a01b031681565b339056fe4f776e61626c653a206e6577206f776e657220697320746865207a65726f20616464726573734f776e61626c653a2063616c6c6572206973206e6f7420746865206f776e6572a26469706673582212203d5dbf80e4dfe602ea36c9f0a19723349850854e8cab3759c59c1f844614755564736f6c63430006060033",
  "immutableReferences": {},
  "source": "// SPDX-License-Identifier: MIT\r\npragma solidity ^0.6.0;\r\n\r\nimport \"@openzeppelin/contracts/token/ERC20/ERC20.sol\";\r\n\r\nimport \"@openzeppelin/contracts/access/Ownable.sol\";\r\n\r\ncontract Vault is Ownable {\r\n    IERC20 public token;\r\n\r\n    constructor(IERC20 _token) public {\r\n        token = _token;\r\n    }\r\n\r\n    function balance() public view returns (uint256) {\r\n        return token.balanceOf(address(this));\r\n    }\r\n\r\n    function transfer(address to, uint256 value)\r\n        external\r\n        onlyOwner\r\n        returns (bool)\r\n    {\r\n        return token.transfer(to, value);\r\n    }\r\n\r\n    function rescue(address to, uint256 amount)\r\n        external\r\n        onlyOwner\r\n        returns (bool)\r\n    {\r\n        return token.transfer(to, amount);\r\n    }\r\n\r\n    function rescueOthers(\r\n        address otherToken,\r\n        address to,\r\n        uint256 amount\r\n    ) external onlyOwner returns (bool) {\r\n        return IERC20(otherToken).transfer(to, amount);\r\n    }\r\n}\r\n",
  "sourcePath": "D:\\Data\\4. Coding\\Solidity\\Nakamoto\\Tinfoil finance\\contracts\\Vault.sol",
  "compiler": {
    "name": "solc",
    "version": "0.6.6+commit.6c089d02.Emscripten.clang"
  },
  "schemaVersion": "3.3.3",
  "updatedAt": "2021-02-15T13:38:07.524Z",
  "devdoc": {
    "methods": {
      "owner()": {
        "details": "Returns the address of the current owner."
      },
      "renounceOwnership()": {
        "details": "Leaves the contract without owner. It will not be possible to call `onlyOwner` functions anymore. Can only be called by the current owner.     * NOTE: Renouncing ownership will leave the contract without an owner, thereby removing any functionality that is only available to the owner."
      },
      "transferOwnership(address)": {
        "details": "Transfers ownership of the contract to a new account (`newOwner`). Can only be called by the current owner."
      }
    }
  },
  "userdoc": {
    "methods": {}
  }
}